:1000000028430020A1060000B1060000B106000050
:10001000B1060000B1060000B1060000B106000004
:10002000B1060000B1060000B1060000252D000059
:10003000B1060000B1060000812D0000C52D0000B2
:10004000B1060000B1060000B1060000B1060000D4
:10005000B1060000B1060000B1060000B1060000C4
:10006000B1060000B1060000B1060000B1060000B4
:10007000B1060000B1060000B1060000B1060000A4
:0C008000B1060000B1060000B10600004F
:10009000002243088B4274D303098B425FD3030AC7
:1000A0008B4244D3030B8B4228D3030C8B420DD3DA
:1000B000FF22090212BA030C8B4202D31212090268
:1000C00065D0030B8B4219D300E0090AC30B8B42A6
:1000D00001D3CB03C01A5241830B8B4201D38B0354
:1000E000C01A5241430B8B4201D34B03C01A5241F9
:1000F000030B8B4201D30B03C01A5241C30A8B423C
:1001000001D3CB02C01A5241830A8B4201D38B0226
:10011000C01A5241430A8B4201D34B02C01A5241CA
:10012000030A8B4201D30B02C01A5241CDD2C3093C
:100130008B4201D3CB01C01A524183098B4201D3B8
:100140008B01C01A524143098B4201D34B01C01AA3
:10015000524103098B4201D30B01C01A5241C3081B
:100160008B4201D3CB00C01A524183088B4201D38A
:100170008B00C01A524143088B4201D34B00C01A76
:100180005241411A00D20146524110467047FFE7E2
:1001900001B5002000F006F802BDC0460029F7D0E6
:1001A00076E770477047C0461C2101231B04984224
:1001B00001D3000C10391B0A984201D3000A0839F8
:1001C0001B09984201D30009043902A2105C4018AF
:1001D0007047C04604030202010101010000000053
:1001E00000000000002B11D1002A0FD1002900D1FE
:1001F000002802D00021C943081C07B4024802A10C
:100200004018029003BDC0469DFFFFFF03B468463F
:1002100001B5029800F02EF8019B9E4602B00CBC7E
:100220007047C046F0B515042D0C0F0001002E00DC
:10023000C64684460004140C000C090C46434D438A
:10024000604361434019340C241800B5A54203D91A
:100250008020400280464144250C6D186146594378
:100260007A43300449192404000C2018891880BCF2
:10027000B846F0BDF0B557464E464546DE46E0B5B9
:1002800004000D009246994683B08B4230D82DD0A1
:100290004946504600F0BAF829000600200000F058
:1002A000B5F8331A9846203B9B4633D45A465346FA
:1002B000934042461F00534693401E00AF423AD837
:1002C000AF4200D178E05B46A41BBD41002B00DAB1
:1002D00075E0002200230092019301235A469340C7
:1002E0000193012342469340009328E08242CFD9F4
:1002F00000220023009201930C9B002B01D01C6074
:100300005D600098019903B0F0BCBB46B246A946B7
:10031000A046F0BD424620239B1A5246DA40414691
:1003200013004A468A40170042461F4353469340F3
:100330001E00AF42C4D9002200230092019343461D
:10034000002BD9D0FB0772081A4346467B080EE003
:10035000AB4201D1A2420CD8A41A9D41012024191C
:100360006D410021013E24184D41002E06D0AB42C4
:10037000EED9013E24196D41002EF8D10098019963
:100380005B4600196941002B24DB2B005A4644468A
:10039000D3402A00E2401C005B461500002B2ADBFC
:1003A00026009E40330026004746BE403200801A99
:1003B0009941009001919FE7A342BCD883E7424650
:1003C000202300219B1A0022009101920122DA4091
:1003D000019286E7424620239B1A2A0046469A400D
:1003E0002300F340444613432A00E2401C005B46CE
:1003F0001500002BD4DA42462F0020232600974018
:100400009B1ADE403B003343CDE7C04610B50029C0
:1004100003D1FFF7C9FE203002E0081CFFF7C4FE3D
:1004200010BDC04670B505000021062003F048FF4E
:10043000002415E00021122003F042FF07231B1BBC
:100440002A001A41012111400D2003F039FF01213A
:10045000122003F035FF082007F09EF90134E4B2C2
:10046000072CE7D90021122003F02AFF01210620E2
:1004700003F026FFAF20800007F08EF970BD00006A
:1004800010B50A49062003F0ADFE0021062003F056
:1004900017FF012007F080F90121062003F010FF6B
:1004A0008C20800007F078F910BDC04601040020C0
:1004B00010B5FFF7E5FF1049062003F093FE0F4C3F
:1004C0002100122003F08EFE21000D2003F08AFE91
:1004D0000B490C2003F086FEB920FFF7A3FF06208E
:1004E00003F0A6FD122003F0A3FD0D2003F0A0FDF4
:1004F0000C2003F09DFD10BD01040020000400202D
:10050000022004607047000010B504F043FD04F0C1
:10051000A5FE074A136801218B430B43136003F0C8
:10052000CFFD03F035FDFFF7C3FFFFF7EBFF10BD75
:10053000140000400300406A002803D01B6B1B68B6
:100540000A20C01A704700000B4B1B68002B00D01C
:1005500001230A4A1268D06A00280BD1084A12689F
:10056000012A08D8002B06D1064B1868064B1B68D9
:10057000C01A00E00020704740300020100A002020
:10058000280A0020603100200C320020084B1B6834
:100590001B68002B04D1074B012252421A6070479E
:1005A000034B1B68DB681A68024B1A60F7E7C0460A
:1005B000180A002060310020074B1A681368002BCE
:1005C00006D101330360002B04D1D368186870474B
:1005D0000023F7E70020FAE7140A0020104A530727
:1005E0001BD0D11D0723994380239B015B1A9B18C5
:1005F0000A000C48026000214160D318083B072024
:1006000083430948036059601960991A5160136067
:10061000064B1960064B1960704780239B01E8E781
:10062000F00A00208C3100201C0A00205C310020E0
:100630009430002010B5124B1A001B688342FBD384
:1006400051685418844208D041684418A34209D024
:100650000360904200D0106010BD406809185160DE
:100660001000F1E7074C2468A34206D05B68C91864
:10067000416013681B680360EBE70460E9E7C0466C
:100680008C3100201C0A00200200032308200028CF
:1006900005D0024202D1013B4010F8E71800704734
:1006A00002480068854602F0BFF900000000000023
:1006B00072B6FEE710B5074B5A68FF2313409B0044
:1006C000054A9B58002B04D098685B68984702F055
:1006D0002BFB10BD00ED00E03009002010B5040038
:1006E00002F02EFBA26BE36B9A4204D0002402F0CE
:1006F00033FB200010BD0124F9E710B5040002F01F
:100700001FFBA36B002B04D1012402F025FB20006A
:1007100010BD0024F9E710B5030008001A6C002A88
:100720000AD0D9688918D9609C68A14201D3196898
:10073000D960D96807F076FA10BD0300083343602A
:10074000012252428260C36003610023036070474C
:1007500070B50024092C08D8A3001B1998000E4B73
:10076000C018FFF7EAFF0134F4E70C4D2800FFF74B
:10077000E4FF0B4C2000FFF7E0FF0A48FFF7DDFF26
:100780000948FFF7DAFF0948FFF7D7FF084B1D605C
:10079000084B1C6070BDC046280A00206C30002049
:1007A0008030002074310020F8310020E431002036
:1007B000180A0020200A002010B5040002F0C0FA38
:1007C000284A136801331360274B1B68002B0CD099
:1007D000264B1B68002B0DD1234B1B68DB6AE26A9A
:1007E000934207D8204B1C6004E01F4B1C60136829
:1007F000012B31D01E4A1368013313606364E26A2F
:100800001C4B1B689A4201D91A4B1A601A49930073
:100810009B189B00CB185B68A3609868E060221D62
:1008200042609A60E06A83001A189200521862616E
:100830001A189200525801321B189B005A5002F0AD
:100840008BFA0A4B1B68002B05D0074B1B68DA6A32
:10085000E36A9A4203D310BDFFF77AFFCAE702F0BA
:1008600063FAF8E7302C0020100A002088310020BD
:100870003C2E002040300020280A00200023036185
:1008800070470000F8B5D6464F4680B581460F0048
:1008900016009A46089D0A9C9200A521206B07F03D
:1008A000CAF9234BF2189200236B9C46624407233B
:1008B0009A4316002264002F0ED000220B2A08D87B
:1008C000B95CA31834331970BB5C002B01D0013222
:1008D000F4E73F230022E254092D00D90925E562FF
:1008E000E564201DFFF7CAFF20001830FFF7C6FFA0
:1008F00024610A235D1BA5616462200058306022D8
:10090000002107F098F90B4BE3650B4B23660B4B6B
:10091000636652464946300002F0F4F92060099BB4
:10092000002B00D01C60C0BCBA46B146F8BDC04622
:10093000FFFFFF3F94800000B4800000748000003F
:1009400043684B609A688A605160996008610368E7
:1009500001330360704730B50C68631C10D003008E
:1009600008331A005B681D68A542FAD953684B60CA
:1009700099608A605160086103680133036030BD8B
:100980000269F3E710B54160006191420CD8D21AB8
:1009900083699A4201D3012010BD011D094B1868DB
:1009A000FFF7D9FF0020F7E79A4201D2994206D219
:1009B000011D054B1868FFF7CEFF0020ECE7012072
:1009C000EAE7C046240A0020140A002070B504009B
:1009D0000D001600A36959192B0032002000FFF703
:1009E000D1FF002806D0A3699C4665442000236AF5
:1009F0009847EFE770BD0369416882688A60416883
:100A000051605A68824206D0002202611A68013A97
:100A10001A601868704782685A60F5E770B504007C
:100A20000D001D4B1E681D4B18680430FFF7E3FFD7
:100A3000631C0DD03419194B1B685C60A6421DD98C
:100A4000174B1868154B19680431FFF784FF70BD08
:100A5000002DEFD0134A5168104B18688160186858
:100A60008C68C4601868043060601868043088605E
:100A70001B685A61136801331360E8E70A4B186872
:100A8000064B19680431FFF766FF084B1B68A34249
:100A9000DDD9064B1C60DAE70C320020100A00207A
:100AA000200A0020E4310020180A002060310020D4
:100AB00070B505000E000C4B1B68DB68DC68201D60
:100AC000FFF799FF2823E35C5A0707D401229343D9
:100AD0002732A354236A2000984770BD32002900B2
:100AE0002000FFF773FFF5E7140A002010B5094B4B
:100AF0001B681A68002A06D0DB6818680121494281
:100B0000FFF7D6FFF3E7044A024910680860136054
:100B100010BDC046140A0020240A0020F0B589B098
:100B200005000E0017000593109C002C1DD00F9A95
:100B3000002A1AD0C0220021200007F07CF80F9A6A
:100B40002263BD230222E25400230393029407ABE5
:100B500001930E9A0092059B3A0031002800FFF79E
:100B600091FE2000FFF728FE01E00023079307987D
:100B700009B0F0BD024A1368013313607047C046E4
:100B8000382E0020014B18687047C0460C320020F8
:100B900070B50500FFF7F6FF0400074B1B688342A2
:100BA00005D800232B60044B1C60200070BDFFF7AC
:100BB0009DFF01232B60F6E758310020014B186898
:100BC0007047C046302C002010B504000A4B1B684B
:100BD0001B180A4A1268934204D0074B186804197C
:100BE0001C6010BD02F0ACF8054A136801331360B5
:100BF00002F0B2F8013CF0E70C3200206031002036
:100C000070310020F8B5454B1B68002B7FD1444B59
:100C10001E6801361E60002E0AD0424B1B68B3428C
:100C200013D90020404B1B68002B75D0012073E0C6
:100C30003E4A11683E4B1868106019603D4A1368BF
:100C400001331360FFF7A2FCE7E7002036E0354BE5
:100C5000012252421A60E5E7324B1A60E2E7D96896
:100C6000516041E0196A51600021996211680139AF
:100C70001160DA6A304909688A4201D92E490A604E
:100C80002E499400A418A2008A1852689A609468A9
:100C9000DC6065609560DC6AA2001719BD006D1804
:100CA0005D611719BD002F006D5801357D50DA6A5E
:100CB000234B1B68DB6A9A4200D901201B4B1B683F
:100CC0001B68002BC3D0194B1B68DB68DB685A68B4
:100CD0009642C1D35A699C68D968A1609C684C60EF
:100CE0001D1D5168A942BAD000215961116801390E
:100CF00011609A6A002ABCD0DC69196AA160DC69BB
:100D00004C601900183154688C42ADD1AAE70D4AE5
:100D10001368013313600020F8BDC046382E002050
:100D20000C32002060310020D8320020180A002048
:100D3000200A00206431002040300020280A0020D2
:100D4000100A00207031002010B501F0F9FF434B6C
:100D50001A68013A1A601B68002B7AD1404B1B6855
:100D6000002B07D1002475E0196A516015E0D9689D
:100D7000516021E000233B4A1268002A4AD0394BD7
:100D8000DB68DB689A6AD869196A8160D86948604B
:100D90001900183150688842E6D000219962116824
:100DA000013911605A699868D9688160986848600B
:100DB0001C1D5168A142DAD0002159611168013926
:100DC0001160D96A284A1268914201D9264A1160F5
:100DD00026488A0052189200821852689A609168D8
:100DE000D9604C609460DC6AA2001119890009186E
:100DF00059611119890009580131121992001150D5
:100E00001B4A1268D26AD96A9142B4D3194A0121A5
:100E10001160B0E7002B01D0FFF7B8FB164B1C6840
:100E2000002C0AD1134B1C68002C13D001F07CFF5E
:100E300001240FE0013C002C07D0FFF7E3FE00285F
:100E4000F8D00C4B01221A60F4E70B4B00221A6019
:100E5000E8E7002401F080FF200010BD382E0020BC
:100E6000302C00207431002040300020280A00205F
:100E7000100A0020D83200207031002070B5040024
:100E80000D00002805D001F05BFF656501F064FFEF
:100E900070BD014B1C68F6E7100A002010B5041E57
:100EA00006D001F04DFF646D01F056FF200010BD2B
:100EB000014B1C68F5E7C046100A002010B50C0075
:100EC000044B19681831FFF746FD01212000FFF798
:100ED000A5FD10BD100A002070B503000800110028
:100EE0005A680C4C2568EA61256896682E62256868
:100EF00018357560256818359560226893621A6800
:100F000001321A60002901D001204042FFF786FD1E
:100F100070BDC046100A002010B5C368DC68A36A23
:100F2000E169226A8A60E1695160210018315A68DA
:100F30008A4243D00022A2621A68013A1A60294B01
:100F40001B68002B40D16369A168E2688A60A168D0
:100F50005160201D5A68824233D0002262611A68B3
:100F6000013A1A60E26A204B1B689A4201D91E4B73
:100F70001A601E4993009B189B00CB185B68A36006
:100F80009A68E26050609860E06A83001A189200E4
:100F9000521862611A189200525801321B189B00B5
:100FA0005A50FFF7F3FAE26A114B1B68DB6A9A4268
:100FB00016D9104B01221A60012010BD226A5A6016
:100FC000B8E7E2685A60C8E70B4B5A68E26190687C
:100FD000206241609160A3621A6801321A60E2E700
:100FE0000020EAE7382E002040300020280A0020A8
:100FF000100A0020D832002074310020F8B5040017
:101000000D00002852D0C36B002B51D0016C00267C
:101010000F0C1A0C002F13D190B2002803D1002E10
:1010200014D0002045E0081C89B29BB24B4381B22A
:1010300090B248431B0CC3181B0CF0D00126EEE7FE
:1010400092B2002AFAD13A1C181CEDE701F078FEA2
:101050002268E36B206C010059435118A160002104
:10106000A1636260013B4343D318E360FF23442242
:10107000A3540132A354002D0FD12369002B03D1B7
:1010800001F06AFE012014E020001030FFF744FF59
:101090000028F5D001F048FEF2E720001030FFF7FD
:1010A0004CFB20002430FFF748FBE9E7002000E07C
:1010B0000020F8BD70B51D00049C002909D12460F2
:1010C000E063216401212000FFF798FF4C23E554E1
:1010D00070BD2260F4E770B582B01C0006AB1B78CF
:1010E000002814D0002C14D0002A01D0002912D0DE
:1010F000002A08D04625012666550094FFF7DAFF3E
:10110000200002B070BD0029F4D01000F9E70020E3
:10111000F7E72000F5E70020F3E7000030B583B0E3
:1011200001F00EFE0F4B1B68002B03D001F014FEE4
:1011300003B030BD0C4D2800FFF7FFFA0B4C200028
:10114000FFF7FBFA0A4B1D600A4B1C60002300935B
:10115000094B0A4A10211420FFF7BDFF014B18600C
:10116000E4E7C04610320020443000205830002010
:10117000140A0020240A002094310020F02A0020C4
:10118000F8B504000E0001F0F1FD0500A36BE26B61
:101190009A4221D94522A75C7FB20133A3637B1C0D
:1011A00010D1636A002B01D1012416E02000243005
:1011B000FFF7B2FE002815D0002E15D001233360B2
:1011C00001240AE0FFF7FAFC87420FD201377FB211
:1011D0004523E754012400E00024280001F0CAFD63
:1011E0002000F8BD0124F8E70124F6E70124F4E724
:1011F000F0B583B004000091019201F0B7FD050045
:10120000A66B002E06D10024280001F0B3FD2000BB
:1012100003B0F0BD4423E75C7FB200992000FFF7E4
:101220007AFA731EA3637B1C11D12369002B01D1B1
:101230000124E9E720001030FFF76EFE002810D0EF
:10124000019A002A0FD0012313600124DCE7FFF785
:10125000B5FC874209D27B1C5BB24422A354012413
:10126000D2E70124D0E70124CEE70124CCE7000037
:10127000034B1B680360034B1B6843607047C04609
:10128000643100200C320020F8B504000D0001F09C
:1012900057FD124B19686368C81A2A68561C18D083
:1012A0000F4E36682768B74205D08B4203D800231B
:1012B0002B6001240EE0824203D800232B6001241E
:1012C00008E05B1A9B182B602000FFF7D1FF002479
:1012D00000E0002401F040FD2000F8BD0C320020A9
:1012E00064310020014B01221A607047D83200207F
:1012F00070B5050001F024FD4523EC5C64B203E009
:10130000FFF7F0FF013C64B2002C09DD6B6A002B93
:1013100006D028002430FFF7FFFD0028F2D0EFE7C9
:101320004523FF22EA5401F017FD01F009FD442393
:10133000EC5C64B203E0FFF7D5FF013C64B2002C23
:1013400009DD2B69002B06D028001030FFF7E4FDE3
:101350000028F2D0EFE74423FF22EA5401F0FCFC1E
:1013600070BDF0B585B004000D000192002737E094
:1013700029002000FFF7CFF9013EA6632369002B67
:1013800004D101F0E9FC012005B0F0BD20001030CF
:10139000FFF7C2FD0028F4D001F0C6FCF1E701F030
:1013A000DBFC0020F0E702A8FFF762FF013721E035
:1013B00044230022E25428E045230022E25429E09D
:1013C0002000FFF795FFFFF7BFFC09E02000FFF7C3
:1013D0008FFFFFF7B9FC2000FFF78FF9002835D108
:1013E00001F0AEFCA66B002EC2D1019B002BD6D023
:1013F000002FD8D001F0B0FCFFF7BCFB01F0A0FC3F
:101400004423E35C5BB20133D2D04523E35C5BB29F
:101410000133D1D001F0A0FC01A902A8FFF734FFED
:101420000028D3D12000FFF768F90028C8D0200099
:1014300024300199FFF742FD2000FFF759FFFFF725
:1014400083FC0028CCD101F06FFCC9E700209BE7AA
:1014500070B504000D00160001F072FC4423E35C3B
:101460005BB201330DD04523E35C5BB201330CD09A
:1014700001F072FCA36B002B0BD02000FFF738FFAC
:1014800070BD44230022E254EDE745230022E254DC
:10149000EEE72000243032002900FFF71DFDECE7C5
:1014A00070B582B004000D00FFF764FB01A8FFF7E0
:1014B0006FFB0600019B002B23D1002D01D1A04220
:1014C00013D2002D05D0104A12681268002A13D1D9
:1014D0000125A11B0D4B18682A00FFF7B9FFFFF784
:1014E00033FC00280AD002B070BDFFF72DFC31009C
:1014F0002000FFF7DDFAF6E71D00EAE701F014FC33
:10150000F1E7FFF721FCEEE7240A0020103200206B
:101510000E4B1B68002B10D10D4B1B68002B0ED1FE
:101520000C4B1B68002B0CD10B4B1A680B4B1B6828
:10153000013B9A4207D0012000E0002070470020C4
:10154000FCE70020FAE70220F8E7C04674310020EB
:10155000D832002070310020E4310020302C0020EF
:10156000014B18687047C046100A0020064B1B68E4
:10157000002B07D0054B1B68002B01D0002002E098
:10158000022000E00120704788310020382E002022
:1015900070B5041E4CD0C26A274B1B68DB6A9A42A6
:1015A0003ED28369002B05DB234B1B68D96A0A23D3
:1015B0005B1A836193009B189B00204A9B18626909
:1015C0009A4205D01C4B1B68DB6AE362012030E0C5
:1015D000251D2800FFF70FFA174B1B68DA6AE26235
:1015E000174B1B689A4201D9154B1A601349930097
:1015F0009B189B00CB185B68A3609A68E2605560FB
:101600009D60E06A83001A189200521862611A18ED
:101610009200525801321B189B005A50012008E0DA
:10162000C26C054B1B68DB6A9A4203D3002000E0C2
:10163000002070BD0120FCE7100A0020280A0020CD
:101640004030002070B5041E33D0036D013B0365AC
:10165000C26AC16C8A422ED0002B01D0002070BD1E
:10166000051D2800FFF7C7F9E26CE2620A239B1A06
:10167000A361124B1B689A4201D9104B1A601049A2
:1016800093009B189B00CB185B68A3609A68E2608C
:1016900055609D60E06A83001A18920052186261DA
:1016A0001A189200525801321B189B005A50012000
:1016B000D5E70020D3E70020D1E7C0464030002026
:1016C000280A002070B504001500866B026C002A01
:1016D0000CD10368002B03D000200136A66370BD37
:1016E0008068FFF7AFFF0023A360F6E7002D0ED15F
:1016F000406806F097FA6368226C9446634463601E
:10170000A26893421BD3236863602800E5E7C068A2
:1017100006F088FA236C5A42E168CB1AE36021682C
:101720008B4203D2A3689C466244E260022D01D042
:101730000020D2E7002E04D0013E0020CDE7280093
:10174000CBE70020C9E7F0B585B004000D00019299
:101750001E00002730E0320029002000FFF7B2FF12
:10176000636A002B06D100280DD101F0F5FA0120A3
:1017700005B0F0BD20002430FFF7CEFB0028F4D0E8
:1017800001F0D2FAF1E701F0CFFAEEE701F0E4FA66
:101790000020EDE702A8FFF76BFD013719E04423B5
:1017A0000022E25420E045230022E25421E0200000
:1017B000FFF79EFDFFF7C8FA01F0C2FAA36BE26BD8
:1017C0009342C8D3022EC6D0019B002BDED0002F3F
:1017D000E0D001F0C1FAFFF7CDF901F0B1FA4423EE
:1017E000E25C52B2531CDAD04523E25C52B2531C85
:1017F000D9D001F0B1FA01A902A8FFF745FD0028F0
:1018000013D12000FEF76AFF0028D0D0200010304E
:101810000199FFF753FB2000FFF76AFDFFF794FAE9
:101820000028C9D101F080FAC6E72000FFF760FD6B
:10183000FFF78AFA00209BE770B5041E09D0C36C3D
:101840008B4200D20B00E26A9A4202D0216D01293C
:1018500000D070BDE362A169002902DB0A21CB1A26
:10186000A36193009A189200144BD21863699342B3
:10187000EFD1251D2800FFF7BEF8E26A104B1B6868
:101880009A4201D90E4B1A600C4993009B189B0099
:10189000CB185B68A3609A68E26055609D60E06A5F
:1018A00083001A189200521862611A189200525856
:1018B00001321B189B005A50CBE7C046280A002073
:1018C00040300020054B1B68002B04D0034B1A68E6
:1018D000136D01331365014B18687047100A00201F
:1018E00070B584B0040001910025002643E0013B5F
:1018F000A3632368002B07D02369002B08D101F0D4
:101900002BFA012004B070BDFFF7DCFFA060F3E705
:1019100020001030FFF700FB0028F0D001F004FA9F
:10192000EDE701F019FA0020ECE702A8FFF7A0FCB0
:1019300001362AE044230022E25431E0452300220C
:10194000E25432E001F0FCF9A068FFF721FE050047
:1019500001F002FA39E02000FFF7CAFCFFF7F4F9C2
:1019600009E02000FFF7C4FCFFF7EEF92000FEF7C6
:10197000C4FE002838D101F0E3F9A36B002BB6D1E7
:10198000019B002BCDD0002ECFD001F0E5F9FFF761
:10199000F1F801F0D5F94423E35C5BB20133C9D01F
:1019A0004523E35C5BB20133C8D001F0D5F901A94E
:1019B00002A8FFF769FC0028D3D12000FEF79DFEA6
:1019C0000028C8D02368002BBCD020002430019907
:1019D000FFF774FA2000FFF78BFCFFF7B5F900283A
:1019E000C9D101F0A1F9C6E7002D01D1002089E796
:1019F00001F0A6F92000FEF79DFD0100A068FFF7A9
:101A00001BFF01F0A9F9F1E770B50500FFF7B2F887
:101A10002B4B1B68002B13D0002D07D007222A4028
:101A200010239B1ADA43AA420DD3ED18002D3FDB99
:101A300040D0244B1B68AB423ED3234A146806E0D7
:101A4000FEF7CCFDE8E70025F0E722001C00636804
:101A5000AB4202D22368002BF7D1194B1B68A3427B
:101A60002CD0166808362368136063685B1B102B44
:101A700018D8626813490B689B1A0B6013490968F0
:101A80008B4201D211490B6080231B061343636014
:101A9000002323600E4A136801331360FFF754F9E3
:101AA000300070BD601943606560FEF7C3FDE0E77C
:101AB0000026F3E70026F1E70026EFE70026EDE732
:101AC0001C0A0020943000208C3100205C31002062
:101AD00068310020F0B583B004000D001700002825
:101AE00032D000200A0C230C002A28D19AB2002AF6
:101AF00017D100282CD1280060430300513329D886
:101B00005030FFF781FF061E1FD0020050324623DF
:101B10000021C15400903B0029002000FFF7CAFAC1
:101B200013E01A1C2E1CABB2A1B25943B6B293B249
:101B30007343090C5B181B0CDBD00120D9E79BB267
:101B4000002BFAD1261CEEE70026300003B0F0BDD2
:101B50000026FAE70026F8E770B5002807D0050050
:101B6000083D6B68002B02DA2A68002A00D070BD9D
:101B70005B005B086B60FEF7FDFF6B68074A11684E
:101B80008C46634413602800FEF754FD044A136832
:101B900001331360FFF7D8F8E9E7C046943000201E
:101BA0006C31002010B54623C35C002B00D010BD63
:101BB000FFF7D2FFFBE7F0B587B004900591160060
:101BC0001F009000FFF720FF041E23D0C020FFF766
:101BD0001BFF051E1AD0C022002106F02CF82C6332
:101BE000002D1BD00023BD22AB54039302950D9B07
:101BF00001930C9B00933B00320005990498FEF77B
:101C000041FE2800FEF7D8FD012005E02000FFF787
:101C1000A3FFE5E70120404207B0F0BD01204042AC
:101C2000FAE7000010B504000B4B1868583006F0B6
:101C300017F8BD23E35C002B02D0012B07D010BDA9
:101C4000206BFFF789FF2000FFF786FFF7E72000F2
:101C5000FFF782FFF3E7C046100A002070B50400CA
:101C600001F06EF8002C2AD0251D2800FEF7C3FED7
:101C7000A36A002B03D020001830FEF7BCFE174AE1
:101C8000136801331360164B1B68A3421AD0154A20
:101C90001368013B1360FEF779FC01F05DF8104B0F
:101CA0001B68A34202D02000FFF7BCFF0E4B1B684D
:101CB000002B03D00A4B1B68A3420CD070BD084B0D
:101CC0001C68D1E729000948FEF73AFE084A136864
:101CD00001331360E1E701F027F8EFE73C2E002025
:101CE000100A0020302C002088310020F83100201C
:101CF000342C002010B50D4B1B68002B15D001F0C3
:101D00001FF80B4BDB68DC68201DFEF774FE094AE8
:101D10001368013B1360054A1368013B136001F02F
:101D20001BF82000FFF77EFFE5E710BD342C0020F4
:101D3000F8310020302C002030B587B006E0039B3E
:101D4000059904989847029B002B0BDA334B1868CF
:101D5000002202A9FFF705FB00285DD0029B002BA3
:101D6000F1DAECE7049C6369002B02D0201DFEF73A
:101D700042FE01A8FEF70CFF0500029B092BE5D8E7
:101D80009B00274AD3589F462822A35C01210B437E
:101D9000A354039BA269944663441900039B020069
:101DA0002000FEF7EFFD0028D0D02823E35C5A077F
:101DB00007D4012293432732A354236A2000984773
:101DC000C4E7039BA2699446634419002A002000DB
:101DD000FEF7FCFDF1E72822A35C01218B43A3540D
:101DE000B4E72822A35C01210B43A3540399A1610A
:101DF0000918030002002000FEF7C4FDA6E728230F
:101E0000E35C9A0704D5012293432732A3549DE74C
:101E10002000FFF7A1FE99E707B030BD1032002087
:101E2000387E000000B583B001A8FEF7C5FB01991C
:101E3000FFF736FBFFF780FFF6E770B50500FEF70A
:101E400099FE02E02000FFF787FEEB6A002B15D019
:101E50001A68EA621C696268002A01D02168116070
:101E60002268002A01D0616851609A681268002ACD
:101E7000E8D0D8680028E5D09047E3E7FEF764FF94
:101E800070BDFEE770B5284B1B68002B03D0274BB5
:101E900001221A6043E0254B00221A60244B1B6884
:101EA0001B6B244A1968914202D15968914208D0AB
:101EB0001F4B186819683431FFF7E3FF1E4B1A688F
:101EC00008E099689142F3D1DA681A4B9A42EFD14F
:101ED000F4E7013A93009B189900184BCB58002B5C
:101EE000F7D0164D91008B189800281843685C684D
:101EF000446089188B00190008335B199C420FD08D
:101F000093009B1899000D4B5B185B68D968084BD0
:101F1000196009490A601B685833094A136070BD8B
:101F200060686B185860EBE7382E0020D83200202C
:101F3000100A0020A5A5A5A540300020280A0020F1
:101F4000A806002070B5040000F0FAFE002C1CD09A
:101F5000251D2800FEF74FFDA36A002B03D02000AB
:101F60001830FEF748FD29001D48FEF7E9FC002364
:101F7000002B0DDD00F0F0FE1A4B1B68002B13D177
:101F8000194B1B68A34216D070BD174B1C68DFE7C6
:101F9000E218BC321278012A01D00133E8E7E218D6
:101FA000BC3200211170F8E700F0CAFEFEF7EEFA2D
:101FB00000F0D2FEE4E70B4B1B68002B09D1084B65
:101FC0001A680A4B1B689A4206D1074B00221A6016
:101FD000DAE700F0A9FED7E7FFF754FFD4E7C046E1
:101FE000E431002088310020100A0020302C00202D
:101FF0004060006070470368181A43425841C0B2FD
:102000007047436802681A60036842685A60704704
:1020100030B583B003000D0003220092002200219E
:102020000120FFF758F8041E01D0002D02D1200036
:1020300003B030BD002300220021FFF784FBF6E748
:1020400070470000034B0360034B0B608023136059
:102050007047C04698300020382C0020034B0360A6
:10206000034B0B60802313607047C046183200207A
:10207000402E002000B589B0FFF750F8104B1B68C8
:10208000002B19D000230593069307AA06A905A8DB
:10209000FFF7E4FF059B0293069B01930523009342
:1020A0000023079A07490848FEF738FD074B1860D8
:1020B000002802D0012000E0002009B000BDC04689
:1020C00010320020607E0000251E00001432002027
:1020D00010B588B000240594069407AA06A905A89F
:1020E000FFF7B0FF059B0293069B0193009400232A
:1020F000079A11491148FEF711FD002807D0FFF794
:10210000B9FF012805D00E4B1B6808B010BD002098
:10211000F7E772B60B4B1B6858330B4A13600B4B37
:10212000012252421A600A4B02321A60094B002205
:102130001A6000F07FFEE6E7687E0000012A0000DA
:1021400020050020100A0020A80600206031002091
:10215000883100200C3200200023036043600122FC
:1021600052428260C3607047F8B505000E00134B01
:102170001C6801277F420CE02369E069002B03D132
:102180002375A36998470EE0E268D318E360F8E787
:102190002468002C10D0237D002BF9D0002D02D014
:1021A000E368B342E8D0237D002BF1D0E3689B1BAA
:1021B0009F42EDD91F00EBE73800F8BD1C09002055
:1021C000024B4360002303607047C046006CDC0292
:1021D0000120704710B505F0DFFB10BD70B504009D
:1021E000054B01221A60054D2B682020FFF7F2FFF6
:1021F0002C60034B1C6070BD48210240202102402E
:102200002409002010B50400006805F081FB206857
:1022100005F00AFB10BD000010B5084B5B68DB053C
:10222000DC0D002B06D0EFF31084012383F310881C
:10223000200010BD00F084FDFAE7C04600ED00E08C
:1022400010B505F065FB10BD10B505F04DFB10BDD8
:10225000EFF3108043425841C0B27047034B5B68B4
:10226000DB0501D1002070470120FCE700ED00E014
:1022700070B505000C00FFF7F1FF002819D1FFF73A
:10228000A7FF0200FA239B0098420AD000232000F7
:102290000021FDF7C7FFFA2292000023FDF7A2FFFD
:1022A000040021002800FFF71BFB012807D10020B4
:1022B00070BD002200212800FEF79AFFF5E70120FB
:1022C0004042F5E710B582B00400FFF7C7FF0028D1
:1022D00007D10023002200212000FFF734FA02B0CA
:1022E00010BD01A92000FEF74BFFF8E7002805D03C
:1022F00000230360013B4360023303727047000018
:10230000F0B585B004000E0017001D0000281FD096
:10231000002B20D0FF236A681340FF2B20D0154BE1
:102320001B68B34202D06B68C02B20D0B300124AA6
:102330009C5067602B68A36026601049300005F050
:102340005BFA2979300005F079FA2B7A002B0AD153
:10235000200005B0F0BD01A8FFF7C8FF01ADD9E727
:102360007F3B6B60DBE7300005F0BEFAF0E700244E
:10237000EEE7C0460805002030090020B506000041
:1023800010B505F0DBFA10BD10B5054B5B68DB0539
:1023900002D080F3108810BD00F0DEFCFBE7C046E1
:1023A00000ED00E070B50400FFF736FF25682B68EC
:1023B00023602B685C60FFF7E7FF280070BD70B5F5
:1023C00004000D00FFF728FF2C6063686B606368F2
:1023D0001D606560FFF7D8FF70BD0000F0B5C64610
:1023E00000B584B004000E001500002844D0FFF7AB
:1023F00013FF8046264B1B78002B21D1002705E0D8
:10240000FB002448C018FFF7F3FD0137032FF7DD69
:102410000023214A1360214A13600127204A1760D4
:10242000204A137001A8FFF761FFC02302931E4BDF
:10243000196801AB1D4A1E48FFF762FF144B1F705D
:102440004046FFF7A1FF002D1BD0AF687B1C1AD0C0
:10245000032F1AD82000FFF7CBFD23000C3307CD44
:1024600007C32A681A606761E6612262002363621B
:10247000FF00084BDF19A760200004B080BCB846FD
:10248000F0BD0C4DE1E70327E4E70024F4E7C04684
:10249000E0090020E8090020080A0020C009002007
:1024A000E40900200C0A0020080500207D2500001A
:1024B000C4090020747E000070B50400FFF7ACFE74
:1024C00005002000FFF79DFDA068FFF794FD0028A0
:1024D00006D0636901229A4003490B6893430B605D
:1024E0002800FFF751FF70BD080A0020F8B507006B
:1024F00013E0022363621C4B226A1A60A369236201
:102500003800FFF741FF2169E068E3699847FFF76A
:1025100083FE0700636A022B1FD0144B1B68002B3D
:102520001ED0134B1B68012B1AD1104B1868FEF7F5
:10253000ABF80600C3000F4DED182800FFF732FF7F
:1025400004002800FFF757FD0028D2D00122B24036
:1025500006490B6893430B60CBE700236362DCE71B
:10256000054B00221A70F8BDC0090020080A00209F
:10257000E4090020E80900200C0A002010B5FFF74C
:102580004BFE0400FFF7B2FF2000FFF7FDFE10BD79
:1025900070B50400FFF740FE0500636A012B0BD104
:1025A000114B1B78002B03D1104B1B68012B13D050
:1025B0002800FFF7E9FE70BD012666626369DB0053
:1025C0000B48C0182100FFF7FAFE63699E40094BD3
:1025D0001A6816431E60E3E7074B1868FFF7D0FE42
:1025E000014B01221A70E3E70C0A0020E4090020E5
:1025F000E8090020080A00200805002070B5FFF750
:102600000BFE1A4B1E681A4B01221A70194B00223E
:102610001A70194B1D68761BFFF7B6FE0024B442F2
:1026200007D82D19361B29000120FFF79DFD040056
:10263000F5E7FFF7F1FD06000E4B1B78002B0FD1DD
:102640000E4B9C4200D91C002819FFF7C7FD084B10
:1026500000221A700A4B1D603000FFF795FE70BD16
:1026600029000020FFF780FD0400E9E70421024073
:10267000180900202809002024090020FFFFBFFFBF
:102680002C09002010B5034B01221A60FFF7B6FF9A
:1026900010BDC0465420024070B50400FFF7BCFDD9
:1026A0000500164B1A78002A16D1154B1E68154BDB
:1026B0001968711A144800681B68C31A99420BD82C
:1026C000A3689A19E26001222275801B834210D20E
:1026D000E068FFF783FD0CE0094B1B68A1688C469E
:1026E0006344E36001232375002A02D0074B0122D3
:1026F0001A702800FFF748FE70BDC0461809002078
:10270000042102402C09002024090020280900206F
:1027100070B50400FFF780FD050000232375134BFF
:102720001B78002B06D0124B01221A702800FFF7ED
:102730002BFE70BDE2680F4B1B689A42F6D10E4A21
:1027400014680E490A68A21A09685B1A9A42EDD207
:1027500021000020FFF708FD094B984200D918001E
:102760000019FFF73BFD054B1C60DFE7180900204F
:102770002809002024090020042102402C090020FF
:10278000FFFFBFFF70B504000E001500FFF744FD0A
:10279000A661E561FFF7F8FD70BD70B504000E009D
:1027A0001500FFF739FD6660A560FFF7EDFD70BD10
:1027B000F8B51A4B1B78002B00D0F8BD184B1D68DC
:1027C0000124184B1C600026174B1E60174B1C6021
:1027D000002217491748FFF7E0FF1B21164804F0B5
:1027E000E5FF164B1C60164801F06CFB154B1D6095
:1027F000154B9C466544154F3D60154B1E70154B9F
:102800001E70064B1C70FFF707FD04003868FFF7C9
:10281000E5FC2000FFF7B8FDCFE7C046190900200E
:1028200004210240542002400C210240602002405A
:10283000852600009C3300204404000058200240FC
:102840001C0900202C090020FFFFBFFF24090020E5
:10285000180900202809002070B504001D00002878
:1028600012D0002B12D06B682361A260A161AB680B
:10287000E36100232375FFF79BFF2100064801F069
:102880002BFB2B78002B03D1200070BD034DEAE712
:102890002000FFF701FFF7E71C0900200C090020CA
:1028A00010B5FEF767F910BD10B5FEF74DFA10BD73
:1028B000F8B5CE46474680B5FFF7AEFC0500FEF7FB
:1028C00027FE00282BD002F0EBFB022303405E42E0
:1028D0005E41F6B20424044060424441E4B2002B5D
:1028E00021D0002E24D0384B1968384B1E6800299F
:1028F00041D1374B9846374B19684B015B1A9B0007
:102900005B18DB0047469F4200D91F00FA235B009B
:102910009F4235D8002C0DD002F098FC0AE0280028
:10292000FFF732FD09E002F07BFD0028D9D1040059
:10293000002C45D12800FFF727FDC0BCB946B046A2
:10294000F8BD0133DBB2042BD5D801229A401142E5
:10295000F7D0214A9A1892001268204FFF5C30008D
:10296000B840121A1A48824200D90022FA40904513
:10297000E7D99046E5E70023012252429046E2E77C
:10298000FFF78EFF164B98461B689946F01902F028
:10299000B7FC144C4B4623600C4B1868801B01F0AD
:1029A000C1FAFEF711F90023424613600E4A13687C
:1029B00005210B4313600D4B2360FFF775FFB9E74B
:1029C00002F044FCB6E7C046442002400421024025
:1029D000FFFFBFFFBC09002053880010847E000069
:1029E00018E000E014E000E010E000E07FBB000031
:1029F00010B5024B186002F059FB10BDBC09002055
:102A000010B501E0FEF7A0F9FFF774F9FDF79CFDA2
:102A10000128F9D9FEF7AEF8FDF796FD0128F1D9A6
:102A2000FFF7E6FFEEE7000010B582B005F05EF8B4
:102A300072B6BFF34F8FBFF36F8F194B01AA93424A
:102A400002D2184A04C3F9E7174B184A934202D23C
:102A5000002204C3F9E7164A164B9A4207D0154BD9
:102A6000134901E004C904C3134A9342FAD3134C37
:102A7000134BE41AA4100023019306E09B00104AB4
:102A80009B589847019B01330193019BA342F5D3C7
:102A90000C4A0D4B1A6000F0ABFD02B010BDC046F1
:102AA000283B0020A5A5A5A50C070020283B002059
:102AB000DC800000A00400200C0700202C7D00001A
:102AC0002C7D00000000000008ED00E0704710B50C
:102AD000002803D008380068FFF73EF810BD10B595
:102AE0000800FFF7F4FF10BD10B5044B020013CB34
:102AF00013C203CB03C2002010BDC0460C0500204A
:102B0000012902D80161002070471620FCE70B68FC
:102B10005A1E082A02D80360002070471620FCE7DE
:102B20008160002070470000F0B5C64600B582B055
:102B300007000D0090461E00002943D03420FEF708
:102B400063FF041E51D02B695A1E93410374434600
:102B5000436186610023C3608360C36103622A68A6
:102B6000426083620363C3622B69002B07D1032297
:102B700000210120FEF7AEFFA060002824D0FEF760
:102B8000F5FC0600012824D12A892B6800939208BD
:102B90000194230016491748FFF70DF801281BD0B0
:102BA000A068002801D0FEF7FDFF2000FEF7D4FF4B
:102BB0000C2500243C60012E14D1280002B080BCFA
:102BC000B846F0BD0C4DB9E72000FEF7C5FF0C2557
:102BD000F3E7FDF7CFFFD7E721002068FEF74EF9B6
:102BE0000025E7E7FEF7B0F8E7E70C25E5E7C04684
:102BF000707E0000712C00000C05002010B5FEF75F
:102C0000AFFCFEF74BF910BD10B503000268006978
:102C10009062002902D098685B68984710BD30B573
:102C200083B00500FFF7EAFF0400456201A9012017
:102C300000F025F8A06A002803D00121FFF7E4FF87
:102C4000F8E72000FFF7F9F8237C002B09D1A068F2
:102C500000220021FEF777FD0020FFF773F903B093
:102C600030BD2000FEF778FF0020FEF7F7FFF6E703
:102C700010B5436980699847FFF7D1FF10BD70B563
:102C800004000D00FFF7BAFF012C0DD8C3692B60BB
:102C9000C461002C0AD1006A002808D001204042FB
:102CA000FFF7BDFF200002E0162000E0002070BD0D
:102CB00082B00023019372B6019B002BFCD002B0BE
:102CC000704700000000000000000000000000004D
:102CD0000B4A13681868203080F30988022080F3BB
:102CE0001488BFF36F8F3FBCAE4608BC04BC62B60D
:102CF0001847C046C046C046C046C046C046C0464B
:102D0000100A002010B5031F802464041C60043BDB
:102D10001960043B02491960143B1A60403810BD29
:102D2000B12C000070470000044B802252051A604D
:102D3000BFF34F8FBFF36F8F7047C04604ED00E0C5
:102D400072B6044A136801331360BFF34F8FBFF3A9
:102D50006F8F704724050020034A1368013B1360FE
:102D6000002B00D162B6704724050020EFF31080DD
:102D700072B6704780F310887047000000000000B2
:102D8000EFF309800E4B1A6820381060F0C04446FB
:102D90004D4656465F46F0C008B572B6FFF772F86A
:102DA00062B60CBC116808681030F0C8A046A9468D
:102DB000B246BB4680F309882038F0C81847C046A1
:102DC000100A002010B5FFF7D1FF0400FDF71AFF2D
:102DD000002803D0034B802252051A602000FFF721
:102DE000C9FF10BD04ED00E00A4B0B4A1A600B4B03
:102DF0005E22FF321A600A4BFF3A1A60094B00222A
:102E00001A6009490A60094A0949116007221A60D3
:102E10007047C046E032002080BB0000E432002052
:102E2000DC32002010E000E018E000E014E000E0F8
:102E30007FBB000010B50C4B1968FF2212040A4337
:102E40001A601968FF2212060A431A60FFF7CCFFC6
:102E5000064B00221A60FFF73BFFFFF713F8FFF75E
:102E600027FF002010BDC04620ED00E02405002013
:102E700010B58AB001A803F0F5FA01236A46137170
:102E8000002353710F4B0293E1235B0207930E4B18
:102E90001868002801D003F049FF01A9002003F0C1
:102EA00093FF094C206003F033FB0021132001F055
:102EB00007FA2368002B02D000200AB010BD0520BD
:102EC0004042FAE7CD2E0000F032002010B5080095
:102ED00011001A00029B00F061FD10BD10B588B012
:102EE000684602F0FFFA0D4C200002F0FBFA0C4B92
:102EF0002361082363610023237323702376210059
:102F0000002002F0CFFA074B1860002802D0002002
:102F100008B010BD05204042FAE7C046703A0020D4
:102F200040420F00EC320020014B18610020704736
:102F3000C83A0020014B187600207047C83A00209C
:102F4000402803D8034B18600020704716204042E9
:102F5000FBE7C046B03A0020054B1B68984203D2FD
:102F6000044B19540020704716204042FBE7C0462E
:102F7000B03A002000390020044B1B68984202D26E
:102F8000034B185C704716204042FBE7B03A002024
:102F90006C390020014B18607047C046403A002051
:102FA00010B52E4B1C682E4B08225A6100221A7352
:102FB0001A700121494259609A60DA61294B1868F8
:102FC000002801D002F044FA2549002002F06AFAF4
:102FD000244B186000283ED0234B244A9A60244A90
:102FE0005A60244A12681A60002C18D0012102206D
:102FF00001F066F91B4B18681B4902F07FFA0028A4
:1030000012D0002C22D00021022001F059F9154BDA
:10301000186802F01DFAFFF761FF002010BD0021C3
:10302000022001F04DF9E5E7002C0AD00021023022
:1030300001F046F90B4B186802F00AFA05204042ED
:10304000ECE70121022001F03BF9F3E70121022026
:1030500001F036F9DBE705204042DFE7403A002087
:10306000C83A0020EC320020B03900206C39002032
:1030700000390020B03A002010B5064C200003F0C3
:10308000F1F996239B01A361002323706370002054
:1030900010BDC0464C3A0020014B98617047C046B5
:1030A0004C3A0020014B98777047C0464C3A0020BC
:1030B000014B58777047C0464C3A00201F2803DC6C
:1030C000034B19540020704716204042FBE7C046CE
:1030D000003A00201F2802DC024B185C70471620C3
:1030E0004042FBE74C390020202803D8034B1860EE
:1030F0000020704716204042FBE7C046FC39002004
:10310000202803D8034B1860002070471620404247
:10311000FBE7C046C839002002004001801A800049
:103120008018C000014B1860002070474039002013
:10313000014B18687047C04648390020014B1860A1
:103140007047C046F432002010B5114C206803F0DF
:10315000EDFD1049002003F037FE2060002813D059
:103160000121132001F0ACF80B4B1A68084B1868CA
:1031700000230A4903F084FC0021132001F0A0F889
:10318000FFF776FE002010BD05204042FBE7C04659
:10319000F03200204C3A0020FC390020003A002098
:1031A00030B583B01D4C206803F0C0FD1C490020E1
:1031B00003F00AFE2060002822D003F0A9F90121C3
:1031C000132001F07DF8174B1A68144D2868164B30
:1031D0001B680093154B164903F0B8F90400002151
:1031E000132001F06DF8286803F076F90D340CD047
:1031F000104B00221A60FFF73BFE002003B030BDE9
:10320000FFF736FE05204042F8E70A4B01221A601C
:10321000FFF72EFE3E204042F0E7C046F03200208D
:103220004C3A0020C839002040390020483900209D
:103230004C390020F832002030B583B0204C206893
:1032400003F074FD1F49002003F0BEFD206000283C
:1032500029D003F05DF90121132001F031F81A4B58
:103260001A68174D2868194B1B680093184B1949A9
:1032700003F06CF90400184B1A68002317492868FA
:1032800003F0FEFB0021132001F01AF8286803F078
:1032900023F90D340CD0124B00221A60FFF7E8FD21
:1032A000002003B030BDFFF7E3FD05204042F8E702
:1032B0000B4B01221A60FFF7DBFD3E204042F0E796
:1032C000F03200204C3A0020C8390020403900205C
:1032D000483900204C390020FC390020003A0020F9
:1032E000F832002030B583B0204C206803F01EFD7A
:1032F0001F49002003F068FD2060002829D003F05A
:1033000007F90121132000F0DBFF1A4B1A68174D53
:1033100000231949286803F0B3FB184B1A68286882
:10332000174B1B680093174B174903F00FF9040064
:103330000021132000F0C4FF286803F0CDF80D34FD
:103340000CD0124B00221A60FFF792FD002003B050
:1033500030BDFFF78DFD05204042F8E70B4B012201
:103360001A60FFF785FD3E204042F0E7F032002072
:103370004C3A0020FC390020003A0020C8390020D7
:1033800040390020483900204C390020F832002014
:1033900010B5134B1B68002B1CD0124B588040BA41
:1033A000114B1880114C0222226063600023A3603D
:1033B0000021012000F084FF094B1868210002F071
:1033C0009DF804000121012000F07AFF002C04D0B8
:1033D000002010BD10204042FBE705204042F8E7E6
:1033E000EC320020483A0020AC390020B0390020EF
:1033F00070B5174B1B68002B24D0164C022323609A
:10340000154DA560002363600021002000F058FFE7
:10341000124E0220B36C98470121002000F050FFAB
:10342000B36C022098470A4B1868210002F066F836
:103430002B885BBA9AB22B80002806D008490B80F3
:10344000100070BD10204042FBE705204042F8E725
:10345000EC320020B0390020AC3900204C00000FC5
:10346000483A002010B50E4B1868002801D001F032
:1034700043F90C4C200000F073FF2100002001F004
:103480007DF9074C20600121192000F019FF236805
:10349000002B01D0002010BD05204042FBE7C046B4
:1034A000E8320020EC390020014B586000207047C2
:1034B000CC390020014BD86000207047CC39002067
:1034C000014B188300207047CC390020014B195460
:1034D0007047C046203A0020014B185C7047C04638
:1034E000903A0020002803D1034B00221A72704743
:1034F000014B01221A72FAE7B83A0020014B18601A
:10350000002070472805002010B5184C206801F0F5
:10351000F3F80021192000F0D3FE1549002001F036
:103520002DF92060002812D01249134B8B60134BE9
:103530000B60134B1A6800F019FF00280DDB012106
:10354000002000F0BDFEFFF78DFF002010BD01211F
:1035500000F0B6FE05204042F8E7FFF783FF0121A7
:10356000002000F0ADFE3E204042EFE7E8320020B0
:10357000B83A0020CC390020903A0020203A0020B0
:103580002805002070B504000D000121172000F06F
:1035900097FE064B186800232A00210003F070FAFA
:1035A0000021172000F08CFE002070BDF0320020BA
:1035B00010B5044B186800230122034903F0DCF81E
:1035C00010BDC046F0320020B43A002010B500F023
:1035D00077FD00F0C3FE01F041FFFFF749FCFFF764
:1035E00041FFFFF77BFCFFF747FD00F0E7F9FCE741
:1035F00010B588B0FCF788FF02A8FFF775FA012321
:10360000019301A902A8FFF782FA0400012102A890
:10361000FFF776FA04438021C90002A8FFF780FA79
:10362000044300D0FEE70023064A02A907A8FFF7DB
:103630007BFA002800D0FEE7FEF74AFD002008B024
:1036400010BDC046CD35000010B5002903D1064B92
:103650005B88038010BD0129FCD10088024B588093
:10366000FFF796FEF6E7C046483A002010B500295D
:1036700001D0012900D010BD0088034B5A8850406A
:103680005880FFF785FEF6E7483A002010B50400A1
:10369000002900D010BDFFF7ABFE024B1B88238032
:1036A000F8E7C046483A002010B50400002916D1BA
:1036B000027821231340212B00D010BDFFF798FE84
:1036C0001F4B1B882278D206120FD3401A00012309
:1036D0001A40637801218B4313436370EDE701299E
:1036E000EBD103785A0617D5DB07E6D40378DB065F
:1036F0001B0F01229A401249488890434880637802
:10370000DB07DB0F2278D206120F9340184380B2FA
:103710004880FFF73DFED0E75AB2002ACDDADB073A
:10372000CBD40378DB061B0F012098400300044A2A
:103730005088584080B25080FFF72AFEBDE7C0464F
:10374000483A002070B5040000290AD1174B1A68C6
:1037500007231A40D201438815490B401343438085
:1037600070BD0129FCD100884005400D114B584324
:10377000FFF7DAFB0D4D28606078C006800FFFF779
:10378000D9FB2860A0788006C00FFFF703FC2368F0
:10379000D802000EFFF7D4FB2860A3785B06DFD5C4
:1037A000FFF7FEFB014B1860DAE7C046003300204C
:1037B0007FFCFFFF1027000010B5002901D0012970
:1037C00000D010BD037841781800FFF7C5FB014B0E
:1037D0001860F6E70033002010B50400002900D07F
:1037E00010BD0078FFF7C8FB002804DB034B002264
:1037F0001A606070F4E7014B1860FAE700330020AC
:1038000010B50400002901D0012900D010BD0368C3
:103810001802000AFFF740FCE0784007800FFFF72E
:1038200041FCE078C007C00FFFF742FCEEE710B59F
:103830000400002901D0012900D010BD4078FFF715
:1038400053FC2078FFF75CFC6088FFF765FCF4E729
:1038500010B50400002901D0012900D010BD036873
:103860001803000CFFF76AFC23781A07F6D5032229
:10387000110019401A420CD001290DD0022912D092
:103880000329EBD1FFF72EFDFFF752FC094B98708F
:10389000E4E7FFF759FCE1E7FFF782FCFFF748FC9C
:1038A000044B9870DAE7FFF7C7FCFFF741FC014BC8
:1038B0009870D3E71C3B002010B50400002900D00D
:1038C00010BDFFF735FCA0702078FFF703FC607097
:1038D000F6E710B5002901D0012900D010BD03780A
:1038E00041781800FFF7EAFBF8E710B5040000295B
:1038F00001D0012900D010BD0078C007C00FFFF72C
:10390000F1FD2088C005000EFFF7DAFD2268520A9B
:103910005001801A80008018C000FFF7EFFDEAE731
:1039200010B50400002909D1104B1A6807231A406A
:10393000837807318B431343837010BD0129FCD179
:103940000078FFF7B7FD6078FFF7AEFDA3781B079F
:10395000F3D5FFF7D9FD002803DB044B00221A60E2
:10396000EBE7024B01221A60E7E7C046FC32002079
:1039700010B50400002900D010BD0078FFF7ACFDA1
:103980006070F9E710B5002901D0012900D010BD01
:10399000037841781800FFF799FDF8E770B5060045
:1039A0000D000024AC4205D2315D034800F0B8F9A7
:1039B0000134F7E770BDC046EC05002010B5FFF7F5
:1039C000F7FD0028FBD0024800F0F8F910BDC04612
:1039D000EC05002010B5020000204C1E002906D086
:1039E000137843400249C85C21000132F5E710BD5D
:1039F000A07E000070B504009023C358022B15D0A0
:103A000090230022C2508425435918012018043005
:103A1000103204F007F9635901336351082B06D0C3
:103A20008C22A3580133A350082B04D070BD7C33E3
:103A30000022E250F4E788338A3AE250F6E770B5A4
:103A4000040008009023E358012B18D09023002293
:103A5000E25088256359190161180431103204F0CD
:103A6000E1F863595A1C62518C216358013B635041
:103A7000082A05D0002B02D190330122E25070BDFC
:103A800080320021A150F5E770B50D002F4C2A239C
:103A90002370073B23720378DB00427892001343C4
:103AA0005BB28278520013435BB203228256134307
:103AB00063700379A37083681A0EE2701A0C227186
:103AC0001A0A6271A371601C0621FFF783FFE0717F
:103AD00010220021280004F0AEF823782B70237AFE
:103AE000EB73627812091A4B9A5C6A7061780F2244
:103AF0001140595CA970A1780809185CE870114060
:103B0000595C2971E1780809185C68711140595CA9
:103B1000A97121790809185CE8711140595C297272
:103B200061790809185C68721140595CA972A17921
:103B30000809185CE8721140595C2973E179080999
:103B4000185C68730A409B5CAB7370BD4433002003
:103B50008C7E000010B50B78704A1370CC7B147209
:103B60002A2B00D0D4E0232C00D0D3E04B78402B7C
:103B700000D995E0303BDBB21B01DBB25BB28A7847
:103B8000402A00D991E0303A52B21343DBB2634A83
:103B90005370CA78402A00D98AE0303AD2B2120172
:103BA000D2B252B20C79402C00D986E0303C64B2DB
:103BB00022435A4CA2704A79402A00D980E0303A18
:103BC000D2B21201D2B252B28C79402C7DD8303CA4
:103BD00064B22243514CE270CA79402A78D8303A14
:103BE000D2B21201D2B252B20C7A402C75D8303C0B
:103BF00064B22243494C22714A7A402A70D8303A42
:103C0000D2B21201D2B252B28C7A402C6DD8303C72
:103C100064B22243414C6271CA7A402A68D8303A71
:103C2000D2B21201D2B252B20C7B402C65D8303CD9
:103C300064B22243394CA2714A7B402A60D8303AA0
:103C4000D2B21201D2B252B2897B40295DD830394A
:103C50004CB232492243CA71DB0803704A78920899
:103C600001231A4042704C7862081A408270234047
:103C7000C3708B780371CB781B060A791204134347
:103C80004A79120213438A7913438360CB79037311
:103C9000481C0721FFF79EFE00283DD0002038E099
:103CA000373BDBB21B01DBB268E7373A52B26CE755
:103CB000373AD2B21201D2B273E7373C64B277E737
:103CC000373AD2B21201D2B27DE7373C64B280E714
:103CD000373AD2B21201D2B285E7373C64B288E7F4
:103CE000373AD2B21201D2B28DE7373C64B290E7D4
:103CF000373AD2B21201D2B295E7373C64B298E7B4
:103D0000373AD2B21201D2B29DE737394CB2A0E7AE
:103D1000002010BD0020FCE70120FAE7503300200E
:103D200070B504000D0010220021234803F083FF2A
:103D30009423E5540433E3580F2B0BDCE2189C3238
:103D4000157001339822A350232D04D09823E358F3
:103D5000102B0CD070BD102BF8D098230022E2500D
:103D600020009C301032002103F065FFEEE78C3319
:103D7000E35C2A2B09D098230022E25020009C30DB
:103D80001032002103F057FFE4E78133E35C232B7B
:103D9000F1D125009C3529000748FFF7DBFE0028FC
:103DA000E9D0054B1B7822689A42E4D12900200013
:103DB000FFF720FEDFE7C04604330020F8B505001A
:103DC000102200213C4803F036FF9023EB58012BD2
:103DD0006DD0394C21002800FFF731FE2100374813
:103DE000FFF7B8FE002863D00021B023EB58002B6A
:103DF00037D0AC23EA584B005B189B001C00D3184B
:103E00002E4A12791868904201D00131EDE72B4A11
:103E1000D278002A03D05B68284A92681A60AC23E3
:103E2000EB581B199A68002A3ED02449897800294A
:103E30000DD02248C078002809D158680021904749
:103E4000AC23EB581C1963681B689C460AE00029E8
:103E5000F6D11A49C9780029F2D058680121904753
:103E6000EEE79C46164A154B11001800D0C8D0C189
:103E700000680860012151709B78002B02D013006C
:103E800062469A600C4C10220021200003F0D3FE01
:103E900021000B48FFF7F8FDB423EB58002B08D0A6
:103EA00010210548984703E000239C46DAE70020EC
:103EB000F8BD0020FCE7C046343300201433002056
:103EC0002433002010B50400FEF7A6F90023636038
:103ED0002360FEF759FA10BD70B50C000500FEF71F
:103EE0009BF9002323606B686360002B04D01C6087
:103EF0006C60FEF749FA70BD2C60F9E770B50C00F4
:103F00000500FEF789F90CCC002A06D05360002B7F
:103F100006D01A60FEF738FA70BD6B60002BF8D13E
:103F20002A60F7E7074B020C19000004000C43431A
:103F3000054851435043C018C009DE30400A4018BC
:103F4000400A704712830000986E000010B50428E4
:103F500001D0002010BD0D3001F008F9FF22074B01
:103F600011201A600123064A1360064A1168064AA6
:103F70001160064A136001F031F9EAE72C60024053
:103F80004C600240347E0000086002400460024041
:103F90000F4B10B51A78002A00D010BD012404215F
:103FA0000C4A1C700C48002301F090F8112001F01D
:103FB000DDF8FF22094B11201A60094B1C60094BE8
:103FC0001A68094B1A60094B1C6001F007F9E4E715
:103FD000703300204D3F00005C3300202C60024015
:103FE0004C600240347E00000860024004600240E1
:103FF000FF2807D0044B80005B681B181A689142A9
:1040000000D019607047C0462C7D0000FF2803D007
:10401000024B80009B68C1507047C0462C7D000059
:10402000024B80009B68C0587047C0462C7D000042
:1040300070B50400FF2800D170BD00F037F8094EBC
:10404000A50033682000595900F0CCF873685B195B
:104050001A68002A01D000221A600022B3685A515F
:10406000EAE7C0462C7D0000F8B50D4B1C680D4BEF
:104070001C60002C12D01F2601250B4F2000FCF7DE
:1040800093F82B00301A83409C437B688200D358FE
:10409000002B01D0C0B29847002CEFD1F8BDC0462C
:1040A00054300240643002402C7D0000FF2803D0D1
:1040B00001238340014A13607047C04674300240B8
:1040C000F0B5DE4657464E464546E0B587B0FEF7AA
:1040D000A3F8354B1A78002A5ED101221A70FEF738
:1040E00053F9002001F042F803A8FEF7FFF82F4C27
:1040F0001521E3682E4A04932E4803ABFEF700F91E
:104100002D4B19782D4B1878002398460193814246
:1041100047D807339C46033B0227994612E04D4699
:104120001D4206D001258D40AA46454656463543D8
:10413000A846234DAA4665465244AB43136001315D
:1041400081422CD823688A009B58002BF7DB1F4242
:10415000E5D101258D40019E2E43012501961D408C
:10416000FF2908D0EDB2AA46164D5646AB468B4401
:104170005D462E70DDE707229343134A1360320039
:10418000124B1A604246124B1A6007B0F0BCBB4695
:10419000B246A946A046F0BDFEF7F6F8F5E7019A4B
:1041A000EEE71A00ECE7C046903300202C7D0000BB
:1041B00069400000743300203C7D00003D7D00001C
:1041C0000031004000310240FC3400400035024024
:1041D00044300240024B9C4660440078C0B27047B5
:1041E00000360240F0B500291CDBFF282ED0012448
:1041F00007230E00250004229E43164B8540C3185A
:104200000A409B008F070FD40C4013498C4613497A
:10421000604404700D60002A0ED0114A1560114AE6
:1042200015601E600020F0BD002A09D10E4A1560FD
:104230001E600E4B1D60F5E70B4A15601E60F1E72E
:10424000074A1560074A15601E60F2E701204042E8
:10425000E9E7C046400C0010003102401035024032
:10426000643002406C30024074300240203502401D
:1042700070B504000D00FF2815D00326FDF7CCFF14
:104280000B4BE218920091782B0CB14333400B4357
:104290009370FEF779F80123A3406D0704D5054A12
:1042A0001360054A136070BD044A1360FBE7C04603
:1042B000400C0010643002406C3002407430024008
:1042C000FF2805D0034B9C46012360440B4003703C
:1042D0007047C0460031024070B5002918DBFF2846
:1042E0002BD0174BC41801231D00A40085408E0756
:1042F00010D4144E0B40B44660440370124B1D6042
:104300004B0712D4114B1D600723994311432160C1
:10431000002070BD4B070CD40C4B1D600723994344
:104320000B4B114321601D60F2E70A4B1D600A4BE5
:10433000E9E7084B1D60084BEFE701204042E8E742
:10434000400C001000310240103502407430024031
:1043500020350240643002406C3002407047C04655
:1043600010B51022002103F066FC10BDF0B501234A
:10437000D6464F4646460D00C0B5924606009946C1
:1043800002E02378012B48D17368346898466B6843
:10439000002B02D1EB68002B4AD0FDF73DFF2378BC
:1043A000012B02D1E268002A47D14B462700E56085
:1043B000256130376B61FDF7E7FF00213800FDF71D
:1043C00057FF0130DDD02378002B20D000F0AEFA6B
:1043D00043465868FDF734FF2900300000F0ACFA7E
:1043E000434681465868FDF72FFF4B46002B0BD103
:1043F0002378002B2ED03800FDF764FF4846E0BC40
:10440000BA46B146A846F0BD00F08AFAF3E72000AC
:1044100000218030FDF72CFFD8E751463800FDF72A
:1044200027FF0130CFD103235B4299466B61E5E75B
:104430000B3B6B616B699946E0E7E26852690A32AF
:1044400014D02269D56125616B6100239946FDF77F
:104450009BFFD3E780339846A04451464046FDF782
:1044600007FF013007D06B699946C4E70C3B6B61CD
:104470006B699946EBE7FDF7CFFEE3688146002BB9
:1044800020D0336876689A46FDF7C6FE5346DB684F
:104490000400002B07D0300000F034FA53460A2203
:1044A0009B6852425A612000FDF76EFF4846FDF7B7
:1044B0006BFF012140464942FDF7DAFE03235B42D0
:1044C0006B61D0E7FDF760FFCDE7C04610B500682F
:1044D0008030FDF7F7FE10BDF8B557464E4645460D
:1044E000DE46E0B5012569492F008C464268066822
:1044F0001368040063441D601068654BC1180B68A5
:104500001F401D4231D1634B1B689C46B3689846DF
:104510005B690A3300D170E0D4239B46F35812271D
:104520009A4663461F4226D05346002B3ED0634630
:10453000DB0600D476E0072342465B425361042346
:1045400002200B6003F028F905CC812109018C467B
:10455000002113686344196013684C4AE4309446A0
:10456000012263441A60FEF713F8F0BCBB46B24662
:10457000A946A046F8BD5346002B1CD05C46013B23
:104580003351002B56D0D02173585C1C74504249D3
:104590001B788C46604403603D4B11689C460123A8
:1045A000614402200B6003F0F7F8DEE765461F3335
:1045B0002B400A2BBBD1DC23F558002D57D03649B0
:1045C000013D8C4660440468D8203158F5504D1C9C
:1045D00035500C70F158D33B012905D84B42594155
:1045E000032349420B400133294912688C46624437
:1045F0000220136003F0D0F8B7E7042302200B6019
:1046000003F0CAF805CC812109018C461368E43017
:1046100063441F6013681D4A944663441D60FDF7A0
:10462000B7FFA2E763465B071CD5052342465B4202
:10463000536184E7DC23F458D83B002CB1D08023AD
:104640001B019C4643461B7E60445B002B4303607A
:104650001168013C0E4A631E9C419446E3000333FB
:1046600061449EE7062342465B42536167E70423A9
:1046700002200B6003F090F805CC812109018C46E3
:10468000B3685D61136863441D6065E71C08000042
:1046900004080000048803400808000070B50428DE
:1046A00001D0002070BD12CA81221201944600225E
:1046B0002368012563441A600D4A236894466344C5
:1046C0001D6090235B00C95820684B1E9941C9B2F8
:1046D00003F074F8822210202368120199180A68E6
:1046E00002430A60034A944663441D60D9E7C0460A
:1046F0001C080000040800008122120194460022D8
:1047000070B530C82B681C4963441A602B6859186F
:104710000A60822212019446102163441A688A4377
:104720001A602623FF33E05CFFF782FC92235B00D4
:10473000E05CFFF77DFC288A00F050FD200014307B
:10474000FDF760FD2000E430FDF7B6FE20003030BC
:10475000FDF776FC2378002B08D020002D30FF30A9
:1047600000F0C8FCE0230022E25470BD200080303D
:10477000FDF766FCF1E7C04604080000F0B5C64648
:1047800000B5564B0D001B7884B0834200D8A3E0DF
:10479000002900D194E0524BC000C718C4587E686D
:1047A000FDF73AFDE023E25C002A00D092E001220E
:1047B000E254FDF7E9FD308A00F0D8FCEB68002BED
:1047C00000D17AE018785B782622FF32A354922336
:1047D00090465B00E054F27C4249FFF77DFD434682
:1047E0004049727DE05CFFF777FD2B7868462370C7
:1047F0006B68636090232A7A5B00E2508122120189
:1048000094460022336863441A60374A33689446FA
:10481000012263441A60FDF769FD2000B368334A42
:104820007168019314306B460097FDF769FD684687
:10483000FDF792FC2000F3686A462D49E4300293AC
:104840000097FDF7CBFD200001213030FDF7E0FBA4
:104850002378002B36D08121002209018C46E260AA
:1048600022617E680125336863441A601E4A3368FA
:10487000944663441D6090235B00E15830684B1EF2
:104880009941C9B202F09AFF8222102033681201C6
:1048900099180A6802430A60164A200094462D308F
:1048A00063441D6004213B00134AFF3000F00EFCFE
:1048B000380004B080BCB846F0BDB07C337D83E7DF
:1048C0000E4D68E7200000218030FDF7A1FB0C4B66
:1048D0006360C0E7FDF758FD0027E9E7607D000051
:1048E000587D0000014000221C080000D94400004F
:1048F000014A0000040800009D460000A07F00005F
:10490000CD440000054A10B59446042203680220F5
:1049100063441A6002F040FF10BDC0460408000066
:1049200010B5012000F008FC10BDC04610B50120F4
:1049300000F0EAFB10BDC046F0B5D022C6460368C1
:104940000F684D68406800B58C68996094469F5028
:1049500004329D50CE6804329C5004329E50E43A9A
:104960004A61254C026814192468640605D509209B
:104970004042486180BCB846F0BD81242401A04675
:1049800001244244097E1460002D14D180221201BA
:1049900094460368184A63449446490021431960C9
:1049A00003686344012E20D00B2202201A6002F01B
:1049B000F3FE0020DEE780242401A046644602685E
:1049C000490042441160791C026819510B4BD318FD
:1049D0003A781A60084A0368944603226344022026
:1049E0001A6002F0D9FE0020C4E7032202201A60F8
:1049F00002F0D2FE0020BDE7040800000808000015
:104A000070B504680500A1684E6933000A3317D0F9
:104A10004B69033342D0E06822696368904230D02A
:104A2000E268D269E2604A69504242412800D2B24B
:104A300098472800E168FFF77FFF002835D170BD57
:104A4000002263689847A36801205E6100F074FB50
:104A5000E36822699A420FD0E3680022DB692800EC
:104A6000E360E3685E61E16863689847E3685E61FC
:104A7000E26823699A42EFD10023A360E3602361D7
:104A8000DDE70022E26022614A695042424128008B
:104A9000D2B29847012000F04FFBD0E7002301205D
:104AA000E360236100F048FBC9E72000E430FDF734
:104AB0006FFDC4E7802302001B0270B51A40184244
:104AC00017D0284B284A80211A600123274A8900E1
:104AD0001360274A27481360274A1160002227499C
:104AE0000A600132FF3202600B60254B1A60002021
:104AF00070BDC3051BD5234B1B68002B24DB952001
:104B00002149224E0C684000A5190B6085421BD834
:104B10009D19854218D81B1B9533834214D88023D6
:104B200014489B020360164803600A60DFE7802395
:104B30009B021842DBD0164A11680A290DD00A21BF
:104B400011600F4A1360D2E700220C4B1A60013249
:104B50001A600B4BFF321A60C9E70E4B0E4A012058
:104B60001A60C5E710120040020200001C1200404B
:104B7000C4100040541000401812004000120040C1
:104B8000581000400812004094330020351DE9FF02
:104B9000C01000409C10004080841E80024B1A68A8
:104BA000024B1A607047C0464C2000405420004021
:104BB00070B5F024FDF730FBA0230F4964050A68A7
:104BC0001B0522409A4202D0FDF7DEFB70BD0B4E62
:104BD0000B4B35681D4080231B022B433360094D6E
:104BE000094B1D600B6823409342FBD0064A1368B3
:104BF0005B005B081360E7E7F01000401C11004009
:104C0000FF0FFFFF12000180A010004070B50125CA
:104C10001F4B1B681D4225D11E4C1F4B1F4E23608E
:104C20004220B36C98471E4B062023601D4C1E4B40
:104C30002360B36C984740221C4B1D491A602368BF
:104C40002B4323602368AB4323600B681A42FCD0DC
:104C5000144A184913680B40012113600C4A136869
:104C60000B431360FDF7D8FA0221134A13680B4374
:104C70001360124A53780133DBB25370FDF784FBA3
:104C800080230A4A1B0213600D4A136070BDC046A0
:104C900084100040A81000400D0000804C00000F60
:104CA00011000080A010004000000380541000405C
:104CB00048100040FFFFFE7F583400205C34002085
:104CC00058100040274B10B51A687F231900114077
:104CD000120C13405B00994223D3234B1A68120B2A
:104CE00012073DD5214A13685B005B081360204A18
:104CF00013685B005B08136000231360EFF31482FA
:104D00001C4C226083F314881B4B00201B689847BF
:104D1000236883F31488FFF779FF0122174B1A7079
:104D200010BD114A5B1A1268120B092BD8D9102B2F
:104D3000D8D90C231342D5D0012464420A4A104822
:104D4000136811681B041B0F1B191B0701401B0C68
:104D50000B43012113600B4A13688B431360C1E7B7
:104D60000124EBE7E81000401C110040A0100040B7
:104D7000A8100040983300204C00000FA40600202B
:104D8000FF0FFFFF841000406F4B70B56F4A1C6827
:104D90006F4B14601C6080231B021C426AD10A22E4
:104DA0001500254022420BD10825254223D1694D0B
:104DB0002B68002B03D02000984700282CD170BD11
:104DC000012065490A6882430A60644964480A68A8
:104DD000520052080A6063490A6802401A430A6096
:104DE000614A12681A4278D1FFF710FF5F4B1D60CD
:104DF00008252542DBD0FDF70FFA5D4A13685B00FA
:104E00005B081360802311681B060B431360FDF7DA
:104E1000BBFA564B1D60CAE70023012204212B6018
:104E2000544B1A60544A13680B431360534B1C686D
:104E3000002C0DD01025A3682B4206D00021102095
:104E40002269E3689847002802D12468002CF2D137
:104E5000FDF7E2F94A4A5378013BDBB253705378CD
:104E6000002B04D10221474A13688B431360FDF7DE
:104E70008BFAA4E78023444D9B0213602800FDF7C2
:104E800047FC002228000021FDF77CFC334B3F4A01
:104E90003F4D1A602B68002B31D0984700232B60C0
:104EA0000A231D002540234200D17DE701212A4A23
:104EB00013688B431360294A2A4913685B005B0817
:104EC00013600A68264B1A4080231B0213430B60B1
:104ED000FFF79CFE254B1D608AE7FDF79DF9284AE8
:104EE0005378013BDBB253705378002B04D102217D
:104EF000244A13688B431360FDF746FA74E71F4B8F
:104F00001D68002D0DD00826AB68334206D0002165
:104F100008202A69EB689847002802D12D68002DE7
:104F2000F2D1FDF779F9164A5378013BDBB25370A1
:104F30005378002B04D10221124A13688B4313606B
:104F4000FDF722FAACE7C0464C1000405410004078
:104F50005C1000406434002084100040A010004029
:104F6000FF0FFFFF1C11004044100040581000408C
:104F7000A4100040B01000402C0000401C34002061
:104F80005C34002058340020B83300201100038026
:104F9000FC3300202D4B70B51A78002A53D12C4ACF
:104FA000012451681C700800451EA841294B9268D5
:104FB0001870294B29481960294B13211A600023C6
:104FC000284AFDF79DF982200321C00002F0EEFB84
:104FD000254B264A13201A60FDF736F900232021BD
:104FE000234A2448FDF78CF9234B244A1C60244BA8
:104FF00024491C60244B1C6013681B0B1B031360AB
:105000000A68224B1A4080231B0213430B60FDF7F2
:10501000DFF80100FA204000FBF73AF81C4C0200D0
:1050200000231C492000FDF717FCFFF7EFFD2000CF
:10503000FDF732FB8023184A1B0611680B431360EF
:105040001022164B1A60002070BDC0462434002088
:10505000647D000025340020283400200034002026
:10506000FC330020894D0000581000400A800000E9
:105070009D4B00009C330020582000402811004028
:10508000602000401C11004060200240FF0FFFFF25
:10509000B8330020B14B0000A4100040005800407D
:1050A000014B18687047C04658340020054B10B5B6
:1050B0001B68002B04D0044A1278002A00D09847BD
:1050C00010BDC046283400202534002010B500282B
:1050D0000BD0002A09D00361054B8160C26001003A
:1050E0001800FEF7F9FE002010BD03204042FBE748
:1050F0001C34002010B5034B01001800FEF7FEFE23
:1051000010BDC0461C34002010B50400FDF784F823
:105110000123A340064A11680B431360054A135D3F
:105120000133DBB21355FDF72FF9002010BDC04647
:10513000583400205C34002010B50400FDF76CF8F2
:10514000084A135D013BDBB21355135D002B05D1FB
:105150000122A24004490B6893430B60FDF714F948
:10516000002010BD5C3400205834002070B50400CD
:10517000FDF752F8FF2322001B0205001A401C42D3
:1051800012D1FF2312482340C15C4A1CD2B2C25440
:10519000002904D101229A4013000E4A136028000E
:1051A000FDF7F2F8002070BD80235B009A42F6D133
:1051B0000948013B2340C15C4A1CD2B2C2540029B9
:1051C000EDD101209840002180B202F005FCE6E715
:1051D00038340020140002402C34002070B5040044
:1051E000FDF71AF8FF2322001B0205001A401C429B
:1051F00011D1FF22124922408B5C013BDBB28B5460
:10520000002B03D1012393400E4A13602800FDF7C1
:10521000BBF8002070BD80235B009A42F6D1FF22CC
:10522000094922408B5C013BDBB28B54002BEDD152
:1052300001209040002180B202F0FEFBE6E7C0466C
:1052400038340020200002402C340020024B1B6820
:105250005B0700D430BF70475834002010B50124DC
:10526000194B1A4A1C601A4B1A60FCF7D5FF022131
:10527000184A13680B431360174A53780133DBB2A3
:105280005370FDF781F8FCF7C7FF144B1A688023B1
:1052900011001B0219401A4212D1114B114A1A6017
:1052A000114B023A1C60114B1C60114B1A60802399
:1052B000104A5B00116010490B6014600F4A1360C4
:1052C000FDF762F810BDC04690100040B54A0000DE
:1052D00064340020583400205C3400204410004026
:1052E00010120040020200001C120040C4100040D6
:1052F00018120040001200405410004058100040A6
:10530000F0B5C64601210400374A00B5136886B0DF
:105310008B431360354B14221D68354B354901A86A
:105320001E6802F07FFC0421334802F03FFA20207F
:10533000FCF750FF314B324A1B681268E31AB93B45
:10534000DB089B182F4A13602F4B1C689846002CD3
:105350000DD00127A3683B4206D00021012022691D
:10536000E3689847002806D12468002CF2D1FFF7A3
:10537000A9FC002703E0254B1F7001277F42012372
:10538000234A20201360234A1360234B1B68FCF739
:1053900021FF1B21184802F009FA204A1368012B4B
:1053A000FCD1142201A9134802F03CFC104B1E60F2
:1053B0000E4B1D6002F070FB43461C68002C0DD0A4
:1053C0000425A3682B4206D0002104202269E3684B
:1053D0009847002802D12468002CF2D1380006B08A
:1053E00080BCB846F0BDC04610E000E0442002405A
:1053F000442102404C2102404404000004210240A8
:1054000018200040282000401C340020A406002062
:105410000C20004054200040002000404021024069
:10542000084B01201A6803231340012B00D070475A
:10543000054A06491268002009689201F7D5480C10
:105440001840F4E7C0100040E01000404810004051
:1054500010B503681B68984710BDC046F8B5FCF747
:10546000DBFE0D4B07001A78002A10D101321A70AA
:105470000A4B1E78002E0AD00024094D2B680134F7
:1054800028009B68E4B298470C35B442F6D1380046
:10549000FCF77AFFF8BDC04668340020C47D0000E8
:1054A000B87D00000B4B10B51B78002B0ED00A4BBB
:1054B0001B7883420AD900290AD04300074A1B18E7
:1054C0009B009818D358DB68984710BD0020FCE774
:1054D0000349F2E768340020C47D0000B87D000075
:1054E000B07F0000020030B5034B32CB32C213CB89
:1054F00013C203CB03C230BDB07F000010B50368F8
:105500001B69984710BDC046FD2300214268D15455
:105510007047C046F0B5DE4657464E464546E42342
:10552000E0B5C35885B0082B00D97DE0002398462C
:1055300001339B46C023C6580C33C35801969C4682
:1055400033689C455ED262469B1A02928022D2004A
:10555000934263D8D4228458002C6AD0D822835036
:105560007268CC6992468D69002A69D047463D4AE7
:10557000BF00D259B946AA605A46029F7A43013AFF
:10558000524403921F0042469740BA46039A52443F
:105590002A600968344F0A005132FF326A60AA68F3
:1055A00092465A1E12013A4057461743AF60B568FB
:1055B0000392002D4ED04A462C4FBA585F46A26047
:1055C000029A574301225242B94692461F00424670
:1055D0009740B846D1444D44454465604131FF3160
:1055E0002160A168039A0A43A260019A964202D1FF
:1055F000CC226344835005B0F0BCBB46B246A946FA
:10560000A046F0BD7669002EF5D00022012302925B
:10561000802233743368D20093429BD91300D42282
:105620008458002C9AD104E00123984601339B460C
:1056300080E7835072684C6992460D69002A95D1C3
:1056400047460B4ABF00D259B946AA600200F6325B
:105650002A609EE74A46064DAD58A5600500F43520
:105660006560BBE700800000F03F0000F87F0000AD
:10567000F07F0000F8B53E23FB2784684668A26AE5
:1056800017490500E05CFEF727FEE26AF05D144969
:10569000FEF722FEF923F35C626A012B0BD03C2358
:1056A0000221E05CFEF718FE3D23226AE05C0C4913
:1056B000FEF712FEF8BD3B33E05C0949FEF70CFE35
:1056C0003D23226AE05C0221FEF706FEF05D0549FB
:1056D000FEF78EFC2900F05DFEF798FCEAE7C04675
:1056E000020004601D5A000010B540686C30FCF7E1
:1056F000E9FD10BD0121F8B58668456833680400EE
:105700000533FF331A6828008A431A60FCF77AFDD4
:1057100028003030FCF7D0FEF823EB5C002B22D0C1
:105720003C236768A468E05CFEF782FC3D23E05CF4
:10573000FEF77EFC3E23E05CFEF77AFCF923FB5C7F
:10574000012B15D0FB23F85CFF2801D0FEF770FC7D
:10575000B08EFFF743FD28001C30FFF7CBFCFD2384
:105760000022EA54F8BD28006C30FCF769FCD7E74A
:10577000FA33F85CEAE7C046F0B54F464646D646EF
:1057800000220023C0B582B0009201930E000B6886
:1057900001210533FF331A6807008A431A6080220B
:1057A000374C120123681343236023681D00154002
:1057B0001342FAD1012133680533FF331A688A4353
:1057C0001A603268536C5B0A5B02536433682D4A7B
:1057D0005A65063AFF3ABA5C2B4B9200D4583F23E5
:1057E000F35CFF2B02D0602323420FD06846FCF706
:1057F000E7FCE022019BB95800205A088A4208D2EF
:1058000002B0E0BCBA46B146A846F0BD403B1C43DE
:10581000ECE73068F926BE5D1C4AB600B258490074
:105820009446F022BE58421CFF32904612689146C0
:10583000E422BF58D53A013F3A4092464A46144FB7
:10584000174052463A43224344466746226010229C
:10585000441D3A43FF340D30FF30226007000468D6
:105860001800FAF715FC0B4B0138984200D885B2A6
:10587000094B01201C4034432C433C60C0E7C04628
:1058800000010340FF0100000880000020800000AC
:1058900090FCFFFFFE03000000FCF0FFF8B5446839
:1058A00006008568FCF7B8FCC023E3580700002B0E
:1058B00000D1A1E0F822A25C002A06D11B7C033BA8
:1058C000012B02D9FCF760FDF8BD3A23E85CFCF738
:1058D000B7FCEA684D4B1A60F923E35C2A68002B99
:1058E00006D1100010216130FF3003681942FCD14D
:1058F0000121531DFF331A688A431A60AA68434B7B
:1059000043491A602B681533FF331A680A401A603E
:10591000EA68AB6813433F4A13602A68536C5B0A1A
:105920005B0253642B683C4A5A65C023E15810332C
:10593000E2580433E0580A60002809D06B699B687C
:105940009B049B0D0133984202D31218D21A0A60AD
:10595000D823E058002842D1B16870683A26FFF792
:105960000BFFA85DFCF736FCA85DFCF76DFCC023BF
:10597000E55800212B0002202E681A7C033A012AE8
:1059800023D9187419605B69002BF6D1C822A3587B
:105990002E60002B2ED01A005B69002BFBD15561C5
:1059A0000023C022A3500432A3500832A350043273
:1059B000A3500432A35004323800A350FCF7E4FC97
:1059C00020003030FCF7E4FD7EE719605B69002BB6
:1059D000D3D1C822A3582E60002BDCD10AE0EB699A
:1059E0009B689B049B0D01339842B5D3C01A801865
:1059F0000860B1E7A550D3E701212B680533FF33D9
:105A00001A688A431A60FCF7BFFC5DE72C6002400D
:105A1000FEFEFFFF04650240FF01000070B50400B8
:105A2000FEF7FEFA050046682000FEF7D3FB0028CB
:105A30000CD1FCF7F1FBC023F3580400002B1DD060
:105A400001221A742000FCF79FFC16E0FCF7E4FB2F
:105A5000FB2304000021F05CFEF70AFCFC2301227A
:105A6000F2543C3BF358002B01D003321A7420004F
:105A7000FCF78AFC2800FFF711FF70BDFB23002113
:105A8000F05CFEF7F5FBFC230122F254DAE7C04696
:105A9000F8B54546DE4657464E468468E0B522686E
:105AA0004568D36C5365C022A958BF3A1A420BD03F
:105AB00000296BD003230B74FFF7F0FEF0BCBB464C
:105AC000B246A946A046F8BDE268A3680226134381
:105AD000754A1360C02398461C3399464346E958DB
