:10000000583D0020A1060000B1060000B106000026
:10001000B1060000B1060000B1060000B106000004
:10002000B1060000B1060000B1060000152D000069
:10003000B1060000B1060000712D0000B52D0000D2
:10004000B1060000B1060000B1060000B1060000D4
:10005000B1060000B1060000B1060000B1060000C4
:10006000B1060000B1060000B1060000B1060000B4
:10007000B1060000B1060000B1060000B1060000A4
:0C008000B1060000B1060000B10600004F
:10009000002243088B4274D303098B425FD3030AC7
:1000A0008B4244D3030B8B4228D3030C8B420DD3DA
:1000B000FF22090212BA030C8B4202D31212090268
:1000C00065D0030B8B4219D300E0090AC30B8B42A6
:1000D00001D3CB03C01A5241830B8B4201D38B0354
:1000E000C01A5241430B8B4201D34B03C01A5241F9
:1000F000030B8B4201D30B03C01A5241C30A8B423C
:1001000001D3CB02C01A5241830A8B4201D38B0226
:10011000C01A5241430A8B4201D34B02C01A5241CA
:10012000030A8B4201D30B02C01A5241CDD2C3093C
:100130008B4201D3CB01C01A524183098B4201D3B8
:100140008B01C01A524143098B4201D34B01C01AA3
:10015000524103098B4201D30B01C01A5241C3081B
:100160008B4201D3CB00C01A524183088B4201D38A
:100170008B00C01A524143088B4201D34B00C01A76
:100180005241411A00D20146524110467047FFE7E2
:1001900001B5002000F006F802BDC0460029F7D0E6
:1001A00076E770477047C0461C2101231B04984224
:1001B00001D3000C10391B0A984201D3000A0839F8
:1001C0001B09984201D30009043902A2105C4018AF
:1001D0007047C04604030202010101010000000053
:1001E00000000000002B11D1002A0FD1002900D1FE
:1001F000002802D00021C943081C07B4024802A10C
:100200004018029003BDC0469DFFFFFF03B468463F
:1002100001B5029800F02EF8019B9E4602B00CBC7E
:100220007047C046F0B515042D0C0F0001002E00DC
:10023000C64684460004140C000C090C46434D438A
:10024000604361434019340C241800B5A54203D91A
:100250008020400280464144250C6D186146594378
:100260007A43300449192404000C2018891880BCF2
:10027000B846F0BDF0B557464E464546DE46E0B5B9
:1002800004000D009246994683B08B4230D82DD0A1
:100290004946504600F0BAF829000600200000F058
:1002A000B5F8331A9846203B9B4633D45A465346FA
:1002B000934042461F00534693401E00AF423AD837
:1002C000AF4200D178E05B46A41BBD41002B00DAB1
:1002D00075E0002200230092019301235A469340C7
:1002E0000193012342469340009328E08242CFD9F4
:1002F00000220023009201930C9B002B01D01C6074
:100300005D600098019903B0F0BCBB46B246A946B7
:10031000A046F0BD424620239B1A5246DA40414691
:1003200013004A468A40170042461F4353469340F3
:100330001E00AF42C4D9002200230092019343461D
:10034000002BD9D0FB0772081A4346467B080EE003
:10035000AB4201D1A2420CD8A41A9D41012024191C
:100360006D410021013E24184D41002E06D0AB42C4
:10037000EED9013E24196D41002EF8D10098019963
:100380005B4600196941002B24DB2B005A4644468A
:10039000D3402A00E2401C005B461500002B2ADBFC
:1003A00026009E40330026004746BE403200801A99
:1003B0009941009001919FE7A342BCD883E7424650
:1003C000202300219B1A0022009101920122DA4091
:1003D000019286E7424620239B1A2A0046469A400D
:1003E0002300F340444613432A00E2401C005B46CE
:1003F0001500002BD4DA42462F0020232600974018
:100400009B1ADE403B003343CDE7C04610B50029C0
:1004100003D1FFF7C9FE203002E0081CFFF7C4FE3D
:1004200010BDC04670B505000021062002F0FEFF99
:10043000002415E00021122002F0F8FF07231B1B07
:100440002A001A41012111400D2002F0EFFF012185
:10045000122002F0EBFF082004F00AFD0134E4B2A0
:10046000072CE7D90021122002F0E0FF012106202D
:1004700002F0DCFFAF20800004F0FAFC70BD000049
:1004800010B50A49062002F063FF0021062002F0A1
:10049000CDFF012004F0ECFC0121062002F0C6FF94
:1004A0008C20800004F0E4FC10BDC0460104002054
:1004B00010B5FFF7E5FF1049062002F049FF0F4C89
:1004C0002100122002F044FF21000D2002F040FF25
:1004D0000B490C2002F03CFFB920FFF7A3FF0620D8
:1004E00002F05CFE122002F059FE0D2002F056FED2
:1004F0000C2002F053FE10BD010400200004002077
:10050000022004607047000010B503F04FFA03F0BA
:10051000B1FB074A136801218B430B43136002F0C0
:1005200085FE02F0EBFDFFF7C3FFFFF7EBFF10BD09
:10053000140000400300406A002803D01B6B1B68B6
:100540000A20C01A704700000B4B1B68002B00D01C
:1005500001230A4A1268D06A00280BD1084A12689F
:10056000012A08D8002B06D1064B1868064B1B68D9
:10057000C01A00E000207047C42C00209406002020
:10058000AC060020E42D0020902E0020084B1B68B4
:100590001B68002B04D1074B012252421A6070479E
:1005A000034B1B68DB681A68024B1A60F7E7C0460A
:1005B0009C060020E42D0020074B1A681368002BCE
:1005C00006D101330360002B04D1D368186870474B
:1005D0000023F7E70020FAE798060020104A5307A7
:1005E0001BD0D11D0723994380239B015B1A9B18C5
:1005F0000A000C48026000214160D318083B072024
:1006000083430948036059601960991A5160136067
:10061000064B1960064B1960704780239B01E8E781
:1006200074070020102E0020A0060020E02D0020DE
:10063000182D002010B5124B1A001B688342FBD303
:1006400051685418844208D041684418A34209D024
:100650000360904200D0106010BD406809185160DE
:100660001000F1E7074C2468A34206D05B68C91864
:10067000416013681B680360EBE70460E9E7C0466C
:10068000102E0020A00600200200032308200028CE
:1006900005D0024202D1013B4010F8E71800704734
:1006A00002480068854602F0B9F900000000000029
:1006B00072B6FEE710B5074B5A68FF2313409B0044
:1006C000054A9B58002B04D098685B68984702F055
:1006D00023FB10BD00ED00E0B405002010B50400C0
:1006E00002F026FBA26BE36B9A4204D0002402F0D6
:1006F0002BFB200010BD0124F9E710B5040002F027
:1007000017FBA36B002B04D1012402F01DFB20007A
:1007100010BD0024F9E710B5030008001A6C002A88
:100720000AD0D9688918D9609C68A14201D3196898
:10073000D960D96804F068FD10BD03000833436038
:10074000012252428260C36003610023036070474C
:1007500070B50024092C08D8A3001B1998000E4B73
:10076000C018FFF7EAFF0134F4E70C4D2800FFF74B
:10077000E4FF0B4C2000FFF7E0FF0A48FFF7DDFF26
:100780000948FFF7DAFF0948FFF7D7FF084B1D605C
:10079000084B1C6070BDC046AC060020F02C002049
:1007A000042D0020F82D00207C2E0020682E002033
:1007B0009C060020A406002010B5040002F0B8FA40
:1007C000284A136801331360274B1B68002B0CD099
:1007D000264B1B68002B0DD1234B1B68DB6AE26A9A
:1007E000934207D8204B1C6004E01F4B1C60136829
:1007F000012B31D01E4A1368013313606364E26A2F
:100800001C4B1B689A4201D91A4B1A601A49930073
:100810009B189B00CB185B68A3609868E060221D62
:1008200042609A60E06A83001A189200521862616E
:100830001A189200525801321B189B005A5002F0AD
:1008400083FA0A4B1B68002B05D0074B1B68DA6A3A
:10085000E36A9A4203D310BDFFF77AFFCAE702F0BA
:100860005BFAF8E7B4280020940600200C2E002044
:10087000C02A0020C42C0020AC0600200023036105
:1008800070470000F8B5D6464F4680B581460F0048
:1008900016009A46089D0A9C9200A521206B04F040
:1008A000BCFC234BF2189200236B9C466244072346
:1008B0009A4316002264002F0ED000220B2A08D87B
:1008C000B95CA31834331970BB5C002B01D0013222
:1008D000F4E73F230022E254092D00D90925E562FF
:1008E000E564201DFFF7CAFF20001830FFF7C6FFA0
:1008F00024610A235D1BA5616462200058306022D8
:10090000002104F08AFC0B4BE3650B4B23660B4B79
:10091000636652464946300002F0ECF92060099BBC
:10092000002B00D01C60C0BCBA46B146F8BDC04622
:10093000FFFFFF3F90540000B054000070540000CF
:1009400043684B609A688A605160996008610368E7
:1009500001330360704730B50C68631C10D003008E
:1009600008331A005B681D68A542FAD953684B60CA
:1009700099608A605160086103680133036030BD8B
:100980000269F3E710B54160006191420CD8D21AB8
:1009900083699A4201D3012010BD011D094B1868DB
:1009A000FFF7D9FF0020F7E79A4201D2994206D219
:1009B000011D054B1868FFF7CEFF0020ECE7012072
:1009C000EAE7C046A80600209806002070B504009B
:1009D0000D001600A36959192B0032002000FFF703
:1009E000D1FF002806D0A3699C4665442000236AF5
:1009F0009847EFE770BD0369416882688A60416883
:100A000051605A68824206D0002202611A68013A97
:100A10001A601868704782685A60F5E770B504007C
:100A20000D001D4B1E681D4B18680430FFF7E3FFD7
:100A3000631C0DD03419194B1B685C60A6421DD98C
:100A4000174B1868154B19680431FFF784FF70BD08
:100A5000002DEFD0134A5168104B18688160186858
:100A60008C68C4601868043060601868043088605E
:100A70001B685A61136801331360E8E70A4B186872
:100A8000064B19680431FFF766FF084B1B68A34249
:100A9000DDD9064B1C60DAE7902E0020940600207A
:100AA000A4060020682E00209C060020E42D0020D3
:100AB00070B505000E000C4B1B68DB68DC68201D60
:100AC000FFF799FF2823E35C5A0707D401229343D9
:100AD0002732A354236A2000984770BD32002900B2
:100AE0002000FFF773FFF5E79806002010B5094BCB
:100AF0001B681A68002A06D0DB6818680121494281
:100B0000FFF7D6FFF3E7044A024910680860136054
:100B100010BDC04698060020A8060020F0B589B098
:100B200005000E0017000593109C002C1DD00F9A95
:100B3000002A1AD0C0220021200004F06EFB0F9A78
:100B40002263BD230222E25400230393029407ABE5
:100B500001930E9A0092059B3A0031002800FFF79E
:100B600091FE2000FFF728FE01E00023079307987D
:100B700009B0F0BD024A1368013313607047C046E4
:100B8000BC2A0020014B18687047C046902E0020F8
:100B900070B50500FFF7F6FF0400074B1B688342A2
:100BA00005D800232B60044B1C60200070BDFFF7AC
:100BB0009DFF01232B60F6E7DC2D0020014B186818
:100BC0007047C046B428002010B504000A4B1B68CB
:100BD0001B180A4A1268934204D0074B186804197C
:100BE0001C6010BD02F0A4F8054A136801331360BD
:100BF00002F0AAF8013CF0E7902E0020E42D00203E
:100C0000F42D0020F8B5454B1B68002B7FD1444BD9
:100C10001E6801361E60002E0AD0424B1B68B3428C
:100C200013D90020404B1B68002B75D0012073E0C6
:100C30003E4A11683E4B1868106019603D4A1368BF
:100C400001331360FFF7A2FCE7E7002036E0354BE5
:100C5000012252421A60E5E7324B1A60E2E7D96896
:100C6000516041E0196A51600021996211680139AF
:100C70001160DA6A304909688A4201D92E490A604E
:100C80002E499400A418A2008A1852689A609468A9
:100C9000DC6065609560DC6AA2001719BD006D1804
:100CA0005D611719BD002F006D5801357D50DA6A5E
:100CB000234B1B68DB6A9A4200D901201B4B1B683F
:100CC0001B68002BC3D0194B1B68DB68DB685A68B4
:100CD0009642C1D35A699C68D968A1609C684C60EF
:100CE0001D1D5168A942BAD000215961116801390E
:100CF00011609A6A002ABCD0DC69196AA160DC69BB
:100D00004C601900183154688C42ADD1AAE70D4AE5
:100D10001368013313600020F8BDC046BC2A0020D0
:100D2000902E0020E42D00205C2F00209C06002047
:100D3000A4060020E82D0020C42C0020AC060020D2
:100D400094060020F42D002010B501F0F1FF434B74
:100D50001A68013A1A601B68002B7AD1404B1B6855
:100D6000002B07D1002475E0196A516015E0D9689D
:100D7000516021E000233B4A1268002A4AD0394BD7
:100D8000DB68DB689A6AD869196A8160D86948604B
:100D90001900183150688842E6D000219962116824
:100DA000013911605A699868D9688160986848600B
:100DB0001C1D5168A142DAD0002159611168013926
:100DC0001160D96A284A1268914201D9264A1160F5
:100DD00026488A0052189200821852689A609168D8
:100DE000D9604C609460DC6AA2001119890009186E
:100DF00059611119890009580131121992001150D5
:100E00001B4A1268D26AD96A9142B4D3194A0121A5
:100E10001160B0E7002B01D0FFF7B8FB164B1C6840
:100E2000002C0AD1134B1C68002C13D001F074FF66
:100E300001240FE0013C002C07D0FFF7E3FE00285F
:100E4000F8D00C4B01221A60F4E70B4B00221A6019
:100E5000E8E7002401F078FF200010BDBC2A002044
:100E6000B4280020F82D0020C42C0020AC0600205F
:100E7000940600205C2F0020F42D002070B50400A3
:100E80000D00002805D001F053FF656501F05CFFFF
:100E900070BD014B1C68F6E79406002010B5041ED7
:100EA00006D001F045FF646D01F04EFF200010BD3B
:100EB000014B1C68F5E7C0469406002010B50C00F5
:100EC000044B19681831FFF746FD01212000FFF798
:100ED000A5FD10BD9406002070B5030008001100A8
:100EE0005A680C4C2568EA61256896682E62256868
:100EF00018357560256818359560226893621A6800
:100F000001321A60002901D001204042FFF786FD1E
:100F100070BDC0469406002010B5C368DC68A36AA3
:100F2000E169226A8A60E1695160210018315A68DA
:100F30008A4243D00022A2621A68013A1A60294B01
:100F40001B68002B40D16369A168E2688A60A168D0
:100F50005160201D5A68824233D0002262611A68B3
:100F6000013A1A60E26A204B1B689A4201D91E4B73
:100F70001A601E4993009B189B00CB185B68A36006
:100F80009A68E26050609860E06A83001A189200E4
:100F9000521862611A189200525801321B189B00B5
:100FA0005A50FFF7F3FAE26A114B1B68DB6A9A4268
:100FB00016D9104B01221A60012010BD226A5A6016
:100FC000B8E7E2685A60C8E70B4B5A68E26190687C
:100FD000206241609160A3621A6801321A60E2E700
:100FE0000020EAE7BC2A0020C42C0020AC06002028
:100FF000940600205C2F0020F82D0020F8B5040096
:101000000D00002852D0C36B002B51D0016C00267C
:101010000F0C1A0C002F13D190B2002803D1002E10
:1010200014D0002045E0081C89B29BB24B4381B22A
:1010300090B248431B0CC3181B0CF0D00126EEE7FE
:1010400092B2002AFAD13A1C181CEDE701F070FEAA
:101050002268E36B206C010059435118A160002104
:10106000A1636260013B4343D318E360FF23442242
:10107000A3540132A354002D0FD12369002B03D1B7
:1010800001F062FE012014E020001030FFF744FF61
:101090000028F5D001F040FEF2E720001030FFF705
:1010A0004CFB20002430FFF748FBE9E7002000E07C
:1010B0000020F8BD70B51D00049C002909D12460F2
:1010C000E063216401212000FFF798FF4C23E554E1
:1010D00070BD2260F4E770B582B01C0006AB1B78CF
:1010E000002814D0002C14D0002A01D0002912D0DE
:1010F000002A08D04625012666550094FFF7DAFF3E
:10110000200002B070BD0029F4D01000F9E70020E3
:10111000F7E72000F5E70020F3E7000030B583B0E3
:1011200001F006FE0F4B1B68002B03D001F00CFEF4
:1011300003B030BD0C4D2800FFF7FFFA0B4C200028
:10114000FFF7FBFA0A4B1D600A4B1C60002300935B
:10115000094B0A4A10211420FFF7BDFF014B18600C
:10116000E4E7C046942E0020C82C0020DC2C002090
:1011700098060020A8060020182E002074270020C2
:10118000F8B504000E0001F0E9FD0500A36BE26B69
:101190009A4221D94522A75C7FB20133A3637B1C0D
:1011A00010D1636A002B01D1012416E02000243005
:1011B000FFF7B2FE002815D0002E15D001233360B2
:1011C00001240AE0FFF7FAFC87420FD201377FB211
:1011D0004523E754012400E00024280001F0C2FD6B
:1011E0002000F8BD0124F8E70124F6E70124F4E724
:1011F000F0B583B004000091019201F0AFFD05004D
:10120000A66B002E06D10024280001F0ABFD2000C3
:1012100003B0F0BD4423E75C7FB200992000FFF7E4
:101220007AFA731EA3637B1C11D12369002B01D1B1
:101230000124E9E720001030FFF76EFE002810D0EF
:10124000019A002A0FD0012313600124DCE7FFF785
:10125000B5FC874209D27B1C5BB24422A354012413
:10126000D2E70124D0E70124CEE70124CCE7000037
:10127000034B1B680360034B1B6843607047C04609
:10128000E82D0020902E0020F8B504000D0001F09C
:101290004FFD124B19686368C81A2A68561C18D08B
:1012A0000F4E36682768B74205D08B4203D800231B
:1012B0002B6001240EE0824203D800232B6001241E
:1012C00008E05B1A9B182B602000FFF7D1FF002479
:1012D00000E0002401F038FD2000F8BD902E002031
:1012E000E82D0020014B01221A6070475C2F00207E
:1012F00070B5050001F01CFD4523EC5C64B203E011
:10130000FFF7F0FF013C64B2002C09DD6B6A002B93
:1013100006D028002430FFF7FFFD0028F2D0EFE7C9
:101320004523FF22EA5401F00FFD01F001FD4423A3
:10133000EC5C64B203E0FFF7D5FF013C64B2002C23
:1013400009DD2B69002B06D028001030FFF7E4FDE3
:101350000028F2D0EFE74423FF22EA5401F0F4FC26
:1013600070BDF0B585B004000D000192002737E094
:1013700029002000FFF7CFF9013EA6632369002B67
:1013800004D101F0E1FC012005B0F0BD20001030D7
:10139000FFF7C2FD0028F4D001F0BEFCF1E701F038
:1013A000D3FC0020F0E702A8FFF762FF013721E03D
:1013B00044230022E25428E045230022E25429E09D
:1013C0002000FFF795FFFFF7BFFC09E02000FFF7C3
:1013D0008FFFFFF7B9FC2000FFF78FF9002835D108
:1013E00001F0A6FCA66B002EC2D1019B002BD6D02B
:1013F000002FD8D001F0A8FCFFF7BCFB01F098FC4F
:101400004423E35C5BB20133D2D04523E35C5BB29F
:101410000133D1D001F098FC01A902A8FFF734FFF5
:101420000028D3D12000FFF768F90028C8D0200099
:1014300024300199FFF742FD2000FFF759FFFFF725
:1014400083FC0028CCD101F067FCC9E700209BE7B2
:1014500070B504000D00160001F06AFC4423E35C43
:101460005BB201330DD04523E35C5BB201330CD09A
:1014700001F06AFCA36B002B0BD02000FFF738FFB4
:1014800070BD44230022E254EDE745230022E254DC
:10149000EEE72000243032002900FFF71DFDECE7C5
:1014A00070B582B004000D00FFF764FB01A8FFF7E0
:1014B0006FFB0600019B002B23D1002D01D1A04220
:1014C00013D2002D05D0104A12681268002A13D1D9
:1014D0000125A11B0D4B18682A00FFF7B9FFFFF784
:1014E00033FC00280AD002B070BDFFF72DFC31009C
:1014F0002000FFF7DDFAF6E71D00EAE701F00CFC3B
:10150000F1E7FFF721FCEEE7A8060020942E00206B
:101510000E4B1B68002B10D10D4B1B68002B0ED1FE
:101520000C4B1B68002B0CD10B4B1A680B4B1B6828
:10153000013B9A4207D0012000E0002070470020C4
:10154000FCE70020FAE70220F8E7C046F82D00206B
:101550005C2F0020F42D0020682E0020B4280020ED
:10156000014B18687047C04694060020064B1B6864
:10157000002B07D0054B1B68002B01D0002002E098
:10158000022000E0012070470C2E0020BC2A002021
:1015900070B5041E4CD0C26A274B1B68DB6A9A42A6
:1015A0003ED28369002B05DB234B1B68D96A0A23D3
:1015B0005B1A836193009B189B00204A9B18626909
:1015C0009A4205D01C4B1B68DB6AE362012030E0C5
:1015D000251D2800FFF70FFA174B1B68DA6AE26235
:1015E000174B1B689A4201D9154B1A601349930097
:1015F0009B189B00CB185B68A3609A68E2605560FB
:101600009D60E06A83001A189200521862611A18ED
:101610009200525801321B189B005A50012008E0DA
:10162000C26C054B1B68DB6A9A4203D3002000E0C2
:10163000002070BD0120FCE794060020AC060020CD
:10164000C42C002070B5041E33D0036D013B03652C
:10165000C26AC16C8A422ED0002B01D0002070BD1E
:10166000051D2800FFF7C7F9E26CE2620A239B1A06
:10167000A361124B1B689A4201D9104B1A601049A2
:1016800093009B189B00CB185B68A3609A68E2608C
:1016900055609D60E06A83001A18920052186261DA
:1016A0001A189200525801321B189B005A50012000
:1016B000D5E70020D3E70020D1E7C046C42C0020A6
:1016C000AC06002070B504001500866B026C002A81
:1016D0000CD10368002B03D000200136A66370BD37
:1016E0008068FFF7AFFF0023A360F6E7002D0ED15F
:1016F000406803F089FD6368226C9446634463602C
:10170000A26893421BD3236863602800E5E7C068A2
:1017100003F07AFD236C5A42E168CB1AE36021683A
:101720008B4203D2A3689C466244E260022D01D042
:101730000020D2E7002E04D0013E0020CDE7280093
:10174000CBE70020C9E7F0B585B004000D00019299
:101750001E00002730E0320029002000FFF7B2FF12
:10176000636A002B06D100280DD101F0EDFA0120AB
:1017700005B0F0BD20002430FFF7CEFB0028F4D0E8
:1017800001F0CAFAF1E701F0C7FAEEE701F0DCFA7E
:101790000020EDE702A8FFF76BFD013719E04423B5
:1017A0000022E25420E045230022E25421E0200000
:1017B000FFF79EFDFFF7C8FA01F0BAFAA36BE26BE0
:1017C0009342C8D3022EC6D0019B002BDED0002F3F
:1017D000E0D001F0B9FAFFF7CDF901F0A9FA4423FE
:1017E000E25C52B2531CDAD04523E25C52B2531C85
:1017F000D9D001F0A9FA01A902A8FFF745FD0028F8
:1018000013D12000FEF76AFF0028D0D0200010304E
:101810000199FFF753FB2000FFF76AFDFFF794FAE9
:101820000028C9D101F078FAC6E72000FFF760FD73
:10183000FFF78AFA00209BE770B5041E09D0C36C3D
:101840008B4200D20B00E26A9A4202D0216D01293C
:1018500000D070BDE362A169002902DB0A21CB1A26
:10186000A36193009A189200144BD21863699342B3
:10187000EFD1251D2800FFF7BEF8E26A104B1B6868
:101880009A4201D90E4B1A600C4993009B189B0099
:10189000CB185B68A3609A68E26055609D60E06A5F
:1018A00083001A189200521862611A189200525856
:1018B00001321B189B005A50CBE7C046AC060020F3
:1018C000C42C0020054B1B68002B04D0034B1A6866
:1018D000136D01331365014B18687047940600209F
:1018E00070B584B0040001910025002643E0013B5F
:1018F000A3632368002B07D02369002B08D101F0D4
:1019000023FA012004B070BDFFF7DCFFA060F3E70D
:1019100020001030FFF700FB0028F0D001F0FCF9A8
:10192000EDE701F011FA0020ECE702A8FFF7A0FCB8
:1019300001362AE044230022E25431E0452300220C
:10194000E25432E001F0F4F9A068FFF721FE05004F
:1019500001F0FAF939E02000FFF7CAFCFFF7F4F9CB
:1019600009E02000FFF7C4FCFFF7EEF92000FEF7C6
:10197000C4FE002838D101F0DBF9A36B002BB6D1EF
:10198000019B002BCDD0002ECFD001F0DDF9FFF769
:10199000F1F801F0CDF94423E35C5BB20133C9D027
:1019A0004523E35C5BB20133C8D001F0CDF901A956
:1019B00002A8FFF769FC0028D3D12000FEF79DFEA6
:1019C0000028C8D02368002BBCD020002430019907
:1019D000FFF774FA2000FFF78BFCFFF7B5F900283A
:1019E000C9D101F099F9C6E7002D01D1002089E79E
:1019F00001F09EF92000FEF79DFD0100A068FFF7B1
:101A00001BFF01F0A1F9F1E770B50500FFF7B2F88F
:101A10002B4B1B68002B13D0002D07D007222A4028
:101A200010239B1ADA43AA420DD3ED18002D3FDB99
:101A300040D0244B1B68AB423ED3234A146806E0D7
:101A4000FEF7CCFDE8E70025F0E722001C00636804
:101A5000AB4202D22368002BF7D1194B1B68A3427B
:101A60002CD0166808362368136063685B1B102B44
:101A700018D8626813490B689B1A0B6013490968F0
:101A80008B4201D211490B6080231B061343636014
:101A9000002323600E4A136801331360FFF754F9E3
:101AA000300070BD601943606560FEF7C3FDE0E77C
:101AB0000026F3E70026F1E70026EFE70026EDE732
:101AC000A0060020182D0020102E0020E02D002060
:101AD000EC2D0020F0B583B004000D0017000028A5
:101AE00032D000200A0C230C002A28D19AB2002AF6
:101AF00017D100282CD1280060430300513329D886
:101B00005030FFF781FF061E1FD0020050324623DF
:101B10000021C15400903B0029002000FFF7CAFAC1
:101B200013E01A1C2E1CABB2A1B25943B6B293B249
:101B30007343090C5B181B0CDBD00120D9E79BB267
:101B4000002BFAD1261CEEE70026300003B0F0BDD2
:101B50000026FAE70026F8E770B5002807D0050050
:101B6000083D6B68002B02DA2A68002A00D070BD9D
:101B70005B005B086B60FEF7FDFF6B68074A11684E
:101B80008C46634413602800FEF754FD044A136832
:101B900001331360FFF7D8F8E9E7C046182D00209D
:101BA000F02D002010B54623C35C002B00D010BDE3
:101BB000FFF7D2FFFBE7F0B587B004900591160060
:101BC0001F009000FFF720FF041E23D0C020FFF766
:101BD0001BFF051E1AD0C022002103F01EFB2C6340
:101BE000002D1BD00023BD22AB54039302950D9B07
:101BF00001930C9B00933B00320005990498FEF77B
:101C000041FE2800FEF7D8FD012005E02000FFF787
:101C1000A3FFE5E70120404207B0F0BD01204042AC
:101C2000FAE7000010B504000B4B1868583003F0B9
:101C300009FBBD23E35C002B02D0012B07D010BDB4
:101C4000206BFFF789FF2000FFF786FFF7E72000F2
:101C5000FFF782FFF3E7C0469406002070B504004A
:101C600001F066F8002C2AD0251D2800FEF7C3FEDF
:101C7000A36A002B03D020001830FEF7BCFE174AE1
:101C8000136801331360164B1B68A3421AD0154A20
:101C90001368013B1360FEF779FC01F055F8104B17
:101CA0001B68A34202D02000FFF7BCFF0E4B1B684D
:101CB000002B03D00A4B1B68A3420CD070BD084B0D
:101CC0001C68D1E729000948FEF73AFE084A136864
:101CD00001331360E1E701F01FF8EFE7C02A0020AD
:101CE00094060020B42800200C2E00207C2E00201A
:101CF000B828002010B50D4B1B68002B15D001F043
:101D000017F80B4BDB68DC68201DFEF774FE094AF0
:101D10001368013B1360054A1368013B136001F02F
:101D200013F82000FFF77EFFE5E710BDB82800207C
:101D30007C2E0020B428002030B587B006E0039B3D
:101D4000059904989847029B002B0BDA334B1868CF
:101D5000002202A9FFF705FB00285DD0029B002BA3
:101D6000F1DAECE7049C6369002B02D0201DFEF73A
:101D700042FE01A8FEF70CFF0500029B092BE5D8E7
:101D80009B00274AD3589F462822A35C01210B437E
:101D9000A354039BA269944663441900039B020069
:101DA0002000FEF7EFFD0028D0D02823E35C5A077F
:101DB00007D4012293432732A354236A2000984773
:101DC000C4E7039BA2699446634419002A002000DB
:101DD000FEF7FCFDF1E72822A35C01218B43A3540D
:101DE000B4E72822A35C01210B43A3540399A1610A
:101DF0000918030002002000FEF7C4FDA6E728230F
:101E0000E35C9A0704D5012293432732A3549DE74C
:101E10002000FFF7A1FE99E707B030BD942E002007
:101E20008C53000000B583B001A8FEF7C5FB0199F3
:101E3000FFF736FBFFF780FFF6E770B50500FEF70A
:101E400099FE02E02000FFF787FEEB6A002B15D019
:101E50001A68EA621C696268002A01D02168116070
:101E60002268002A01D0616851609A681268002ACD
:101E7000E8D0D8680028E5D09047E3E7FEF764FF94
:101E800070BDFEE770B5284B1B68002B03D0274BB5
:101E900001221A6043E0254B00221A60244B1B6884
:101EA0001B6B244A1968914202D15968914208D0AB
:101EB0001F4B186819683431FFF7E3FF1E4B1A688F
:101EC00008E099689142F3D1DA681A4B9A42EFD14F
:101ED000F4E7013A93009B189900184BCB58002B5C
:101EE000F7D0164D91008B189800281843685C684D
:101EF000446089188B00190008335B199C420FD08D
:101F000093009B1899000D4B5B185B68D968084BD0
:101F1000196009490A601B685833094A136070BD8B
:101F200060686B185860EBE7BC2A00205C2F00202B
:101F300094060020A5A5A5A5C42C0020AC06002071
:101F40002C05002070B5040000F0F2FE002C1CD01F
:101F5000251D2800FEF74FFDA36A002B03D02000AB
:101F60001830FEF748FD29001D48FEF7E9FC002364
:101F7000002B0DDD00F0E8FE1A4B1B68002B13D17F
:101F8000194B1B68A34216D070BD174B1C68DFE7C6
:101F9000E218BC321278012A01D00133E8E7E218D6
:101FA000BC3200211170F8E700F0C2FEFEF7EEFA35
:101FB00000F0CAFEE4E70B4B1B68002B09D1084B6D
:101FC0001A680A4B1B689A4206D1074B00221A6016
:101FD000DAE700F0A1FED7E7FFF754FFD4E7C046E9
:101FE000682E00200C2E002094060020B42800202B
:101FF0004060006070470368181A43425841C0B2FD
:102000007047436802681A60036842685A60704704
:1020100030B583B003000D0003220092002200219E
:102020000120FFF758F8041E01D0002D02D1200036
:1020300003B030BD002300220021FFF784FBF6E748
:1020400070470000034B0360034B0B608023136059
:102050007047C0461C2D0020BC280020034B0360A5
:10206000034B0B60802313607047C0469C2E0020FA
:10207000C42A002000B589B0FFF750F8104B1B6848
:10208000002B19D000230593069307AA06A905A8DB
:10209000FFF7E4FF059B0293069B01930523009342
:1020A0000023079A07490848FEF738FD074B1860D8
:1020B000002802D0012000E0002009B000BDC04689
:1020C000942E0020B4530000251E0000982E0020FE
:1020D00010B588B000240594069407AA06A905A89F
:1020E000FFF7B0FF059B0293069B0193009400232A
:1020F000079A11491148FEF711FD002807D0FFF794
:10210000B9FF012805D00E4B1B6808B010BD002098
:10211000F7E772B60B4B1B6858330B4A13600B4B37
:10212000012252421A600A4B02321A60094B002205
:102130001A6000F077FEE6E7BC530000F5290000C6
:1021400020050020940600202C050020E42D00200E
:102150000C2E0020902E00200023036043600122FB
:1021600052428260C3607047F8B505000E00134B01
:102170001C6801277F420CE02369E069002B03D132
:102180002375A36998470EE0E268D318E360F8E787
:102190002468002C10D0237D002BF9D0002D02D014
:1021A000E368B342E8D0237D002BF1D0E3689B1BAA
:1021B0009F42EDD91F00EBE73800F8BDA0050020D5
:1021C000024B4360002303607047C046006CDC0292
:1021D0000120704710B502F02FFF10BD70B504004C
:1021E000054B01221A60054D2B682020FFF7F2FFF6
:1021F0002C60034B1C6070BD48210240202102402E
:10220000A805002010B50400006802F0D1FE206887
:1022100002F05AFE10BD000010B5084B5B68DB05EC
:10222000DC0D002B06D0EFF31084012383F310881C
:10223000200010BD00F07CFDFAE7C04600ED00E094
:1022400010B502F0B5FE10BD10B502F09DFE10BD38
:10225000034B5B68DB0501D1002070470120FCE7E0
:1022600000ED00E070B505000C00FFF7F1FF00285D
:1022700019D1FFF7ADFF0200FA239B0098420AD064
:10228000002320000021FDF7CDFFFA229200002359
:10229000FDF7A8FF040021002800FFF721FB01281B
:1022A00007D1002070BD002200212800FEF7A0FF0A
:1022B000F5E701204042F5E710B582B00400FFF7D2
:1022C000C7FF002807D10023002200212000FFF7CC
:1022D0003AFA02B010BD01A92000FEF751FFF8E75D
:1022E000002805D000230360013B436002330372E2
:1022F00070470000F0B585B004000E0017001D0007
:1023000000281FD0002B20D0FF236A681340FF2B2A
:1023100020D0154B1B68B34202D06B68C02B20D075
:10232000B300124A9C5067602B68A3602660104976
:10233000300002F0B1FD2979300002F0CFFD2B7A98
:10234000002B0AD1200005B0F0BD01A8FFF7C8FF9F
:1023500001ADD9E77F3B6B60DBE7300002F014FE94
:10236000F0E70024EEE7C04608050020B405002091
:10237000B506000010B502F031FE10BD10B5054BDA
:102380005B68DB0502D080F3108810BD00F0DCFC38
:10239000FBE7C04600ED00E070B50400FFF73CFF2E
:1023A00025682B6823602B685C60FFF7E7FF280037
:1023B00070BD70B504000D00FFF72EFF2C60636840
:1023C0006B6063681D606560FFF7D8FF70BD00003B
:1023D000F0B5C64600B584B004000E001500002814
:1023E00044D0FFF719FF8046264B1B78002B21D1E4
:1023F000002705E0FB002448C018FFF7F9FD01376E
:10240000032FF7DD0023214A1360214A13600127BF
:10241000204A1760204A137001A8FFF761FFC0230C
:1024200002931E4B196801AB1D4A1E48FFF762FF5D
:10243000144B1F704046FFF7A1FF002D1BD0AF6863
:102440007B1C1AD0032F1AD82000FFF7D1FD2300E0
:102450000C3307CD07C32A681A606761E661226200
:1024600000236362FF00084BDF19A760200004B05F
:1024700080BCB846F0BD0C4DE1E70327E4E700243B
:10248000F4E7C046640600206C0600208C0600209D
:102490004406002068060020900600200805002061
:1024A0007125000048060020C853000070B50400E4
:1024B000FFF7B2FE05002000FFF7A3FDA068FFF7BD
:1024C0009AFD002806D0636901229A4003490B68EF
:1024D00093430B602800FFF751FF70BD8C0600206E
:1024E000F8B5070013E0022363621C4B226A1A60EE
:1024F000A36923623800FFF741FF2169E068E369BF
:102500009847FFF789FE0700636A022B1FD0144B20
:102510001B68002B1ED0134B1B68012B1AD1104BCC
:102520001868FEF7B1F80600C3000F4DED1828003B
:10253000FFF732FF04002800FFF75DFD0028D2D02E
:102540000122B24006490B6893430B60CBE700239E
:102550006362DCE7054B00221A70F8BD44060020D8
:102560008C060020680600206C06002090060020E3
:1025700010B5FFF751FE0400FFF7B2FF2000FFF790
:10258000FDFE10BD70B50400FFF746FE0500636A4E
:10259000012B0BD1114B1B78002B03D1104B1B6867
:1025A000012B13D02800FFF7E9FE70BD01266662FB
:1025B0006369DB000B48C0182100FFF7FAFE63696E
:1025C0009E40094B1A6816431E60E3E7074B1868E4
:1025D000FFF7D0FE014B01221A70E3E790060020BE
:1025E000680600206C0600208C06002008050020EC
:1025F00070B5FFF711FE1A4B1E681A4B01221A70B4
:10260000194B00221A70194B1D68761BFFF7B6FE96
:102610000024B44207D82D19361B29000120FFF7EA
:10262000A3FD0400F5E7FFF7F7FD06000E4B1B784E
:10263000002B0FD10E4B9C4200D91C002819FFF72C
:10264000CDFD084B00221A700A4B1D603000FFF7C9
:1026500095FE70BD29000020FFF786FD0400E9E724
:10266000042102409C050020AC050020A8050020A4
:10267000FFFFBFFFB005002010B5034B01221A6019
:10268000FFF7B6FF10BDC0465420024070B50400ED
:10269000FFF7C2FD0500164B1A78002A16D1154B1C
:1026A0001E68154B1968711A144800681B68C31A14
:1026B00099420BD8A3689A19E26001222275801B07
:1026C000834210D2E068FFF789FD0CE0094B1B68DC
:1026D000A1688C466344E36001232375002A02D07D
:1026E000074B01221A702800FFF748FE70BDC04654
:1026F0009C05002004210240B0050020A805002010
:10270000AC05002070B50400FFF786FD050000232E
:102710002375134B1B78002B06D0124B01221A7025
:102720002800FFF72BFE70BDE2680F4B1B689A4232
:10273000F6D10E4A14680E490A68A21A09685B1A93
:102740009A42EDD221000020FFF70EFD094B98427E
:1027500000D918000019FFF741FD054B1C60DFE7A9
:102760009C050020AC050020A805002004210240A3
:10277000B0050020FFFFBFFF70B504000E0015007C
:10278000FFF74AFDA661E561FFF7F8FD70BD70B582
:1027900004000E001500FFF73FFD6660A560FFF71F
:1027A000EDFD70BDF8B51A4B1B78002B00D0F8BDBD
:1027B000184B1D680124184B1C600026174B1E6027
:1027C000174B1C60002217491748FFF7E0FF1B2139
:1027D000164802F057FB164B1C60164800F028FC08
:1027E000154B1D60154B9C466544154F3D60154BC0
:1027F0001E70154B1E70064B1C70FFF70DFD04007C
:102800003868FFF7EBFC2000FFF7B8FDCFE7C046C4
:102810009D05002004210240542002400C2102406A
:102820006020024079260000AC2F00204404000004
:1028300058200240A0050020B0050020FFFFBFFF88
:10284000A80500209C050020AC05002070B5040000
:102850001D00002812D0002B12D06B682361A260EB
:10286000A161AB68E36100232375FFF79BFF2100A3
:10287000064800F0E7FB2B78002B03D1200070BD49
:10288000034DEAE72000FFF701FFF7E7A00500206E
:102890009005002010B5FEF76DF910BD10B5FEF7DC
:1028A00053FA10BDF8B5CE46474680B5FFF7B4FCE5
:1028B0000500FEF72DFE00282BD001F0FDF80223C5
:1028C00003405E425E41F6B204240440604244414B
:1028D000E4B2002B21D0002E24D0384B1968384B9D
:1028E0001E68002941D1374B9846374B19684B0178
:1028F0005B1A9B005B18DB0047469F4200D91F0014
:10290000FA235B009F4235D8002C0DD001F0AAF9C4
:102910000AE02800FFF732FD09E001F08DFA0028F7
:10292000D9D10400002C45D12800FFF727FDC0BCF9
:10293000B946B046F8BD0133DBB2042BD5D801222D
:102940009A401142F7D0214A9A1892001268204FFB
:10295000FF5C3000B840121A1A48824200D90022A7
:10296000FA409045E7D99046E5E70023012252421C
:102970009046E2E7FFF78EFF164B98461B68994694
:10298000F01901F0C9F9144C4B4623600C4B186840
:10299000801B00F07DFBFEF717F900234246136011
:1029A0000E4A136805210B4313600D4B2360FFF79C
:1029B00075FFB9E701F056F9B6E7C046442002407A
:1029C00004210240FFFFBFFF400600205388001093
:1029D000D853000018E000E014E000E010E000E050
:1029E0007FBB000010B5024B186001F06BF810BD02
:1029F0004006002010B501E0FEF7A6F9FFF77AF9CE
:102A0000FDF7A2FD0128F9D9FEF7B4F8FDF79CFD0A
:102A10000128F1D9FFF7E6FFEEE7000010B582B01C
:102A200002F0B4FB72B6BFF34F8FBFF36F8F194B39
:102A300001AA934202D2184A04C3F9E7174B184A75
:102A4000934202D2002204C3F9E7164A164B9A4277
:102A500007D0154B134901E004C904C3134A93423C
:102A6000FAD3134C134BE41AA4100023019306E08D
:102A70009B00104A9B589847019B01330193019B8F
:102A8000A342F5D30C4A0D4B1A6000F0A5FA02B030
:102A900010BDC04658350020A5A5A5A5900500206D
:102AA00058350020D8540000A004002090050020D4
:102AB00010530000105300000000000008ED00E07B
:102AC000704710B5002803D008380068FFF744F8B5
:102AD00010BD10B50800FFF7F4FF10BD10B5044B92
:102AE000020013CB13C203CB03C2002010BDC046AB
:102AF0000C050020012902D8016100207047162032
:102B0000FCE70B685A1E082A02D8036000207047B1
:102B10001620FCE78160002070470000F0B5C64633
:102B200000B582B007000D0090461E00002943D07A
:102B30003420FEF769FF041E51D02B695A1E9341C1
:102B400003744346436186610023C3608360C361AD
:102B500003622A68426083620363C3622B69002BAD
:102B600007D1032200210120FEF7B4FFA060002856
:102B700024D0FEF7FBFC0600012824D12A892B680B
:102B8000009392080194230016491748FFF713F8A1
:102B900001281BD0A068002801D0FFF703F820000F
:102BA000FEF7DAFF0C2500243C60012E14D128002A
:102BB00002B080BCB846F0BD0C4DB9E72000FEF76E
:102BC000CBFF0C25F3E7FDF7D5FFD7E72100206801
:102BD000FEF754F90025E7E7FEF7B6F8E7E70C251E
:102BE000E5E7C046C4530000652C00000C0500203A
:102BF00010B5FEF7B5FCFEF751F910BD10B5030096
:102C0000026800699062002902D098685B68984762
:102C100010BD30B583B00500FFF7EAFF0400456240
:102C200001A9012000F025F8A06A002803D00121A5
:102C3000FFF7E4FFF8E72000FFF7FFF8237C002B05
:102C400009D1A06800220021FEF77DFD0020FFF7DA
:102C500079F903B030BD2000FEF77EFF0020FEF7BB
:102C6000FDFFF6E710B5436980699847FFF7D1FF8C
:102C700010BD70B504000D00FFF7BAFF012C0DD890
:102C8000C3692B60C461002C0AD1006A002808D0F7
:102C900001204042FFF7BDFF200002E0162000E0C7
:102CA000002070BD82B00023019372B6019B002BFF
:102CB000FCD002B0704700000000000000000000DF
:102CC0000B4A13681868203080F30988022080F3CB
:102CD0001488BFF36F8F3FBCAE4608BC04BC62B61D
:102CE0001847C046C046C046C046C046C046C0465B
:102CF0009406002010B5031F802464041C60043B6C
:102D00001960043B02491960143B1A60403810BD39
:102D1000A52C000070470000044B802252051A6069
:102D2000BFF34F8FBFF36F8F7047C04604ED00E0D5
:102D300072B6044A136801331360BFF34F8FBFF3B9
:102D40006F8F704724050020034A1368013B13600E
:102D5000002B00D162B6704724050020EFF31080ED
:102D600072B6704780F310887047000000000000C2
:102D7000EFF309800E4B1A6820381060F0C044460B
:102D80004D4656465F46F0C008B572B6FFF77AF872
:102D900062B60CBC116808681030F0C8A046A9469D
:102DA000B246BB4680F309882038F0C81847C046B1
:102DB0009406002010B5FFF7D1FF0400FDF722FFB5
:102DC000002803D0034B802252051A602000FFF731
:102DD000C9FF10BD04ED00E00A4B0B4A1A600B4B13
:102DE0005E22FF321A600A4BFF3A1A60094B00223A
:102DF0001A6009490A60094A0949116007221A60E4
:102E00007047C046642F002080BB0000682F002060
:102E1000602F002010E000E018E000E014E000E087
:102E20007FBB000010B50C4B1968FF2212040A4347
:102E30001A601968FF2212060A431A60FFF7CCFFD6
:102E4000064B00221A60FFF73BFFFFF71BF8FFF766
:102E500029FF002010BDC04620ED00E02405002021
:102E600010B50C4C200001F043F80B4B23610823F4
:102E7000636100232373237023762100002001F077
:102E800017F8064B1860002801D0002010BD05205F
:102E90004042FBE73835002040420F001435002047
:102EA00010B5124B1B68002B1AD040BA104B18807B
:102EB000104C0222226063600023A36000210120E5
:102EC00000F0B4FA094B1868210001F01DF8040065
:102ED0000121012000F0AAFA002C04D0002010BD2E
:102EE00010204042FBE705204042F8E7143500205F
:102EF000183500201C35002070B5164B1B68002BC0
:102F000022D0154C02232360144DA560002363607A
:102F10000021002000F08AFA114E0220B36C98477D
:102F20000121002000F082FAB36C02209847094B7F
:102F30001868210000F0E8FF2B885BBA9AB22B805A
:102F4000002804D0100070BD10204042FBE705208F
:102F50004042F8E7143500201C35002018350020C9
:102F60004C00000F70B500F061F900F0ADFA00F010
:102F70007BFFFFF775FF002800D000BE0023134A37
:102F80001360134A13601EE000BE80B2114B18801C
:102F9000854212D000BE0E4A13680133136001341B
:102FA00080235B029C420DD2A5B22800FFF778FF78
:102FB000FFF7A2FF0028E8DAE6E7044A13680133C6
:102FC0001360ECE700BE0024EAE7C0463435002079
:102FD000103500201A35002010B588B0FDF794FA9E
:102FE00002A8FFF77BFD0123019301A902A8FFF7C7
:102FF00088FD0400012102A8FFF77CFD0443802125
:10300000C90002A8FFF786FD044300D0FEE70023B5
:10301000064A02A907A8FFF781FD002800D0FEE7B5
:10302000FFF756F8002008B010BDC046652F00001D
:1030300010B50400FFF7F0F8002363602360FFF78A
:103040009DF910BD70B50C000500FFF7E5F80023F1
:1030500023606B686360002B04D01C606C60FFF71A
:103060008DF970BD2C60F9E770B50C000500FFF715
:10307000D3F80CCC002A06D05360002B06D01A607F
:10308000FFF77CF970BD6B60002BF8D12A60F7E781
:10309000074B020C19000004000C43430548514340
:1030A0005043C018C009DE30400A4018400A70473B
:1030B00012830000986E000010B5042801D0002093
:1030C00010BD0D3000F05EFDFF22074B11201A608D
:1030D0000123064A1360064A1168064A1160064A2F
:1030E000136000F087FDEAE72C6002404C6002406C
:1030F0008853000008600240046002400F4B10B586
:103100001A78002A00D010BD012404210C4A1C703A
:103110000C48002300F0E6FC112000F033FDFF22F4
:10312000094B11201A60094B1C60094B1A68094BA6
:103130001A60094B1C6000F05DFDE4E7802F002061
:10314000B93000006C2F00202C6002404C6002401F
:10315000885300000860024004600240FF2807D046
:10316000044B80005B681B181A68914200D01960FC
:103170007047C04610530000FF2803D0024B800068
:103180009B68C1507047C04610530000024B80003E
:103190009B68C0587047C0461053000070B50400CB
:1031A000FF2800D170BD00F037F8094EA500336844
:1031B0002000595900F0CCF873685B191A68002A8E
:1031C00001D000221A600022B3685A51EAE7C046D3
:1031D00010530000F8B50D4B1C680D4B1C60002C03
:1031E00012D01F2601250B4F2000FCF7DDFF2B001E
:1031F000301A83409C437B688200D358002B01D057
:10320000C0B29847002CEFD1F8BDC0465430024000
:103210006430024010530000FF2803D00123834094
:10322000014A13607047C04674300240F0B5DE4674
:1032300057464E464546E0B587B0FEF7EDFF354BA5
:103240001A78002A5ED101221A70FFF797F8002041
:1032500000F098FC03A8FFF743F82F4C1521E36812
:103260002E4A04932E4803ABFFF744F82D4B1978F0
:103270002D4B1878002398460193814247D8073395
:103280009C46033B0227994612E04D461D4206D05C
:1032900001258D40AA46454656463543A846234D4E
:1032A000AA4665465244AB431360013181422CD893
:1032B00023688A009B58002BF7DB1F42E5D10125CC
:1032C0008D40019E2E43012501961D40FF2908D007
:1032D000EDB2AA46164D5646AB468B445D462E705F
:1032E000DDE707229343134A13603200124B1A6042
:1032F0004246124B1A6007B0F0BCBB46B246A94624
:10330000A046F0BDFFF73AF8F5E7019AEEE71A009C
:10331000ECE7C046A02F002010530000D53100007C
:10332000842F002020530000215300000031004072
:1033300000310240FC34004000350240443002407D
:10334000024B9C4660440078C0B270470036024091
:10335000F0B500291CDBFF282ED0012407230E0026
:10336000250004229E43164B8540C3180A409B004B
:103370008F070FD40C4013498C46134960440470E6
:103380000D60002A0ED0114A1560114A15601E60AA
:103390000020F0BD002A09D10E4A15601E600E4BB8
:1033A0001D60F5E70B4A15601E60F1E7074A1560DE
:1033B000074A15601E60F2E701204042E9E7C04677
:1033C000400C0010003102401035024064300240D1
:1033D0006C300240743002402035024070B5040069
:1033E0000D00FF2815D00326FEF716FF0B4BE21841
:1033F000920091782B0CB14333400B439370FEF74E
:10340000BDFF0123A3406D0704D5054A1360054A9B
:10341000136070BD044A1360FBE7C046400C001007
:10342000643002406C30024074300240FF2805D006
:10343000034B9C46012360440B4003707047C04619
:103440000031024070B5002918DBFF282BD0174B44
:10345000C41801231D00A40085408E0710D4144E0B
:103460000B40B44660440370124B1D604B0712D4EE
:10347000114B1D600723994311432160002070BD4B
:103480004B070CD40C4B1D60072399430B4B114386
:1034900021601D60F2E70A4B1D600A4BE9E7084B0B
:1034A0001D60084BEFE701204042E8E7400C0010A8
:1034B0000031024010350240743002402035024095
:1034C000643002406C3002407047C04680230200E6
:1034D0001B0270B51A40184217D0284B284A802189
:1034E0001A600123274A89001360274A274813607E
:1034F000274A1160002227490A600132FF32026028
:103500000B60254B1A60002070BDC3051BD5234BF3
:103510001B68002B24DB95202149224E0C684000BB
:10352000A5190B6085421BD89D19854218D81B1B15
:103530009533834214D8802314489B0203601648B5
:1035400003600A60DFE780239B021842DBD0164A43
:1035500011680A290DD00A2111600F4A1360D2E7C1
:1035600000220C4B1A6001321A600B4BFF321A60BA
:10357000C9E70E4B0E4A01201A60C5E71012004041
:10358000020200001C120040C41000405410004011
:10359000181200400012004058100040081200406D
:1035A000A42F0020351DE9FFC01000409C100040F2
:1035B00080841E80024B1A68024B1A607047C04616
:1035C0004C2000405420004070B5F024FEF724FE4B
:1035D000A0230F4964050A681B0522409A4202D0C5
:1035E000FEF7CCFE70BD0B4E0B4B35681D408023A3
:1035F0001B022B433360094D094B1D600B682340B0
:103600009342FBD0064A13685B005B081360E7E750
:10361000F01000401C110040FF0FFFFF120001805E
:10362000A010004070B501251F4B1B681D4225D11D
:103630001E4C1F4B1F4E23604220B36C98471E4BFD
:10364000062023601D4C1E4B2360B36C984740221C
:103650001C4B1D491A6023682B4323602368AB432E
:1036600023600B681A42FCD0144A184913680B40B7
:10367000012113600C4A13680B431360FEF7CCFD65
:103680000221134A13680B431360124A5378013323
:10369000DBB25370FEF772FE80230A4A1B021360EE
:1036A0000D4A136070BDC04684100040A810004051
:1036B0000D0000804C00000F11000080A0100040A1
:1036C000000003805410004048100040FFFFFE7FC0
:1036D000683000206C30002058100040274B10B597
:1036E0001A687F2319001140120C13405B009942A5
:1036F00023D3234B1A68120B12073DD5214A1368B6
:103700005B005B081360204A13685B005B08136072
:1037100000231360EFF314821C4C226083F314889F
:103720001B4B00201B689847236883F31488FFF71E
:1037300079FF0122174B1A7010BD114A5B1A1268EB
:10374000120B092BD8D9102BD8D90C231342D5D062
:10375000012464420A4A1048136811681B041B0FB5
:103760001B191B0701401B0C0B43012113600B4A63
:1037700013688B431360C1E70124EBE7E8100040B6
:103780001C110040A0100040A8100040A82F0020ED
:103790004C00000F28050020FF0FFFFF84100040A1
:1037A0006F4B70B56F4A1C686F4B14601C608023B0
:1037B0001B021C426AD10A221500254022420BD16D
:1037C0000825254223D1694D2B68002B03D020000A
:1037D000984700282CD170BD012065490A688243B2
:1037E0000A60644964480A68520052080A606349E2
:1037F0000A6802401A430A60614A12681A4278D184
:10380000FFF710FF5F4B1D6008252542DBD0FEF758
:1038100003FD5D4A13685B005B0813608023116839
:103820001B060B431360FEF7A9FD564B1D60CAE74C
:103830000023012204212B60544B1A60544A136860
:103840000B431360534B1C68002C0DD01025A3684C
:103850002B4206D0002110202269E36898470028F7
:1038600002D12468002CF2D1FEF7D6FC4A4A5378E4
:10387000013BDBB253705378002B04D10221474A3D
:1038800013688B431360FEF779FDA4E78023444D52
:103890009B0213602800FEF735FF0022280000215C
:1038A000FEF76AFF334B3F4A3F4D1A602B68002BEF
:1038B00031D0984700232B600A231D002540234266
:1038C00000D17DE701212A4A13688B431360294AFE
:1038D0002A4913685B005B0813600A68264B1A408C
:1038E00080231B0213430B60FFF79CFE254B1D60DA
:1038F0008AE7FEF791FC284A5378013BDBB253700C
:103900005378002B04D10221244A13688B4313609F
:10391000FEF734FD74E71F4B1D68002D0DD00826FF
:10392000AB68334206D0002108202A69EB6898472B
:10393000002802D12D68002DF2D1FEF76DFC164A49
:103940005378013BDBB253705378002B04D1022132
:10395000124A13688B431360FEF710FDACE7C046B4
:103960004C100040541000405C10004074300020A7
:1039700084100040A0100040FF0FFFFF1C1100400A
:103980004410004058100040A4100040B010004007
:103990002C0000402C3000206C30002068300020CB
:1039A000C82F0020110003800C3000202D4B70B573
:1039B0001A78002A53D12C4A012451681C7008003F
:1039C000451EA841294B92681870294B2948196057
:1039D000294B13211A600023284AFEF78BFC822012
:1039E0000321C00001F04EFA254B264A13201A602D
:1039F000FEF72AFC00232021234A2448FEF77AFC04
:103A0000234B244A1C60244B24491C60244B1C601B
:103A100013681B0B1B0313600A68224B1A40802398
:103A20001B0213430B60FEF7D3FB0100FA2040009A
:103A3000FCF72EFB1C4C020000231C492000FEF763
:103A400005FFFFF7EFFD2000FEF720FE8023184A58
:103A50001B0611680B4313601022164B1A600020DE
:103A600070BDC046343000202453000035300020A3
:103A700038300020103000200C300020A13700002A
:103A8000581000400A800000B5350000AC2F00201F
:103A90005820004028110040602000401C110040C8
:103AA00060200240FF0FFFFFC82F0020C935000033
:103AB000A410004000580040014B18687047C046F1
:103AC00068300020054B10B51B68002B04D0044A59
:103AD0001278002A00D0984710BDC0463830002028
:103AE0003530002010B500280BD0002A09D0036122
:103AF000054B8160C26001001800FFF7A3FA0020A7
:103B000010BD03204042FBE72C30002010B5034BD2
:103B100001001800FFF7A8FA10BDC0462C300020A5
:103B200010B50400FEF778FB0123A340064A116894
:103B30000B431360054A135D0133DBB21355FEF7E7
:103B40001DFC002010BDC046683000206C300020F5
:103B500010B50400FEF760FB084A135D013BDBB2C1
:103B60001355135D002B05D10122A24004490B68B7
:103B700093430B60FEF702FC002010BD6C30002068
:103B80006830002070B50400FEF746FBFF232200DA
:103B90001B0205001A401C4212D1FF231248234089
:103BA000C15C4A1CD2B2C254002904D101229A40FD
:103BB00013000E4A13602800FEF7E0FB002070BDE2
:103BC00080235B009A42F6D10948013B2340C15C47
:103BD0004A1CD2B2C2540029EDD1012098400021E4
:103BE00080B201F049FAE6E74830002014000240B4
:103BF0003C30002070B50400FEF70EFBFF232200CE
:103C00001B0205001A401C4211D1FF22124922401A
:103C10008B5C013BDBB28B54002B03D1012393401F
:103C20000E4A13602800FEF7A9FB002070BD802318
:103C30005B009A42F6D1FF22094922408B5C013B8E
:103C4000DBB28B54002BEDD101209040002180B2DB
:103C500001F042FAE6E7C04648300020200002406A
:103C60003C300020024B1B685B0700D430BF70471C
:103C70006830002010B50124194B1A4A1C601A4BF9
:103C80001A60FEF7C9FA0221184A13680B43136041
:103C9000174A53780133DBB25370FEF76FFBFEF720
:103CA000BBFA144B1A68802311001B0219401A42F8
:103CB00012D1114B114A1A60114B023A1C60114B80
:103CC0001C60114B1A608023104A5B001160104980
:103CD0000B6014600F4A1360FEF750FB10BDC04626
:103CE00090100040CD340000743000206830002077
:103CF0006C3000204410004010120040020200000E
:103D00001C120040C4100040181200400012004075
:103D10005410004058100040F0B5C6460121040080
:103D2000374A00B5136886B08B431360354B1422B5
:103D30001D68354B354901A81E6801F065FA04215C
:103D4000334801F09FF82020FEF744FA314B324A05
:103D50001B681268E31AB93BDB089B182F4A1360F3
:103D60002F4B1C689846002C0DD00127A3683B42BE
:103D700006D0002101202269E3689847002806D177
:103D80002468002CF2D1FFF7A9FC002703E0254BA3
:103D90001F7001277F420123234A20201360234AFA
:103DA0001360234B1B68FEF715FA1B21184801F01E
:103DB00069F8204A1368012BFCD1142201A9134889
:103DC00001F022FA104B1E600E4B1D6001F0B4F999
:103DD00043461C68002C0DD00425A3682B4206D056
:103DE000002104202269E3689847002802D1246852
:103DF000002CF2D1380006B080BCB846F0BDC046F9
:103E000010E000E044200240442102404C210240E6
:103E100044040000042102401820004028200040F3
:103E20002C300020280500200C20004054200040A9
:103E30000020004040210240084B01201A68032363
:103E40001340012B00D07047054A06491268002034
:103E500009689201F7D5480C1840F4E7C0100040FB
:103E6000E010004048100040F8B5FEF7D5F90D4BC2
:103E700007001A78002A10D101321A700A4B1E78F6
:103E8000002E0AD00024094D2B68013428009B68BD
:103E9000E4B298470C35B442F6D13800FEF76EFA1A
:103EA000F8BDC046783000208453000078530000ED
:103EB0000B4B10B51B78002B0ED00A4B1B7883429E
:103EC0000AD900290AD04300074A1B189B009818FA
:103ED000D358DB68984710BD0020FCE70349F2E7A0
:103EE000783000208453000078530000E053000035
:103EF000020030B5034B32CB32C213CB13C203CB1B
:103F000003C230BDE053000010B503681B69984739
:103F100010BDC046FD2300214268D1547047C04601
:103F2000F0B5DE4657464E464546E423E0B5C35855
:103F300085B0082B00D97DE00023984601339B46CD
:103F4000C023C6580C33C35801969C4633689C4521
:103F50005ED262469B1A02928022D200934263D8BC
:103F6000D4228458002C6AD0D82283507268CC693D
:103F700092468D69002A69D047463D4ABF00D25912
:103F8000B946AA605A46029F7A43013A52440392C4
:103F90001F0042469740BA46039A52442A60096875
:103FA000344F0A005132FF326A60AA6892465A1EA4
:103FB00012013A4057461743AF60B5680392002D8F
:103FC0004ED04A462C4FBA585F46A260029A5743D9
:103FD00001225242B94692461F0042469740B846D7
:103FE000D1444D44454465604131FF312160A168B1
:103FF000039A0A43A260019A964202D1CC226344FA
:10400000835005B0F0BCBB46B246A946A046F0BD01
:104010007669002EF5D000220123029280223374AB
:104020003368D20093429BD91300D4228458002CC9
:104030009AD104E00123984601339B4680E78350E0
:1040400072684C6992460D69002A95D147460B4A21
:10405000BF00D259B946AA600200F6322A609EE734
:104060004A46064DAD58A5600500F4356560BBE7CE
:1040700030540000F03F000028540000205400009D
:10408000F8B53E23FB2784684668A26A17490500F5
:10409000E05CFFF7D7F9E26AF05D1449FFF7D2F967
:1040A000F923F35C626A012B0BD03C230221E05C14
:1040B000FFF7C8F93D23226AE05C0C49FFF7C2F91B
:1040C000F8BD3B33E05C0949FFF7BCF93D23226AA8
:1040D000E05C0221FFF7B6F9F05D0549FFF73EF815
:1040E0002900F05DFFF748F8EAE7C04602000460E7
:1040F0002944000010B540686C30FEF7DDF810BDB3
:104100000121F8B586684568336804000533FF333C
:104110001A6828008A431A60FEF774F828003030C5
:10412000FEF7C4F9F823EB5C002B22D03C23676830
:10413000A468E05CFFF732F83D23E05CFFF72EF85F
:104140003E23E05CFFF72AF8F923FB5C012B15D036
:10415000FB23F85CFF2801D0FFF720F8B08EFFF7B3
:1041600049FD28001C30FFF7D1FCFD230022EA5452
:10417000F8BD28006C30FDF763FFD7E7FA33F85C31
:10418000EAE7C046F0B54F464646D6460022002331
:10419000C0B582B0009201930E000B680121053377
:1041A000FF331A6807008A431A608022374C1201D5
:1041B00023681343236023681D0015401342FAD17E
:1041C000012133680533FF331A688A431A60326865
:1041D000536C5B0A5B02536433682D4A5A65063A96
:1041E000FF3ABA5C2B4B9200D4583F23F35CFF2B71
:1041F00002D0602323420FD06846FDF7E1FFE022A2
:10420000019BB95800205A088A4208D202B0E0BC8B
:10421000BA46B146A846F0BD403B1C43ECE73068C7
:10422000F926BE5D1C4AB600B25849009446F022F9
:10423000BE58421CFF32904612689146E422BF5895
:10424000D53A013F3A4092464A46144F17405246EB
:104250003A4322434446674622601022441D3A43B3
:10426000FF340D30FF302260070004681800FBF7B0
:104270000FFF0B4B0138984200D885B2094B012043
:104280001C4034432C433C60C0E7C046000103405F
:10429000FF010000385400005054000090FCFFFF64
:1042A000FE03000000FCF0FFF8B5446806008568D6
:1042B000FDF7B2FFC023E3580700002B00D1A1E0B7
:1042C000F822A25C002A06D11B7C033B012B02D9F9
:1042D000FEF754F8F8BD3A23E85CFDF7B1FFEA6851
:1042E0004D4B1A60F923E35C2A68002B06D11000BD
:1042F00010216130FF3003681942FCD10121531DA8
:10430000FF331A688A431A60AA68434B43491A600C
:104310002B681533FF331A680A401A60EA68AB68E5
:1043200013433F4A13602A68536C5B0A5B02536471
:104330002B683C4A5A65C023E1581033E2580433D5
:10434000E0580A60002809D06B699B689B049B0DAC
:104350000133984202D31218D21A0A60D823E058C7
:10436000002842D1B16870683A26FFF70BFFA85DBC
:10437000FDF730FFA85DFDF767FFC023E55800217A
:104380002B0002202E681A7C033A012A23D91874C4
:1043900019605B69002BF6D1C822A3582E60002B50
:1043A0002ED01A005B69002BFBD155610023C0227F
:1043B000A3500432A3500832A3500432A350043255
:1043C000A35004323800A350FDF7D8FF200030304E
:1043D000FEF7D8F87EE719605B69002BD3D1C822BD
:1043E000A3582E60002BDCD10AE0EB699B689B048C
:1043F0009B0D01339842B5D3C01A80180860B1E70D
:10440000A550D3E701212B680533FF331A688A438F
:104410001A60FDF7B3FF5DE72C600240FEFEFFFF70
:1044200004650240FF01000070B50400FEF7AEFE17
:10443000050046682000FEF783FF00280CD1FDF739
:10444000EBFEC023F3580400002B1DD001221A7488
:104450002000FDF793FF16E0FDF7DEFEFB230400CE
:104460000021F05CFEF7BAFFFC230122F2543C3B32
:10447000F358002B01D003321A742000FDF77EFFA1
:104480002800FFF711FF70BDFB230021F05CFEF751
:10449000A5FFFC230122F254DAE7C046F8B54546F1
:1044A000DE4657464E468468E0B522684568D36CC0
:1044B0005365C022A958BF3A1A420BD000296BD0CD
:1044C00003230B74FFF7F0FEF0BCBB46B246A946CF
:1044D000A046F8BDE268A36802261343754A13603C
:1044E000C02398461C3399464346E9580029EBD02F
:1044F0004B46EB582800002B49D0A269E36992464D
:10450000D8306C4AE7681268174209D05246926860
:10451000520705D1CC22AA5894460A6894456AD01D
:10452000072217009B681F40BA461A422BD1036826
:10453000002B28D0C932AF58BC466344AB50DC23B3
:104540009C46EB581F007B427B416746DB00EB51EA
:10455000534603600B68CC216958994202D3AA588C
:1045600093425FD921002800FFF7DAFC022223687A
:10457000FF321533FF3319680A431A60E268A368F3
:1045800013434D4A1360012E9ED00126ACE72269E9
:1045900063699246D430B4E7236848480533FF3353
:1045A00019689143196023681533FF331968014076
:1045B0001960E168A3680B4341490B60E168A36897
:1045C0000B433C490B6021684B6C5B0A5B024B64FC
:1045D00023683C49596523680533FF3319689143C3
:1045E00019608021384A090113680B43136013686E
:1045F0000B42FCD168E74A69002A91D18A277F00E3
:10460000BB46226893445A461768BC462F4FBA46A9
:104610006746524617403A005F463A60E268254FC7
:104620003A607DE7FDF7F8FDC023EA585346C821FC
:1046300013746B58002B2CD16A50C0235169E95078
:1046400000235361DC33EB58002B28D1D433EA58D4
:10465000CC23EA5000220433EA50FDF78FFEC0233A
:10466000EB58002B1ED021002800FFF759FC022236
:104670002368FF321533FF3319680A431A60E26872
:10468000A36813430C4A136028003030FDF77AFF0B
:1046900079E719005B69002BFBD14A61CDE7D8238C
:1046A000EA58D5E7236805491533FF331A680A40ED
:1046B0001A60E9E70465024028600240FEFEFFFF41
:1046C0002C600240FF01000000010340FFFEFFFFDD
:1046D000F8B50500140056689768012809D039001C
:1046E0003000FFF74FFDF923F35C012B22D00020AF
:1046F000F8BD3B680133FF331C68F923F35C002BE2
:1047000012D1FB33F05C0D49FEF722FE3C230C492D
:10471000F85CFEF71DFE3E23240A0A492540F85C9A
:104720002943FEF715FEE2E73D230649F85CFEF754
:104730000FFEDCE72000FFF7A3FCD8E70104002010
:104740000200046000040020F0B54F464646D646FD
:10475000C0B5836884B09846446805000E00FDF734
:104760005BFDFD23E75C9946002F00D083E0736971
:10477000083B082B00D97EE001234A46A354FDF7ED
:10478000FDFDE02332697169E2500433E150F92103
:10479000337B8A466354307801396054706810392D
:1047A0006050143167543C3967500431675004310C
:1047B0006750307E323160544146C88EF6216052D7
:1047C000591E8B410E215B428B431033DE31635007
:1047D000FE23E754334B93429B41F0225B421B0480
:1047E000A350FEF78BFC4346988EFFF7CBF91120C0
:1047F000FFF7C8F9A9686868FFF7C4FC071E49D02D
:104800003F234246D25CBC33E2545346E35C012B67
:104810003CD06846FDF764FD42463B230095D35CDF
:10482000414601933A23204AC95C20006B46FDF7BC
:1048300061FD6846FDF790FC434620005B686A46D0
:104840001A49303002930095FDF7C2FD20002B007D
:104850000521174A1C30FFF745F9F823E35C002BCC
:104860000DD0B368BC222800A35004B0E0BCBA4607
:10487000B146A846F0BDFDF781FD0020F5E7200018
:1048800000216C30FDF7C4FB0A4BEBE72800FFF773
:10489000F7FBBEE74346988EFFF7ACF94B46002086
:1048A000E754E2E7FF083D009D440000B9480000DE
:1048B000D1460000F5400000F0B54646D6464F46CA
:1048C000C0B580464668FDF7A7FCC823F45805002C
:1048D000002C22D000239A46144BC827994610E09A
:1048E0000120FFF735F92800FDF748FDBC23210022
:1048F0004046F3589847FDF78FFCF4590500002C0B
:104900000BD06369F351534663616368013B4B45C8
:10491000E6D80320FFF71CF9E2E72800FDF72EFD9B
:10492000E0BCBA46B146A846F0BDC046FEFFFF1F38
:104930002039F8B544688568072900D97DE0404BE7
:1049400089005B589F46C023E358002B67D0FE23A5
:10495000E35C002B63D001212B685A1DFF321668DF
:10496000314207D113680B431360F923E35C002B3A
:1049700052D02B6802221533FF331968FF320A43E5
:104980001A60EA68AB6813432E4A13600020F8BD32
:104990001378F922A25C002A41D10F2B3FD8F021D5
:1049A0001B0463502B6828480D33FF331A680240FC
:1049B0001A602B6861580D33FF331A680A431A6076
:1049C000E4E7F923E35C012B29D1FC22A354DDE7C2
:1049D000FB230021E05CFEF701FDFC230022E254F2
:1049E000D4E71678FF2E1DD1FB25605DFF28CDD0C2
:1049F000FEF7D4FBFF236355C8E7C023E358002B21
:104A00000DD10122FE33E254C0E7C023E358002B4E
:104A100005D1FE22A354B9E7FFF732FBA9E7012035
:104A20004042B4E7FB27E05DFEF7B8FBE6553000F7
:104A3000EA6A0649FEF706FDA8E702204042A6E71B
:104A40000054000028600240FFFFF0FF02000460F5
:104A5000F0B54E46DE4657464546E0B50B680600C3
:104A60000C0087B0002B07D1002007B0F0BCBB467C
:104A7000B246A946A046F0BD436887689846FDF750
:104A8000CBFBE4234246D3580500082B0CD9012365
:104A9000A2681A4205D0032328002374FDF76EFC98
:104AA000E2E762681A42F6D1C02243469B58002BC7
:104AB00000D1E7E0F8234246D35C002BEBD0C423BF
:104AC000D25854614246D450BE3B2374F633D35C73
:104AD00000226261012B00D1CAE06368D04A013B29
:104AE000934200D8AAE00120FFF71AF8F8234246C3
:104AF000D35C002B74D122683B6B9A4270D2FC23AA
:104B00004246D35C0293002B6AD1F933D35C002B6D
:104B100003D0E823D358013362D12800FDF72EFCDF
:104B2000B36872689946A36803929B46002B00D134
:104B30007EE1E423D3586768082B00D962E10123A2
:104B4000002F00D162E19A4602934B4601211B6877
:104B500025685A1DFF32106801420AD113680B43C1
:104B60001360F923039AD35C002B00D171E14B460B
:104B70001B68681E002D00D16FE11A006132FF3200
:104B8000944642468046200005924C460226042167
:104B9000624681460195E42503984059019D082805
:104BA0000AD98CE03A785133FF331A6023685744AE
:104BB0001A006132013DFF32002D02D0106806421A
:104BC000F0D110680142FCD15A464133FF331B68D3
:104BD0000195137023681A006132FF32049280E05D
:104BE0003B68904A74685A65C0233A685B00516C10
:104BF0000B435364B3689946D823E3589A46D423A9
:104C0000E358002B16D15346002B00D19AE04946B9
:104C10002000FFF785F901213A682800536C0B4307
:104C20005364FDF7ABFBF8234246D35C002B09D05D
:104C300001201AE75346002BE9D0ECE70320FEF7EA
:104C40006FFF50E74446E8336C342000D158FDF73D
:104C500009FB0028ECD04246C023D3580322300081
:104C60001A74FFF721FB00212000FDF7FBFAFBE699
:104C70004146FB330232CA54013BC85C6A49FEF725
:104C8000ADFB2AE741468C50C4228C5008328B5031
:104C900004328B5004328B5004328B50FC23CB5C9B
:104CA000002B4BD00522227412E73A885133FF3390
:104CB0001A60236857441A006132013DFF3294465E
:104CC000002D02D010680642EFD110680142FCD1DD
:104CD00060460490180001955D464130FF30006841
:104CE0002880029884464046E3440138804600D339
:104CF00051E7059B4C469846049B9C46EC23039A3F
:104D00006146D258102A15D00B681342FCD0636854
:104D1000434A013B93427FD90120FEF719FFC0228D
:104D20004346995800230B7441468B5004320120AE
:104D30008B509AE60B681A42FCD1E8E701226361C6
:104D40002274CAE63A339B464B465A46985CFDF7B6
:104D500077FA4B460221986800F03CFA4B46022154
:104D6000D86800F037FA4A463923506CD15C00F01D
:104D700083F84A463823106CD15C00F07DF84B462E
:104D80005A46985CFDF726FA4B465A46985CFDF762
:104D90005BFA49462000FFF7C3F8DC235246E25095
:104DA0001C3BE25880231268DB009A4225D8FE2380
:104DB000E35C002B00D02EE70122B36870681B680B
:104DC0000533FF3319680A4206D119680A431A608D
:104DD000F923C35C002B45D04B4602221B68FF32EF
:104DE0001533FF3319680A431A604B464A469B68DD
:104DF000D26813430D4A13600DE749462000FFF7C0
:104E00008FF8D4E70223002F00D09CE61700002281
:104E1000F6379246029398E60320FEF799FE7BE769
:104E2000FEFFFF1FFF010000040003002860024096
:104E3000F42113008C46676863449B46002F15D00D
:104E4000E423D258DC3B93429B415B4201339A46B8
:104E50007BE63000FFF714F989E6B0225200944651
:104E60009C444BE73000FFF70BF9B5E70023CDE793
:104E70000138FDD17047C046014BC3181960704717
:104E800000500240024B9C46604401607047C0469F
:104E900000500240FEE7C046094B70B59A68094EC3
:104EA000964209D09A68002320CA9C0001333551EC
:104EB000232BF9D1024B9E608000315070BDC0465B
:104EC00000ED00E000000020024B034A8000C250C9
:104ED0007047C04600000020954E00003F23F0B50B
:104EE00099430F281BD80400FF25083C3C3B234076
:104EF000DB009D40A2080F283BD11F4802268446B4
:104F000099401E489200076804686244B4430460F4
:104F10001468AC43214311603E421DD1F0BD032310
:104F2000FF2510380340DB009D4082081F2817D85A
:104F3000134C9940A4460124844020008024114E43
:104F400092003768624430511468AC4321431160C9
:104F50003842E3D03060E1E7036833430360DDE7C4
:104F600007489940920082181068A84301431160D5
:104F7000D4E70148F5E7C0461CED00E010E000E092
:104F800000E400E000E100E00F2807D010381F28FF
:104F900003D801238340044A136070470221034A67
:104FA00013680B431360F8E700E100E010E000E055
:104FB0000F2808D010381F2804D8012380228340EE
:104FC00004498B5070470221034A13688B431360D6
:104FD000F8E7C04600E100E010E000E00300103B0D
:104FE0001F2B09D801229A40130080221049520039
:104FF0008B50BFF36F8F704702280AD00E280FD056
:105000000F28F6D180230B4ADB0451680B43536011
:10501000EFE78023074A1B0651680B435360E8E71C
:105020008023044A5B0551680B435360E1E7C046A7
:1050300000E100E000ED00E00E2812D00F2809D0BA
:1050400010381F2805D80123C02283400849520088
:105050008B5070478023074A9B0451680B43536071
:10506000F7E78023034A1B0551680B435360F0E7C1
:1050700000E100E000ED00E0124A012903D84900F8
:10508000535A18435052138852880F49134302222F
:105090000868024209D00121180088430B490860C2
:1050A000002B01D10A4B1A607047002BFCD0094835
:1050B000026002200A681042FCD001229343034A96
:1050C0001360F1E77C3000200C000240040008402F
:1050D0002000024014000240124A012903D849006E
:1050E000535A83435352138852880F491343022261
:1050F0000868024209D00121180088430B49086062
:10510000002B01D10A4B1A607047002BFCD00948D4
:10511000026002200A681042FCD001229343034A35
:105120001360F1E77C3000200C00024004000840CE
:1051300020000240140002400F4A10491388528890
:10514000086813430222024209D001211800884353
:105150000B490860002B01D10A4B1A607047002BE5
:10516000FCD00948026002200A681042FCD00122EB
:105170009343034A1360F1E77C3000200C000240A7
:105180000400084020000240140002409C22CC236E
:10519000D2059B00D35C032B0BD9084B1B78DBB2E9
:1051A000FC2B05D9064B074A1A60074B074A1A60C1
:1051B0007047074B1B78DBB2F2E7C0462F03004E67
:1051C00018110040E3887F091C110040E3387F4933
:1051D000AF03004ECB0701D5074B18600B0701D575
:1051E000064B18608B0701D5054B1860490701D5A0
:1051F000044B18607047C0461C60024024600240A7
:10520000346002403C600240002310B59A4200D155
:1052100010BDCC5CC4540133F8E7030082189342FC
:1052200000D1704719700133F9E770B50D000968B6
:105230000400002901D0FFF7F8FF29002000FDF746
:1052400048FC70BD314B70B51B680400834249D0E7
:10525000436A002B0AD00025DB68AB4247D1636A62
:105260001968002902D02000FDF733FC616900298C
:1052700002D02000FDF72DFC616A002902D0200039
:10528000FDF727FCA16B002902D02000FDF721FCCF
:10529000E16B002902D02000FDF71BFC216C0029E6
:1052A00002D02000FDF715FCE16D002902D020009E
:1052B000FDF70FFCA16D002902D02000FDF709FCCD
:1052C000616B002902D02000FDF703FCA369002BCD
:1052D00008D02000A36A9847A16C002902D02000C2
:1052E000FFF7A3FF70BD4959002908D10435636A4F
:1052F000D968802DF7D12000FDF7EBFBAFE70E68F2
:105300002000FDF7E6FB3100EEE7C0462C0500204B
:10531000A004002040330020A8340020FFFFFFFF3E
:105320000019000000000000A52800000000000097
:105330000000034000000000020000000100000027
:1053400000040020100400208004002090040020AD
:105350000100000002000000040000000000000046
:10536000020000000A00FF0000011AFF0D0C12FFEE
:10537000000C0000040C000058540000A83300206A
:105380003053000001000000000400204C1D00000C
:10539000881D0000881D0000D61D0000E21D0000D1
:1053A000FE1D0000881D0000881D0000D61D0000A5
:1053B000E21D0000546D72205376630049444C4551
:1053C0000000000078000000000000000000000065
:1053D000FFFFFFFF000000000000020202000000CB
:1053E00000000000FFFFFFFF0000000000000000C1
:1053F00040420F0008000000000000000000000014
:10540000C2490000D0490000E2490000E84900001C
:10541000FA4900000A4A000046490000904900008D
:10542000038000CC038000DD0380000C0380005D5E
:10543000038000C0038000D50000000000020000CF
:1054400000010000000300004000000060000000B8
:10545000040000000000000001410000314900008C
:10546000153F000049470000514A0000A9420000D2
:10547000000000000000000000000000000000002C
:10548000000000000000000000000000000000001C
:10549000000000000000000000000000000000000C
:1054A00000000000000000000000000000000000FC
:1054B00000000000000000000000000000000000EC
:1054C00000000000000000000000000000000000DC
:0854D0004006080080060800F8
:1054D8000108002001080020010800200200000047
:1054E8000200000002000000010400200200000089
:1054F80002400460020000000200000002000000F8
:105508000200046000040020020000000220046081
:10551800000000800000008000040020000400203B
:105528000200000001040020020000000004002026
:105538000240046000040020110000000100000087
:10554800000000000004000000000000000000004F
:1055580009000000AAAAAAAA01000000300500203C
:105568000000000090540000B05400007054000087
:105578000000000000000000000000000000000023
:105588000000000000000000000000000000000013
:105598000000000000000000000000000000000003
:1055A80000000000000000000000000000000000F3
:1055B80000000000000000000000000000000000E3
:0855C800ACACFF7F0100000004
:020000044E02AA
:10000000FFFFFFFF0000000000000000FFFFFFFFF8
:10001000FFFFFFFFFFFFFFFFAAAAAAAA0000000040
:10002000FFFFFFFFFFFFFFFF00000000FFFFFFFFDC
:1000300000000000000000F00000000000000000D0
:1000400000000000000000000000000000000000B0
:1000500000000000000000000000000000000000A0
:100060000000000000000000000000000000000090
:100070000000000000000000000000000000000080
:10074000000000000000000000000000B7DF14B748
:100750000000000000000000000000000000000099
:100760000000000000000000000000000000000089
:100770000000000000000000000000000000000079
:100780000000000000000000000000000000000069
:100790000000000000000000000000000000000059
:1007A0000000000000000000000000000000000049
:1007B0000000000000000000000000000000000039
:1007C0000000000000000000000000000000000029
:1007D0005AA500000101020305080D156DD7E43686
:1007E000EBF431DF95AE15EE03BA8EE4C4C63FD804
:1007F000453F675E74D7C2012C9058E5A2947252AF
:04000003000006A152
:00000001FF
