:1000000080400020A1060000B1060000B1060000FB
:10001000B1060000B1060000B1060000B106000004
:10002000B1060000B1060000B1060000652D000019
:10003000B1060000B1060000C12D0000052E000031
:10004000B1060000B1060000B1060000B1060000D4
:10005000B1060000B1060000B1060000B1060000C4
:10006000B1060000B1060000B1060000B1060000B4
:10007000B1060000B1060000B1060000B1060000A4
:0C008000B1060000B1060000B10600004F
:10009000002243088B4274D303098B425FD3030AC7
:1000A0008B4244D3030B8B4228D3030C8B420DD3DA
:1000B000FF22090212BA030C8B4202D31212090268
:1000C00065D0030B8B4219D300E0090AC30B8B42A6
:1000D00001D3CB03C01A5241830B8B4201D38B0354
:1000E000C01A5241430B8B4201D34B03C01A5241F9
:1000F000030B8B4201D30B03C01A5241C30A8B423C
:1001000001D3CB02C01A5241830A8B4201D38B0226
:10011000C01A5241430A8B4201D34B02C01A5241CA
:10012000030A8B4201D30B02C01A5241CDD2C3093C
:100130008B4201D3CB01C01A524183098B4201D3B8
:100140008B01C01A524143098B4201D34B01C01AA3
:10015000524103098B4201D30B01C01A5241C3081B
:100160008B4201D3CB00C01A524183088B4201D38A
:100170008B00C01A524143088B4201D34B00C01A76
:100180005241411A00D20146524110467047FFE7E2
:1001900001B5002000F006F802BDC0460029F7D0E6
:1001A00076E770477047C0461C2101231B04984224
:1001B00001D3000C10391B0A984201D3000A0839F8
:1001C0001B09984201D30009043902A2105C4018AF
:1001D0007047C04604030202010101010000000053
:1001E00000000000002B11D1002A0FD1002900D1FE
:1001F000002802D00021C943081C07B4024802A10C
:100200004018029003BDC0469DFFFFFF03B468463F
:1002100001B5029800F02EF8019B9E4602B00CBC7E
:100220007047C046F0B515042D0C0F0001002E00DC
:10023000C64684460004140C000C090C46434D438A
:10024000604361434019340C241800B5A54203D91A
:100250008020400280464144250C6D186146594378
:100260007A43300449192404000C2018891880BCF2
:10027000B846F0BDF0B557464E464546DE46E0B5B9
:1002800004000D009246994683B08B4230D82DD0A1
:100290004946504600F0BAF829000600200000F058
:1002A000B5F8331A9846203B9B4633D45A465346FA
:1002B000934042461F00534693401E00AF423AD837
:1002C000AF4200D178E05B46A41BBD41002B00DAB1
:1002D00075E0002200230092019301235A469340C7
:1002E0000193012342469340009328E08242CFD9F4
:1002F00000220023009201930C9B002B01D01C6074
:100300005D600098019903B0F0BCBB46B246A946B7
:10031000A046F0BD424620239B1A5246DA40414691
:1003200013004A468A40170042461F4353469340F3
:100330001E00AF42C4D9002200230092019343461D
:10034000002BD9D0FB0772081A4346467B080EE003
:10035000AB4201D1A2420CD8A41A9D41012024191C
:100360006D410021013E24184D41002E06D0AB42C4
:10037000EED9013E24196D41002EF8D10098019963
:100380005B4600196941002B24DB2B005A4644468A
:10039000D3402A00E2401C005B461500002B2ADBFC
:1003A00026009E40330026004746BE403200801A99
:1003B0009941009001919FE7A342BCD883E7424650
:1003C000202300219B1A0022009101920122DA4091
:1003D000019286E7424620239B1A2A0046469A400D
:1003E0002300F340444613432A00E2401C005B46CE
:1003F0001500002BD4DA42462F0020232600974018
:100400009B1ADE403B003343CDE7C04610B50029C0
:1004100003D1FFF7C9FE203002E0081CFFF7C4FE3D
:1004200010BDC04670B505000021062003F0C4F8D9
:10043000002415E00021122003F0BEF807231B1B47
:100440002A001A41012111400D2003F0B5F80121C5
:10045000122003F0B1F8082005F08AFD0134E4B25F
:10046000072CE7D90021122003F0A6F8012106206D
:1004700003F0A2F8AF20800005F07AFD70BD000007
:1004800010B50A49062003F029F80021062003F0E0
:1004900093F8012005F06CFD0121062003F08CF893
:1004A0008C20800005F064FD10BDC04601040020D2
:1004B00010B5FFF7E5FF1049062003F00FF80F4CC9
:1004C0002100122003F00AF821000D2003F006F8A5
:1004D0000B490C2003F002F8B920FFF7A3FF062018
:1004E00002F022FF122002F01FFF0D2002F01CFF7D
:1004F0000C2002F019FF10BD0104002000040020B0
:10050000022004607047000010B503F015FB03F0F3
:1005100077FC074A136801218B430B43136002F0F9
:100520004BFF02F0B1FEFFF7C3FFFFF7EBFF10BD7B
:10053000140000400300406A002803D01B6B1B68B6
:100540000A20C01A704700000B4B1B68002B00D01C
:1005500001230A4A1268D06A00280BD1084A12689F
:10056000012A08D8002B06D1064B1868064B1B68D9
:10057000C01A00E000207047C42E0020940800201C
:10058000AC080020E42F002090300020084B1B68AE
:100590001B68002B04D1074B012252421A6070479E
:1005A000034B1B68DB681A68024B1A60F7E7C0460A
:1005B0009C080020E42F0020074B1A681368002BCA
:1005C00006D101330360002B04D1D368186870474B
:1005D0000023F7E70020FAE798080020104A5307A5
:1005E0001BD0D11D0723994380239B015B1A9B18C5
:1005F0000A000C48026000214160D318083B072024
:1006000083430948036059601960991A5160136067
:10061000064B1960064B1960704780239B01E8E781
:100620007409002010300020A0080020E02F0020D6
:10063000182F002010B5124B1A001B688342FBD301
:1006400051685418844208D041684418A34209D024
:100650000360904200D0106010BD406809185160DE
:100660001000F1E7074C2468A34206D05B68C91864
:10067000416013681B680360EBE70460E9E7C0466C
:1006800010300020A00800200200032308200028CA
:1006900005D0024202D1013B4010F8E71800704734
:1006A00002480068854602F0C9F900000000000019
:1006B00072B6FEE710B5074B5A68FF2313409B0044
:1006C000054A9B58002B04D098685B68984702F055
:1006D0004BFB10BD00ED00E0B407002010B5040096
:1006E00002F04EFBA26BE36B9A4204D0002402F0AE
:1006F00053FB200010BD0124F9E710B5040002F0FF
:100700003FFBA36B002B04D1012402F045FB20002A
:1007100010BD0024F9E710B5030008001A6C002A88
:100720000AD0D9688918D9609C68A14201D3196898
:10073000D960D96805F046FE10BD03000833436058
:10074000012252428260C36003610023036070474C
:1007500070B50024092C08D8A3001B1998000E4B73
:10076000C018FFF7EAFF0134F4E70C4D2800FFF74B
:10077000E4FF0B4C2000FFF7E0FF0A48FFF7DDFF26
:100780000948FFF7DAFF0948FFF7D7FF084B1D605C
:10079000084B1C6070BDC046AC080020F02E002045
:1007A000042F0020F82F00207C300020683000202B
:1007B0009C080020A408002010B5040002F0E0FA14
:1007C000284A136801331360274B1B68002B0CD099
:1007D000264B1B68002B0DD1234B1B68DB6AE26A9A
:1007E000934207D8204B1C6004E01F4B1C60136829
:1007F000012B31D01E4A1368013313606364E26A2F
:100800001C4B1B689A4201D91A4B1A601A49930073
:100810009B189B00CB185B68A3609868E060221D62
:1008200042609A60E06A83001A189200521862616E
:100830001A189200525801321B189B005A5002F0AD
:10084000ABFA0A4B1B68002B05D0074B1B68DA6A12
:10085000E36A9A4203D310BDFFF77AFFCAE702F0BA
:1008600083FAF8E7B42A0020940800200C30002016
:10087000C02C0020C42E0020AC08002000230361FF
:1008800070470000F8B5D6464F4680B581460F0048
:1008900016009A46089D0A9C9200A521206B05F03F
:1008A0009AFD234BF2189200236B9C466244072367
:1008B0009A4316002264002F0ED000220B2A08D87B
:1008C000B95CA31834331970BB5C002B01D0013222
:1008D000F4E73F230022E254092D00D90925E562FF
:1008E000E564201DFFF7CAFF20001830FFF7C6FFA0
:1008F00024610A235D1BA5616462200058306022D8
:10090000002105F068FD0B4BE3650B4B23660B4B99
:10091000636652464946300002F014FA2060099B93
:10092000002B00D01C60C0BCBA46B146F8BDC04622
:10093000FFFFFF3FEC6600000C670000CC66000084
:1009400043684B609A688A605160996008610368E7
:1009500001330360704730B50C68631C10D003008E
:1009600008331A005B681D68A542FAD953684B60CA
:1009700099608A605160086103680133036030BD8B
:100980000269F3E710B54160006191420CD8D21AB8
:1009900083699A4201D3012010BD011D094B1868DB
:1009A000FFF7D9FF0020F7E79A4201D2994206D219
:1009B000011D054B1868FFF7CEFF0020ECE7012072
:1009C000EAE7C046A80800209808002070B5040097
:1009D0000D001600A36959192B0032002000FFF703
:1009E000D1FF002806D0A3699C4665442000236AF5
:1009F0009847EFE770BD0369416882688A60416883
:100A000051605A68824206D0002202611A68013A97
:100A10001A601868704782685A60F5E770B504007C
:100A20000D001D4B1E681D4B18680430FFF7E3FFD7
:100A3000631C0DD03419194B1B685C60A6421DD98C
:100A4000174B1868154B19680431FFF784FF70BD08
:100A5000002DEFD0134A5168104B18688160186858
:100A60008C68C4601868043060601868043088605E
:100A70001B685A61136801331360E8E70A4B186872
:100A8000064B19680431FFF766FF084B1B68A34249
:100A9000DDD9064B1C60DAE7903000209408002076
:100AA000A4080020683000209C080020E42F0020CB
:100AB00070B505000E000C4B1B68DB68DC68201D60
:100AC000FFF799FF2823E35C5A0707D401229343D9
:100AD0002732A354236A2000984770BD32002900B2
:100AE0002000FFF773FFF5E79808002010B5094BC9
:100AF0001B681A68002A06D0DB6818680121494281
:100B0000FFF7D6FFF3E7044A024910680860136054
:100B100010BDC04698080020A8080020F0B589B094
:100B200005000E0017000593109C002C1DD00F9A95
:100B3000002A1AD0C0220021200005F04CFC0F9A98
:100B40002263BD230222E25400230393029407ABE5
:100B500001930E9A0092059B3A0031002800FFF79E
:100B600091FE2000FFF728FE01E00023079307987D
:100B700009B0F0BD024A1368013313607047C046E4
:100B8000BC2C0020014B18687047C04690300020F4
:100B900070B50500FFF7F6FF0400074B1B688342A2
:100BA00005D800232B60044B1C60200070BDFFF7AC
:100BB0009DFF01232B60F6E7DC2F0020014B186816
:100BC0007047C046B42A002010B504000A4B1B68C9
:100BD0001B180A4A1268934204D0074B186804197C
:100BE0001C6010BD02F0CCF8054A13680133136095
:100BF00002F0D2F8013CF0E790300020E42F002012
:100C0000F42F0020F8B5454B1B68002B7FD1444BD7
:100C10001E6801361E60002E0AD0424B1B68B3428C
:100C200013D90020404B1B68002B75D0012073E0C6
:100C30003E4A11683E4B1868106019603D4A1368BF
:100C400001331360FFF7A2FCE7E7002036E0354BE5
:100C5000012252421A60E5E7324B1A60E2E7D96896
:100C6000516041E0196A51600021996211680139AF
:100C70001160DA6A304909688A4201D92E490A604E
:100C80002E499400A418A2008A1852689A609468A9
:100C9000DC6065609560DC6AA2001719BD006D1804
:100CA0005D611719BD002F006D5801357D50DA6A5E
:100CB000234B1B68DB6A9A4200D901201B4B1B683F
:100CC0001B68002BC3D0194B1B68DB68DB685A68B4
:100CD0009642C1D35A699C68D968A1609C684C60EF
:100CE0001D1D5168A942BAD000215961116801390E
:100CF00011609A6A002ABCD0DC69196AA160DC69BB
:100D00004C601900183154688C42ADD1AAE70D4AE5
:100D10001368013313600020F8BDC046BC2C0020CE
:100D200090300020E42F00205C3100209C0800203F
:100D3000A4080020E82F0020C42E0020AC080020CA
:100D400094080020F42F002010B502F019F8434B4E
:100D50001A68013A1A601B68002B7AD1404B1B6855
:100D6000002B07D1002475E0196A516015E0D9689D
:100D7000516021E000233B4A1268002A4AD0394BD7
:100D8000DB68DB689A6AD869196A8160D86948604B
:100D90001900183150688842E6D000219962116824
:100DA000013911605A699868D9688160986848600B
:100DB0001C1D5168A142DAD0002159611168013926
:100DC0001160D96A284A1268914201D9264A1160F5
:100DD00026488A0052189200821852689A609168D8
:100DE000D9604C609460DC6AA2001119890009186E
:100DF00059611119890009580131121992001150D5
:100E00001B4A1268D26AD96A9142B4D3194A0121A5
:100E10001160B0E7002B01D0FFF7B8FB164B1C6840
:100E2000002C0AD1134B1C68002C13D001F09CFF3E
:100E300001240FE0013C002C07D0FFF7E3FE00285F
:100E4000F8D00C4B01221A60F4E70B4B00221A6019
:100E5000E8E7002401F0A0FF200010BDBC2C00201A
:100E6000B42A0020F82F0020C42E0020AC08002057
:100E7000940800205C310020F42F002010B5041EDF
:100E800009D0FFF777FE00212000FFF7C7FDFFF72D
:100E90005BFF002801D101F067FF10BD70B50400B1
:100EA0000D00002805D001F06BFF656501F074FFAF
:100EB00070BD014B1C68F6E79408002010B5041EB5
:100EC00006D001F05DFF646D01F066FF200010BDEB
:100ED000014B1C68F5E7C0469408002010B50C00D3
:100EE000044B19681831FFF736FD01212000FFF788
:100EF00095FD10BD9408002070B503000800110096
:100F00005A680C4C2568EA61256896682E62256847
:100F100018357560256818359560226893621A68DF
:100F200001321A60002901D001204042FFF776FD0E
:100F300070BDC0469408002010B5C368DC68A36A81
:100F4000E169226A8A60E1695160210018315A68BA
:100F50008A4243D00022A2621A68013A1A60294BE1
:100F60001B68002B40D16369A168E2688A60A168B0
:100F70005160201D5A68824233D0002262611A6893
:100F8000013A1A60E26A204B1B689A4201D91E4B53
:100F90001A601E4993009B189B00CB185B68A360E6
:100FA0009A68E26050609860E06A83001A189200C4
:100FB000521862611A189200525801321B189B0095
:100FC0005A50FFF7E3FAE26A114B1B68DB6A9A4258
:100FD00016D9104B01221A60012010BD226A5A60F6
:100FE000B8E7E2685A60C8E70B4B5A68E26190685C
:100FF000206241609160A3621A6801321A60E2E7E0
:101000000020EAE7BC2C0020C42E0020AC08002001
:10101000940800205C310020F82F0020F8B504006F
:101020000D00002852D0C36B002B51D0016C00265C
:101030000F0C1A0C002F13D190B2002803D1002EF0
:1010400014D0002045E0081C89B29BB24B4381B20A
:1010500090B248431B0CC3181B0CF0D00126EEE7DE
:1010600092B2002AFAD13A1C181CEDE701F088FE72
:101070002268E36B206C010059435118A1600021E4
:10108000A1636260013B4343D318E360FF23442222
:10109000A3540132A354002D0FD12369002B03D197
:1010A00001F07AFE012014E020001030FFF744FF29
:1010B0000028F5D001F058FEF2E720001030FFF7CD
:1010C0003CFB20002430FFF738FBE9E7002000E07C
:1010D0000020F8BD70B51D00049C002909D12460D2
:1010E000E063216401212000FFF798FF4C23E554C1
:1010F00070BD2260F4E770B582B01C0006AB1B78AF
:10110000002814D0002C14D0002A01D0002912D0BD
:10111000002A08D04625012666550094FFF7DAFF1D
:10112000200002B070BD0029F4D01000F9E70020C3
:10113000F7E72000F5E70020F3E7000030B583B0C3
:1011400001F01EFE0F4B1B68002B03D001F024FEA4
:1011500003B030BD0C4D2800FFF7EFFA0B4C200018
:10116000FFF7EBFA0A4B1D600A4B1C60002300934B
:10117000094B0A4A10211420FFF7BDFF014B1860EC
:10118000E4E7C04694300020C82E0020DC2E00206A
:1011900098080020A808002018300020742900209A
:1011A000F8B504000E0001F001FE0500A36BE26B30
:1011B0009A4221D94522A75C7FB20133A3637B1CED
:1011C00010D1636A002B01D1012416E020002430E5
:1011D000FFF7B2FE002815D0002E15D00123336092
:1011E00001240AE0FFF7EAFC87420FD201377FB201
:1011F0004523E754012400E00024280001F0DAFD33
:101200002000F8BD0124F8E70124F6E70124F4E703
:10121000F0B583B004000091019201F0C7FD050014
:10122000A66B002E06D10024280001F0C3FD20008B
:1012300003B0F0BD4423E75C7FB200992000FFF7C4
:101240006AFA731EA3637B1C11D12369002B01D1A1
:101250000124E9E720001030FFF76EFE002810D0CF
:10126000019A002A0FD0012313600124DCE7FFF765
:10127000A5FC874209D27B1C5BB24422A354012403
:10128000D2E70124D0E70124CEE70124CCE7000017
:10129000034B1B680360034B1B6843607047C046E9
:1012A000E82F002090300020F8B504000D0001F078
:1012B00067FD124B19686368C81A2A68561C18D053
:1012C0000F4E36682768B74205D08B4203D80023FB
:1012D0002B6001240EE0824203D800232B600124FE
:1012E00008E05B1A9B182B602000FFF7D1FF002459
:1012F00000E0002401F050FD2000F8BD90300020F7
:10130000E82F0020014B01221A6070475C31002059
:1013100070B5050001F034FD4523EC5C64B203E0D8
:10132000FFF7F0FF013C64B2002C09DD6B6A002B73
:1013300006D028002430FFF7FFFD0028F2D0EFE7A9
:101340004523FF22EA5401F027FD01F019FD442353
:10135000EC5C64B203E0FFF7D5FF013C64B2002C03
:1013600009DD2B69002B06D028001030FFF7E4FDC3
:101370000028F2D0EFE74423FF22EA5401F00CFDED
:1013800070BDF0B585B004000D000192002737E074
:1013900029002000FFF7BFF9013EA6632369002B57
:1013A00004D101F0F9FC012005B0F0BD200010309F
:1013B000FFF7C2FD0028F4D001F0D6FCF1E701F000
:1013C000EBFC0020F0E702A8FFF762FF013721E005
:1013D00044230022E25428E045230022E25429E07D
:1013E0002000FFF795FFFFF7AFFC09E02000FFF7B3
:1013F0008FFFFFF7A9FC2000FFF77FF9002835D108
:1014000001F0BEFCA66B002EC2D1019B002BD6D0F2
:10141000002FD8D001F0C0FCFFF7ACFB01F0B0FC0E
:101420004423E35C5BB20133D2D04523E35C5BB27F
:101430000133D1D001F0B0FC01A902A8FFF734FFBD
:101440000028D3D12000FFF758F90028C8D0200089
:1014500024300199FFF742FD2000FFF759FFFFF705
:1014600073FC0028CCD101F07FFCC9E700209BE78A
:1014700070B504000D00160001F082FC4423E35C0B
:101480005BB201330DD04523E35C5BB201330CD07A
:1014900001F082FCA36B002B0BD02000FFF738FF7C
:1014A00070BD44230022E254EDE745230022E254BC
:1014B000EEE72000243032002900FFF71DFDECE7A5
:1014C00070B582B004000D00FFF754FB01A8FFF7D0
:1014D0005FFB0600019B002B23D1002D01D1A04210
:1014E00013D2002D05D0104A12681268002A13D1B9
:1014F0000125A11B0D4B18682A00FFF7B9FFFFF764
:1015000023FC00280AD002B070BDFFF71DFC31009B
:101510002000FFF7CDFAF6E71D00EAE701F024FC12
:10152000F1E7FFF711FCEEE7A80800209430002057
:101530000E4B1B68002B10D10D4B1B68002B0ED1DE
:101540000C4B1B68002B0CD10B4B1A680B4B1B6808
:10155000013B9A4207D0012000E0002070470020A4
:10156000FCE70020FAE70220F8E7C046F82F002049
:101570005C310020F42F002068300020B42A0020C5
:10158000014B18687047C04694080020064B1B6842
:10159000002B07D0054B1B68002B01D0002002E078
:1015A000022000E0012070470C300020BC2C0020FD
:1015B00070B5041E4CD0C26A274B1B68DB6A9A4286
:1015C0003ED28369002B05DB234B1B68D96A0A23B3
:1015D0005B1A836193009B189B00204A9B186269E9
:1015E0009A4205D01C4B1B68DB6AE362012030E0A5
:1015F000251D2800FFF7FFF9174B1B68DA6AE26226
:10160000174B1B689A4201D9154B1A601349930076
:101610009B189B00CB185B68A3609A68E2605560DA
:101620009D60E06A83001A189200521862611A18CD
:101630009200525801321B189B005A50012008E0BA
:10164000C26C054B1B68DB6A9A4203D3002000E0A2
:10165000002070BD0120FCE794080020AC080020A9
:10166000C42E002070B5041E33D0036D013B03650A
:10167000C26AC16C8A422ED0002B01D0002070BDFE
:10168000051D2800FFF7B7F9E26CE2620A239B1AF6
:10169000A361124B1B689A4201D9104B1A60104982
:1016A00093009B189B00CB185B68A3609A68E2606C
:1016B00055609D60E06A83001A18920052186261BA
:1016C0001A189200525801321B189B005A500120E0
:1016D000D5E70020D3E70020D1E7C046C42E002084
:1016E000AC08002070B504001500866B026C002A5F
:1016F0000CD10368002B03D000200136A66370BD17
:101700008068FFF7AFFF0023A360F6E7002D0ED13E
:10171000406804F057FE6368226C9446634463603B
:10172000A26893421BD3236863602800E5E7C06882
:1017300004F048FE236C5A42E168CB1AE36021684A
:101740008B4203D2A3689C466244E260022D01D022
:101750000020D2E7002E04D0013E0020CDE7280073
:10176000CBE70020C9E7F0B585B004000D00019279
:101770001E00002730E0320029002000FFF7B2FFF2
:10178000636A002B06D100280DD101F005FB012072
:1017900005B0F0BD20002430FFF7CEFB0028F4D0C8
:1017A00001F0E2FAF1E701F0DFFAEEE701F0F4FA16
:1017B0000020EDE702A8FFF76BFD013719E0442395
:1017C0000022E25420E045230022E25421E02000E0
:1017D000FFF79EFDFFF7B8FA01F0D2FAA36BE26BB8
:1017E0009342C8D3022EC6D0019B002BDED0002F1F
:1017F000E0D001F0D1FAFFF7BDF901F0C1FA4423BE
:10180000E25C52B2531CDAD04523E25C52B2531C64
:10181000D9D001F0C1FA01A902A8FFF745FD0028BF
:1018200013D12000FEF75AFF0028D0D0200010303E
:101830000199FFF753FB2000FFF76AFDFFF784FAD9
:101840000028C9D101F090FAC6E72000FFF760FD3B
:10185000FFF77AFA00209BE770B5041E09D0C36C2D
:101860008B4200D20B00E26A9A4202D0216D01291C
:1018700000D070BDE362A169002902DB0A21CB1A06
:10188000A36193009A189200144BD2186369934293
:10189000EFD1251D2800FFF7AEF8E26A104B1B6858
:1018A0009A4201D90E4B1A600C4993009B189B0079
:1018B000CB185B68A3609A68E26055609D60E06A3F
:1018C00083001A189200521862611A189200525836
:1018D00001321B189B005A50CBE7C046AC080020D1
:1018E000C42E0020054B1B68002B04D0034B1A6844
:1018F000136D01331365014B18687047940800207D
:1019000070B584B0040001910025002643E0013B3E
:10191000A3632368002B07D02369002B08D101F0B3
:101920003BFA012004B070BDFFF7DCFFA060F3E7D5
:1019300020001030FFF700FB0028F0D001F014FA6F
:10194000EDE701F029FA0020ECE702A8FFF7A0FC80
:1019500001362AE044230022E25431E045230022EC
:10196000E25432E001F00CFAA068FFF721FE050016
:1019700001F012FA39E02000FFF7CAFCFFF7E4F9A2
:1019800009E02000FFF7C4FCFFF7DEF92000FEF7B6
:10199000B4FE002838D101F0F3F9A36B002BB6D1C7
:1019A000019B002BCDD0002ECFD001F0F5F9FFF731
:1019B000E1F801F0E5F94423E35C5BB20133C9D0FF
:1019C0004523E35C5BB20133C8D001F0E5F901A91E
:1019D00002A8FFF769FC0028D3D12000FEF78DFE96
:1019E0000028C8D02368002BBCD0200024300199E7
:1019F000FFF774FA2000FFF78BFCFFF7A5F900282A
:101A0000C9D101F0B1F9C6E7002D01D1002089E765
:101A100001F0B6F92000FEF78DFD0100A068FFF788
:101A20001BFF01F0B9F9F1E770B50500FFF7A2F867
:101A30002B4B1B68002B13D0002D07D007222A4008
:101A400010239B1ADA43AA420DD3ED18002D3FDB79
:101A500040D0244B1B68AB423ED3234A146806E0B7
:101A6000FEF7BCFDE8E70025F0E722001C006368F4
:101A7000AB4202D22368002BF7D1194B1B68A3425B
:101A80002CD0166808362368136063685B1B102B24
:101A900018D8626813490B689B1A0B6013490968D0
:101AA0008B4201D211490B6080231B0613436360F4
:101AB000002323600E4A136801331360FFF744F9D3
:101AC000300070BD601943606560FEF7B3FDE0E76C
:101AD0000026F3E70026F1E70026EFE70026EDE712
:101AE000A0080020182F002010300020E02F002038
:101AF000EC2F0020F0B583B004000D001700002883
:101B000032D000200A0C230C002A28D19AB2002AD5
:101B100017D100282CD1280060430300513329D865
:101B20005030FFF781FF061E1FD0020050324623BF
:101B30000021C15400903B0029002000FFF7CAFAA1
:101B400013E01A1C2E1CABB2A1B25943B6B293B229
:101B50007343090C5B181B0CDBD00120D9E79BB247
:101B6000002BFAD1261CEEE70026300003B0F0BDB2
:101B70000026FAE70026F8E770B5002807D0050030
:101B8000083D6B68002B02DA2A68002A00D070BD7D
:101B90005B005B086B60FEF7EDFF6B68074A11683E
:101BA0008C46634413602800FEF744FD044A136822
:101BB00001331360FFF7C8F8E9E7C046182F00208B
:101BC000F02F002010B54623C35C002B00D010BDC1
:101BD000FFF7D2FFFBE7F0B587B004900591160040
:101BE0001F009000FFF720FF041E23D0C020FFF746
:101BF0001BFF051E1AD0C022002104F0ECFB2C6351
:101C0000002D1BD00023BD22AB54039302950D9BE6
:101C100001930C9B00933B00320005990498FEF75A
:101C200031FE2800FEF7C8FD012005E02000FFF787
:101C3000A3FFE5E70120404207B0F0BD012040428C
:101C4000FAE7000010B504000B4B1868583004F098
:101C5000D7FBBD23E35C002B02D0012B07D010BDC6
:101C6000206BFFF789FF2000FFF786FFF7E72000D2
:101C7000FFF782FFF3E7C0469408002070B5040028
:101C800001F07EF8002C2AD0251D2800FEF7B3FEB7
:101C9000A36A002B03D020001830FEF7ACFE174AD1
:101CA000136801331360164B1B68A3421AD0154A00
:101CB0001368013B1360FEF769FC01F06DF8104BEF
:101CC0001B68A34202D02000FFF7BCFF0E4B1B682D
:101CD000002B03D00A4B1B68A3420CD070BD084BED
:101CE0001C68D1E729000948FEF72AFE084A136854
:101CF00001331360E1E701F037F8EFE7C02C002073
:101D000094080020B42A00200C3000207C300020F1
:101D1000B82A002010B50D4B1B68002B15D001F020
:101D20002FF80B4BDB68DC68201DFEF764FE094AC8
:101D30001368013B1360054A1368013B136001F00F
:101D40002BF82000FFF77EFFE5E710BDB82A002042
:101D50007C300020B42A002030B587B006E0039B19
:101D6000059904989847029B002B0BDA334B1868AF
:101D7000002202A9FFF705FB00285DD0029B002B83
:101D8000F1DAECE7049C6369002B02D0201DFEF71A
:101D900032FE01A8FEF7FCFE0500029B092BE5D8E8
:101DA0009B00274AD3589F462822A35C01210B435E
:101DB000A354039BA269944663441900039B020049
:101DC0002000FEF7DFFD0028D0D02823E35C5A076F
:101DD00007D4012293432732A354236A2000984753
:101DE000C4E7039BA2699446634419002A002000BB
:101DF000FEF7ECFDF1E72822A35C01218B43A354FD
:101E0000B4E72822A35C01210B43A3540399A161E9
:101E10000918030002002000FEF7B4FDA6E72823FE
:101E2000E35C9A0704D5012293432732A3549DE72C
:101E30002000FFF7A1FE99E707B030BD94300020E5
:101E4000B465000000B583B001A8FEF7B5FB0199A9
:101E5000FFF736FBFFF780FFF6E770B50500FEF7EA
:101E600089FE02E02000FFF787FEEB6A002B15D009
:101E70001A68EA621C696268002A01D02168116050
:101E80002268002A01D0616851609A681268002AAD
:101E9000E8D0D8680028E5D09047E3E7FEF754FF84
:101EA00070BDFEE770B5284B1B68002B03D0274B95
:101EB00001221A6043E0254B00221A60244B1B6864
:101EC0001B6B244A1968914202D15968914208D08B
:101ED0001F4B186819683431FFF7E3FF1E4B1A686F
:101EE00008E099689142F3D1DA681A4B9A42EFD12F
:101EF000F4E7013A93009B189900184BCB58002B3C
:101F0000F7D0164D91008B189800281843685C682C
:101F1000446089188B00190008335B199C420FD06C
:101F200093009B1899000D4B5B185B68D968084BB0
:101F3000196009490A601B685833094A136070BD6B
:101F400060686B185860EBE7BC2C00205C31002007
:101F500094080020A5A5A5A5C42E0020AC0800204B
:101F60002C05002070B5040000F00AFF002C1CD0E6
:101F7000251D2800FEF73FFDA36A002B03D020009B
:101F80001830FEF738FD29001D48FEF7D9FC002364
:101F9000002B0DDD00F000FF1A4B1B68002B13D146
:101FA000194B1B68A34216D070BD174B1C68DFE7A6
:101FB000E218BC321278012A01D00133E8E7E218B6
:101FC000BC3200211170F8E700F0DAFEFEF7DEFA0D
:101FD00000F0E2FEE4E70B4B1B68002B09D1084B35
:101FE0001A680A4B1B689A4206D1074B00221A60F6
:101FF000DAE700F0B9FED7E7FFF754FFD4E7C046B1
:10200000683000200C30002094080020B42A002002
:102010004060006070470368181A43425841C0B2DC
:102020007047436802681A60036842685A607047E4
:1020300030B583B003000D0003220092002200217E
:102040000120FFF758F8041E01D0002D02D1200016
:1020500003B030BD002300220021FFF784FBF6E728
:1020600070470000034B0360034B0B608023136039
:102070007047C0461C2F0020BC2A0020034B036081
:10208000034B0B60802313607047C0469C300020D8
:10209000C42C002000B589B0FFF750F8104B1B6826
:1020A000002B19D000230593069307AA06A905A8BB
:1020B000FFF7E4FF059B0293069B01930523009322
:1020C0000023079A07490848FEF728FD074B1860C8
:1020D000002802D0012000E0002009B000BDC04669
:1020E00094300020DC650000451E00009830002080
:1020F00010B588B000240594069407AA06A905A87F
:10210000FFF7B0FF059B0293069B01930094002309
:10211000079A11491148FEF701FD002807D0FFF783
:10212000B9FF012805D00E4B1B6808B010BD002078
:10213000F7E772B60B4B1B6858330B4A13600B4B17
:10214000012252421A600A4B02321A60094B0022E5
:102150001A6000F08FFEE6E7E4650000152A000033
:1021600020050020940800202C050020E42F0020EA
:102170000C300020903000200023036043600122D7
:1021800052428260C3607047F8B505000E00134BE1
:102190001C6801277F420CE02369E069002B03D112
:1021A0002375A36998470EE0E268D318E360F8E767
:1021B0002468002C10D0237D002BF9D0002D02D0F4
:1021C000E368B342E8D0237D002BF1D0E3689B1B8A
:1021D0009F42EDD91F00EBE73800F8BDA0070020B3
:1021E000024B4360002303607047C046006CDC0272
:1021F0000120704710B503F09FFF10BD70B50400BB
:10220000054B01221A60054D2B682020FFF7F2FFD5
:102210002C60034B1C6070BD48210240202102400D
:10222000A807002010B50400006803F041FF2068F3
:1022300003F0CAFE10BD000010B5084B5B68DB055B
:10224000DC0D002B06D0EFF31084012383F31088FC
:10225000200010BD00F094FDFAE7C04600ED00E05C
:1022600010B503F025FF10BD10B503F00DFF10BD34
:10227000034B5B68DB0501D1002070470120FCE7C0
:1022800000ED00E070B505000C00FFF7F1FF00283D
:1022900019D1FFF7ADFF0200FA239B0098420AD044
:1022A000002320000021FDF7BDFFFA229200002349
:1022B000FDF798FF040021002800FFF721FB01280B
:1022C00007D1002070BD002200212800FEF7A0FFEA
:1022D000F5E701204042F5E710B582B00400FFF7B2
:1022E000C7FF002807D10023002200212000FFF7AC
:1022F0003AFA02B010BD01A92000FEF751FFF8E73D
:10230000002805D000230360013B436002330372C1
:1023100070470000F0B585B004000E0017001D00E6
:1023200000281FD0002B20D0FF236A681340FF2B0A
:1023300020D0154B1B68B34202D06B68C02B20D055
:10234000B300124A9C5067602B68A3602660104956
:10235000300003F021FE2979300003F03FFE2B7A94
:10236000002B0AD1200005B0F0BD01A8FFF7C8FF7F
:1023700001ADD9E77F3B6B60DBE7300003F084FE03
:10238000F0E70024EEE7C04608050020B40700206F
:10239000B506000010B503F0A1FE10BD10B5054B49
:1023A0005B68DB0502D080F3108810BD00F0F4FC00
:1023B000FBE7C04600ED00E070B50400FFF73CFF0E
:1023C00025682B6823602B685C60FFF7E7FF280017
:1023D00070BD70B504000D00FFF72EFF2C60636820
:1023E0006B6063681D606560FFF7D8FF70BD00001B
:1023F000F0B5C64600B584B004000E0015000028F4
:1024000044D0FFF719FF8046264B1B78002B21D1C3
:10241000002705E0FB002448C018FFF7F9FD01374D
:10242000032FF7DD0023214A1360214A136001279F
:10243000204A1760204A137001A8FFF761FFC023EC
:1024400002931E4B196801AB1D4A1E48FFF762FF3D
:10245000144B1F704046FFF7A1FF002D1BD0AF6843
:102460007B1C1AD0032F1AD82000FFF7D1FD2300C0
:102470000C3307CD07C32A681A606761E6612262E0
:1024800000236362FF00084BDF19A760200004B03F
:1024900080BCB846F0BD0C4DE1E70327E4E700241B
:1024A000F4E7C046640800206C0800208C08002077
:1024B000440800206808002090080020080500203B
:1024C0009125000048080020F065000070B5040068
:1024D000FFF7B2FE05002000FFF7A3FDA068FFF79D
:1024E0009AFD002806D0636901229A4003490B68CF
:1024F00093430B602800FFF751FF70BD8C0800204C
:10250000F8B5070013E0022363621C4B226A1A60CD
:10251000A36923623800FFF741FF2169E068E3699E
:102520009847FFF789FE0700636A022B1FD0144B00
:102530001B68002B1ED0134B1B68012B1AD1104BAC
:102540001868FEF7A1F80600C3000F4DED1828002B
:10255000FFF732FF04002800FFF75DFD0028D2D00E
:102560000122B24006490B6893430B60CBE700237E
:102570006362DCE7054B00221A70F8BD44080020B6
:102580008C080020680800206C08002090080020BB
:1025900010B5FFF751FE0400FFF7B2FF2000FFF770
:1025A000FDFE10BD70B50400FFF746FE0500636A2E
:1025B000012B0BD1114B1B78002B03D1104B1B6847
:1025C000012B13D02800FFF7E9FE70BD01266662DB
:1025D0006369DB000B48C0182100FFF7FAFE63694E
:1025E0009E40094B1A6816431E60E3E7074B1868C4
:1025F000FFF7D0FE014B01221A70E3E7900800209C
:10260000680800206C0800208C08002008050020C5
:1026100070B5FFF711FE1A4B1E681A4B01221A7093
:10262000194B00221A70194B1D68761BFFF7B6FE76
:102630000024B44207D82D19361B29000120FFF7CA
:10264000A3FD0400F5E7FFF7F7FD06000E4B1B782E
:10265000002B0FD10E4B9C4200D91C002819FFF70C
:10266000CDFD084B00221A700A4B1D603000FFF7A9
:1026700095FE70BD29000020FFF786FD0400E9E704
:10268000042102409C070020AC070020A80700207E
:10269000FFFFBFFFB007002010B5034B01221A60F7
:1026A000FFF7B6FF10BDC0465420024070B50400CD
:1026B000FFF7C2FD0500164B1A78002A16D1154BFC
:1026C0001E68154B1968711A144800681B68C31AF4
:1026D00099420BD8A3689A19E26001222275801BE7
:1026E000834210D2E068FFF789FD0CE0094B1B68BC
:1026F000A1688C466344E36001232375002A02D05D
:10270000074B01221A702800FFF748FE70BDC04633
:102710009C07002004210240B0070020A8070020E9
:10272000AC07002070B50400FFF786FD050000230C
:102730002375134B1B78002B06D0124B01221A7005
:102740002800FFF72BFE70BDE2680F4B1B689A4212
:10275000F6D10E4A14680E490A68A21A09685B1A73
:102760009A42EDD221000020FFF70EFD094B98425E
:1027700000D918000019FFF741FD054B1C60DFE789
:102780009C070020AC070020A8070020042102407D
:10279000B0070020FFFFBFFF70B504000E0015005A
:1027A000FFF74AFDA661E561FFF7F8FD70BD70B562
:1027B00004000E001500FFF73FFD6660A560FFF7FF
:1027C000EDFD70BDF8B51A4B1B78002B00D0F8BD9D
:1027D000184B1D680124184B1C600026174B1E6007
:1027E000174B1C60002217491748FFF7E0FF1B2119
:1027F000164803F0C7FB164B1C60164800F0DEFCC1
:10280000154B1D60154B9C466544154F3D60154B9F
:102810001E70154B1E70064B1C70FFF70DFD04005B
:102820003868FFF7EBFC2000FFF7B8FDCFE7C046A4
:102830009D07002004210240542002400C21024048
:102840006020024099260000B031002044040000BE
:1028500058200240A0070020B0070020FFFFBFFF64
:10286000A80700209C070020AC07002070B50400DA
:102870001D00002812D0002B12D06B682361A260CB
:10288000A161AB68E36100232375FFF79BFF210083
:10289000064800F09DFC2B78002B03D1200070BD72
:1028A000034DEAE72000FFF701FFF7E7A00700204C
:1028B0009007002010B5FEF75DF910BD10B5FEF7CA
:1028C00043FA10BDF8B5CE46474680B5FFF7B4FCD5
:1028D0000500FEF72DFE00282BD001F0B3F90223EE
:1028E00003405E425E41F6B204240440604244412B
:1028F000E4B2002B21D0002E24D0384B1968384B7D
:102900001E68002941D1374B9846374B19684B0157
:102910005B1A9B005B18DB0047469F4200D91F00F3
:10292000FA235B009F4235D8002C0DD001F060FAED
:102930000AE02800FFF732FD09E001F043FB002820
:10294000D9D10400002C45D12800FFF727FDC0BCD9
:10295000B946B046F8BD0133DBB2042BD5D801220D
:102960009A401142F7D0214A9A1892001268204FDB
:10297000FF5C3000B840121A1A48824200D9002287
:10298000FA409045E7D99046E5E7002301225242FC
:102990009046E2E7FFF78EFF164B98461B68994674
:1029A000F01901F07FFA144C4B4623600C4B186869
:1029B000801B00F033FCFEF707F90023424613604A
:1029C0000E4A136805210B4313600D4B2360FFF77C
:1029D00075FFB9E701F00CFAB6E7C04644200240A3
:1029E00004210240FFFFBFFF400800205388001071
:1029F0000066000018E000E014E000E010E000E0F5
:102A00007FBB000010B5024B186001F021F910BD2A
:102A10004008002010B501E0FEF796F9FFF77AF9BB
:102A2000FDF792FD0128F9D9FEF7A4F8FDF78CFD1A
:102A30000128F1D9FFF7E6FFEEE7000010B582B0FC
:102A400003F024FC72B6BFF34F8FBFF36F8F194BA7
:102A500001AA934202D2184A04C3F9E7174B184A55
:102A6000934202D2002204C3F9E7164A164B9A4257
:102A700007D0154B134901E004C904C3134A93421C
:102A8000FAD3134C134BE41AA4100023019306E06D
:102A90009B00104A9B589847019B01330193019B6F
:102AA000A342F5D30C4A0D4B1A6000F05BFB02B059
:102AB00010BDC04680380020A5A5A5A59005002022
:102AC0007C38002034670000A0040020900500201E
:102AD000CC640000CC6400000000000008ED00E0C1
:102AE000704710B5002803D008380068FFF744F895
:102AF00010BD10B50800FFF7F4FF10BD10B5044B72
:102B0000020013CB13C203CB03C2002010BDC0468A
:102B10000C050020012902D8016100207047162011
:102B2000FCE70B685A1E082A02D803600020704791
:102B30001620FCE78160002070470000F0B5C64613
:102B400000B582B007000D0090461E00002943D05A
:102B50003420FEF769FF041E51D02B695A1E9341A1
:102B600003744346436186610023C3608360C3618D
:102B700003622A68426083620363C3622B69002B8D
:102B800007D1032200210120FEF7B4FFA060002836
:102B900024D0FEF7FBFC0600012824D12A892B68EB
:102BA000009392080194230016491748FFF713F881
:102BB00001281BD0A068002801D0FFF703F82000EF
:102BC000FEF7DAFF0C2500243C60012E14D128000A
:102BD00002B080BCB846F0BD0C4DB9E72000FEF74E
:102BE000CBFF0C25F3E7FDF7C5FFD7E721002068F1
:102BF000FEF754F90025E7E7FEF7A6F8E7E70C250E
:102C0000E5E7C046EC650000852C00000C050020BF
:102C100010B5FEF7B5FCFEF751F910BD10B5030075
:102C2000026800699062002902D098685B68984742
:102C300010BD30B583B00500FFF7EAFF0400456220
:102C400001A9012000F025F8A06A002803D0012185
:102C5000FFF7E4FFF8E72000FFF7FFF8237C002BE5
:102C600009D1A06800220021FEF77DFD0020FFF7BA
:102C700079F903B030BD2000FEF77EFF0020FEF79B
:102C8000FDFFF6E710B5436980699847FFF7D1FF6C
:102C900010BD70B504000D00FFF7BAFF012C0DD870
:102CA000C3692B60C461002C0AD1006A002808D0D7
:102CB00001204042FFF7BDFF200002E0162000E0A7
:102CC000002070BD10B50200084B98420CD9084B8B
:102CD000C418084A5001801A80008018C0000130D2
:102CE000FEF7CCF8200010BD0024F3E73689410040
:102CF000C976BEFF3789410082B00023019372B6C6
:102D0000019B002BFCD002B07047000000000000C7
:102D10000B4A13681868203080F30988022080F37A
:102D20001488BFF36F8F3FBCAE4608BC04BC62B6CC
:102D30001847C046C046C046C046C046C046C0460A
:102D40009408002010B5031F802464041C60043B19
:102D50001960043B02491960143B1A60403810BDE9
:102D6000F92C000070470000044B802252051A60C5
:102D7000BFF34F8FBFF36F8F7047C04604ED00E085
:102D800072B6044A136801331360BFF34F8FBFF369
:102D90006F8F704724050020034A1368013B1360BE
:102DA000002B00D162B6704724050020EFF310809D
:102DB00072B6704780F31088704700000000000072
:102DC000EFF309800E4B1A6820381060F0C04446BB
:102DD0004D4656465F46F0C008B572B6FFF762F83A
:102DE00062B60CBC116808681030F0C8A046A9464D
:102DF000B246BB4680F309882038F0C81847C04661
:102E00009408002010B5FFF7D1FF0400FDF7FAFE8B
:102E1000002803D0034B802252051A602000FFF7E0
:102E2000C9FF10BD04ED00E00A4B0B4A1A600B4BC2
:102E30005E22FF321A600A4BFF3A1A60094B0022E9
:102E40001A6009490A60094A0949116007221A6093
:102E50007047C0466431002080BB0000683100200C
:102E60006031002010E000E018E000E014E000E035
:102E70007FBB000010B50C4B1968FF2212040A43F7
:102E80001A601968FF2212060A431A60FFF7CCFF86
:102E9000064B00221A60FFF73BFFFFF703F8FFF72E
:102EA0002BFF002010BDC04620ED00E024050020CF
:102EB00010B5184B1B68002B16D0164B1B68002B47
:102EC00025D00121022000F077FB134B00221A606D
:102ED00040320021114803F07EFA402200211048C0
:102EE00003F079FA002010BD0E4C200001F0C6F866
:102EF0000D4B236108236361002323732370237622
:102F00000A49002001F09AF8024B1860D5E7052025
:102F10004042E8E76037002058380020143700208E
:102F2000843700205C38002040420F0038380020F1
:102F3000014B1861002070475C380020014B187667
:102F4000002070475C380020402803D8034B1860ED
:102F50000020704716204042FBE7C046583800204A
:102F6000014B18607047C0460C38002010B50B4B61
:102F70001B68002B01D0002010BD094C200002F07E
:102F800037F896239B01A36100232370637021000F
:102F9000002002F021FB014B1860ECE7E437002031
:102FA00014380020014B98617047C0461438002047
:102FB0001F2803DC034B19540020704716204042A1
:102FC000FBE7C046EC370020202803D8034B1860ED
:102FD0000020704716204042FBE7C046E83700203B
:102FE000202803D8034B1860002070471620404269
:102FF000FBE7C046E0370020014B18600020704717
:103000005437002030B583B01B4B1868002801D01E
:1030100002F094FA1949002002F0DEFA164B18600B
:10302000002826D002F03AF80121132000F0C4FA5B
:10303000134B1A68104D2868124B1B680093124BF3
:10304000124902F049F804000021132000F0B4FAFC
:10305000286802F007F80D3405D00D4B00221A60E5
:10306000002003B030BD0A4B01221A603E204042CE
:10307000F7E705204042F4E7E43700201438002049
:10308000E0370020543700205C37002064370020F0
:103090006C31002010B50C4C200000F0EFFF0B4B02
:1030A00023610823636100232373237023762100A7
:1030B000002000F0C3FF064B1860002801D000205C
:1030C00010BD05204042FBE73838002040420F0089
:1030D0006037002010B500F06FF900F0BBFA00F087
:1030E00089FFFFF7D7FF002835DBFFF7E1FE1B481C
:1030F000FFF71EFF0320FFF721FF4020FFF724FF0B
:103100000120FFF72DFFFFF731FFE1204002FFF71D
:1031100049FF0420FFF764FF0420FFF755FF6121FA
:103120000020FFF745FF62210120FFF741FF6321E7
:103130000220FFF73DFF64210320FFF739FF084815
:10314000FFF75AFF0820FFF74BFFFFF75BFF002058
:10315000FFF7B8FDF9E700BEC7E7C04680841E0050
:10316000404B4C0010B588B0FDF7CEF902A8FFF730
:10317000C5FC0123019301A902A8FFF7D2FC0400BA
:10318000012102A8FFF7C6FC04438021C90002A860
:10319000FFF7D0FC044300D0FEE70023064A02A953
:1031A00007A8FFF7CBFC002800D0FEE7FEF7A0FF42
:1031B000002008B010BDC046D530000010B5040096
:1031C000FFF73AF8002363602360FFF7E7F810BDCC
:1031D00070B50C000500FFF72FF8002323606B6823
:1031E0006360002B04D01C606C60FFF7D7F870BDE3
:1031F0002C60F9E770B50C000500FFF71DF80CCC4A
:10320000002A06D05360002B06D01A60FFF7C6F8DC
:1032100070BD6B60002BF8D12A60F7E7074B020CFA
:1032200019000004000C4343054851435043C018A3
:10323000C009DE30400A4018400A7047128300007F
:10324000986E000010B5042801D0002010BD0D308C
:1032500000F05EFDFF22074B11201A600123064A91
:103260001360064A1168064A1160064A136000F0AE
:1032700087FDEAE72C6002404C600240B065000028
:1032800008600240046002400F4B10B51A78002A13
:1032900000D010BD012404210C4A1C700C480023EE
:1032A00000F0E6FC112000F033FDFF22094B112055
:1032B0001A60094B1C60094B1A68094B1A60094BCC
:1032C0001C6000F05DFDE4E7843100204532000021
:1032D000703100202C6002404C600240B06500005C
:1032E0000860024004600240FF2807D0044B8000C1
:1032F0005B681B181A68914200D019607047C0467D
:10330000CC640000FF2803D0024B80009B68C150B2
:103310007047C046CC640000024B80009B68C058D8
:103320007047C046CC64000070B50400FF2800D18F
:1033300070BD00F037F8094EA500336820005959D8
:1033400000F0CCF873685B191A68002A01D00022DB
:103350001A600022B3685A51EAE7C046CC64000004
:10336000F8B50D4B1C680D4B1C60002C12D01F26AD
:1033700001250B4F2000FCF717FF2B00301A83406C
:103380009C437B688200D358002B01D0C0B2984781
:10339000002CEFD1F8BDC0465430024064300240EA
:1033A000CC640000FF2803D001238340014A13604E
:1033B0007047C04674300240F0B5DE4657464E4670
:1033C0004546E0B587B0FEF737FF354B1A78002A3F
:1033D0005ED101221A70FEF7E1FF002000F098FC98
:1033E00003A8FEF78DFF2F4C1521E3682E4A0493A6
:1033F0002E4803ABFEF78EFF2D4B19782D4B187816
:10340000002398460193814247D807339C46033BEB
:103410000227994612E04D461D4206D001258D40F7
:10342000AA46454656463543A846234DAA46654614
:103430005244AB431360013181422CD823688A0087
:103440009B58002BF7DB1F42E5D101258D40019EE3
:103450002E43012501961D40FF2908D0EDB2AA4652
:10346000164D5646AB468B445D462E70DDE707226F
:103470009343134A13603200124B1A604246124BB8
:103480001A6007B0F0BCBB46B246A946A046F0BDE4
:10349000FEF784FFF5E7019AEEE71A00ECE7C04675
:1034A000A4310020CC64000061330000883100208A
:1034B000DC640000DD6400000031004000310240A7
:1034C000FC3400400035024044300240024B9C4630
:1034D00060440078C0B2704700360240F0B5002961
:1034E0001CDBFF282ED0012407230E002500042218
:1034F0009E43164B8540C3180A409B008F070FD48C
:103500000C4013498C461349604404700D60002A36
:103510000ED0114A1560114A15601E600020F0BDE2
:10352000002A09D10E4A15601E600E4B1D60F5E79A
:103530000B4A15601E60F1E7074A1560074A1560DF
:103540001E60F2E701204042E9E7C046400C00104F
:103550000031024010350240643002406C300240BD
:10356000743002402035024070B504000D00FF2881
:1035700015D00326FEF760FE0B4BE21892009178FF
:103580002B0CB14333400B439370FEF707FF01232D
:10359000A3406D0704D5054A1360054A136070BD4A
:1035A000044A1360FBE7C046400C00106430024040
:1035B0006C30024074300240FF2805D0034B9C461B
:1035C000012360440B4003707047C0460031024045
:1035D00070B5002918DBFF282BD0174BC418012326
:1035E0001D00A40085408E0710D4144E0B40B44635
:1035F00060440370124B1D604B0712D4114B1D60C9
:103600000723994311432160002070BD4B070CD460
:103610000C4B1D60072399430B4B114321601D6028
:10362000F2E70A4B1D600A4BE9E7084B1D60084BA7
:10363000EFE701204042E8E7400C00100031024073
:1036400010350240743002402035024064300240A0
:103650006C3002407047C046802302001B0270B5E8
:103660001A40184217D0284B284A80211A6001239B
:10367000274A89001360274A27481360274A1160A8
:10368000002227490A600132FF3202600B60254B9D
:103690001A60002070BDC3051BD5234B1B68002B8F
:1036A00024DB95202149224E0C684000A5190B60AF
:1036B00085421BD89D19854218D81B1B9533834220
:1036C00014D8802314489B020360164803600A60E4
:1036D000DFE780239B021842DBD0164A11680A29D3
:1036E0000DD00A2111600F4A1360D2E700220C4B63
:1036F0001A6001321A600B4BFF321A60C9E70E4B99
:103700000E4A01201A60C5E71012004002020000B4
:103710001C120040C4100040541000401812004019
:10372000001200405810004008120040A83100204C
:10373000351DE9FFC01000409C10004080841E80B1
:10374000024B1A68024B1A607047C0464C2000407A
:103750005420004070B5F024FEF76EFDA0230F4901
:1037600064050A681B0522409A4202D0FEF716FE45
:1037700070BD0B4E0B4B35681D4080231B022B4345
:103780003360094D094B1D600B6823409342FBD009
:10379000064A13685B005B081360E7E7F01000401F
:1037A0001C110040FF0FFFFF12000180A01000401D
:1037B00070B501251F4B1B681D4225D11E4C1F4BA8
:1037C0001F4E23604220B36C98471E4B0620236097
:1037D0001D4C1E4B2360B36C984740221C4B1D4967
:1037E0001A6023682B4323602368AB4323600B6874
:1037F0001A42FCD0144A184913680B400121136087
:103800000C4A13680B431360FEF716FD0221134A9E
:1038100013680B431360124A53780133DBB25370C1
:10382000FEF7BCFD80230A4A1B0213600D4A136099
:1038300070BDC04684100040A81000400D000080FC
:103840004C00000F11000080A01000400000038019
:103850005410004048100040FFFFFE7F6C320020F3
:103860007032002058100040274B10B51A687F2393
:1038700019001140120C13405B00994223D3234BD3
:103880001A68120B12073DD5214A13685B005B08CA
:103890001360204A13685B005B0813600023136009
:1038A000EFF314821C4C226083F314881B4B00201E
:1038B0001B689847236883F31488FFF779FF012278
:1038C000174B1A7010BD114A5B1A1268120B092BA4
:1038D000D8D9102BD8D90C231342D5D00124644257
:1038E0000A4A1048136811681B041B0F1B191B0799
:1038F00001401B0C0B43012113600B4A13688B43DF
:103900001360C1E70124EBE7E81000401C11004000
:10391000A0100040A8100040AC3100204C00000F67
:1039200028050020FF0FFFFF841000406F4B70B58B
:103930006F4A1C686F4B14601C6080231B021C4282
:103940006AD10A221500254022420BD108252542C2
:1039500023D1694D2B68002B03D020009847002805
:103960002CD170BD012065490A6882430A60644910
:1039700064480A68520052080A6063490A680240B3
:103980001A430A60614A12681A4278D1FFF710FFA1
:103990005F4B1D6008252542DBD0FEF74DFC5D4ADC
:1039A00013685B005B081360802311681B060B43E0
:1039B0001360FEF7F3FC564B1D60CAE7002301229B
:1039C00004212B60544B1A60544A13680B43136054
:1039D000534B1C68002C0DD01025A3682B4206D039
:1039E000002110202269E3689847002802D124684A
:1039F000002CF2D1FEF720FC4A4A5378013BDBB29F
:103A000053705378002B04D10221474A13688B432B
:103A10001360FEF7C3FCA4E78023444D9B021360B0
:103A20002800FEF77FFE002228000021FEF7B4FEEA
:103A3000334B3F4A3F4D1A602B68002B31D09847DB
:103A400000232B600A231D002540234200D17DE77F
:103A500001212A4A13688B431360294A2A491368B3
:103A60005B005B0813600A68264B1A4080231B0228
:103A700013430B60FFF79CFE254B1D608AE7FEF7A2
:103A8000DBFB284A5378013BDBB253705378002BA1
:103A900004D10221244A13688B431360FEF77EFC95
:103AA00074E71F4B1D68002D0DD00826AB6833420C
:103AB00006D0002108202A69EB689847002802D127
:103AC0002D68002DF2D1FEF7B7FB164A5378013B63
:103AD000DBB253705378002B04D10221124A1368D1
:103AE0008B431360FEF75AFCACE7C0464C10004015
:103AF000541000405C1000407832002084100040D8
:103B0000A0100040FF0FFFFF1C11004044100040B8
:103B100058100040A4100040B01000402C0000409D
:103B200030320020703200206C320020CC31002076
:103B300011000380103200202D4B70B51A78002A36
:103B400053D12C4A012451681C700800451EA8411D
:103B5000294B92681870294B29481960294B132169
:103B60001A600023284AFEF7D5FB82200321C000FB
:103B700002F008FA254B264A13201A60FEF774FB60
:103B800000232021234A2448FEF7C4FB234B244A68
:103B90001C60244B24491C60244B1C6013681B0BC5
:103BA0001B0313600A68224B1A4080231B02134335
:103BB0000B60FEF71DFB0100FA204000FCF768FADD
:103BC0001C4C020000231C492000FEF74FFEFFF7AB
:103BD000EFFD2000FEF76AFD8023184A1B061168DE
:103BE0000B4313601022164B1A60002070BDC046B4
:103BF00038320020E0640000393200203C320020DE
:103C000014320020103200202D39000058100040DE
:103C10000A80000041370000B031002058200040E9
:103C200028110040602000401C110040602002402C
:103C3000FF0FFFFFCC31002055370000A4100040DB
:103C400000580040014B18687047C0466C32002095
:103C5000054B10B51B68002B04D0044A1278002ACB
:103C600000D0984710BDC0463C32002039320020B9
:103C700010B500280BD0002A09D00361054B8160E4
:103C8000C26001001800FFF7A3FA002010BD032056
:103C90004042FBE73032002010B5034B0100180012
:103CA000FFF7A8FA10BDC0463032002010B504005E
:103CB000FEF7C2FA0123A340064A11680B431360C2
:103CC000054A135D0133DBB21355FEF767FB002095
:103CD00010BDC0466C3200207032002010B50400C8
:103CE000FEF7AAFA084A135D013BDBB21355135DD8
:103CF000002B05D10122A24004490B6893430B60BD
:103D0000FEF74CFB002010BD703200206C3200200A
:103D100070B50400FEF790FAFF2322001B02050095
:103D20001A401C4212D1FF2312482340C15C4A1C96
:103D3000D2B2C254002904D101229A4013000E4A83
:103D400013602800FEF72AFB002070BD80235B0073
:103D50009A42F6D10948013B2340C15C4A1CD2B2C9
:103D6000C2540029EDD101209840002180B202F018
:103D700003FAE6E74C3200201400024040320020F3
:103D800070B50400FEF758FAFF2322001B0205005D
:103D90001A401C4211D1FF22124922408B5C013B88
:103DA000DBB28B54002B03D1012393400E4A1360E6
:103DB0002800FEF7F3FA002070BD80235B009A42D2
:103DC000F6D1FF22094922408B5C013BDBB28B54C8
:103DD000002BEDD101209040002180B202F0FCF9CF
:103DE000E6E7C0464C32002020000240403200206E
:103DF000024B1B685B0700D430BF70476C32002059
:103E000010B50124194B1A4A1C601A4B1A60FEF7B0
:103E100013FA0221184A13680B431360174A5378A8
:103E20000133DBB25370FEF7B9FAFEF705FA144B13
:103E30001A68802311001B0219401A4212D1114B3B
:103E4000114A1A60114B023A1C60114B1C60114B55
:103E50001A608023104A5B00116010490B601460E7
:103E60000F4A1360FEF79AFA10BDC046901000404A
:103E700059360000783200206C3200207032002069
:103E80004410004010120040020200001C120040CA
:103E9000C4100040181200400012004054100040AE
:103EA00058100040F0B5C64601210400374A00B55D
:103EB000136886B08B431360354B14221D68354B55
:103EC000354901A81E6802F07DFA0421334802F04A
:103ED00059F82020FEF78EF9314B324A1B681268E0
:103EE000E31AB93BDB089B182F4A13602F4B1C6861
:103EF0009846002C0DD00127A3683B4206D0002134
:103F000001202269E3689847002806D12468002C24
:103F1000F2D1FFF7A9FC002703E0254B1F70012712
:103F20007F420123234A20201360234A1360234B3E
:103F30001B68FEF75FF91B21184802F023F8204A9E
:103F40001368012BFCD1142201A9134802F03AFA9C
:103F5000104B1E600E4B1D6002F06EF943461C684C
:103F6000002C0DD00425A3682B4206D0002104208C
:103F70002269E3689847002802D12468002CF2D116
:103F8000380006B080BCB846F0BDC04610E000E086
:103F900044200240442102404C21024044040000DD
:103FA0000421024018200040282000403032002028
:103FB000280500200C200040542000400020004034
:103FC00040210240084B01201A6803231340012BB3
:103FD00000D07047054A064912680020096892011E
:103FE000F7D5480C1840F4E7C0100040E01000403E
:103FF00048100040F8B5FEF71FF90D4B07001A787E
:10400000002A10D101321A700A4B1E78002E0AD0F5
:104010000024094D2B68013428009B68E4B29847BE
:104020000C35B442F6D13800FEF7B8F9F8BDC046F9
:104030007C32002040650000346500000B4B10B559
:104040001B78002B0ED00A4B1B7883420AD900291B
:104050000AD04300074A1B189B009818D358DB6806
:10406000984710BD0020FCE70349F2E77C320020AE
:10407000406500003465000008660000020030B5AD
:10408000034B32CB32C213CB13C203CB03C230BDBE
:1040900008660000FD2300214268D1547047C046E5
:1040A000F0B5DE4657464E464546E423E0B5C358D4
:1040B00085B0082B00D97DE00023984601339B464C
:1040C000C023C6580C33C35801969C4633689C45A0
:1040D0005ED262469B1A02928022D200934263D83B
:1040E000D4228458002C6AD0D82283507268CC69BC
:1040F00092468D69002A69D047463D4ABF00D25991
:10410000B946AA605A46029F7A43013A5244039242
:104110001F0042469740BA46039A52442A600968F3
:10412000344F0A005132FF326A60AA6892465A1E22
:1041300012013A4057461743AF60B5680392002D0D
:104140004ED04A462C4FBA585F46A260029A574357
:1041500001225242B94692461F0042469740B84655
:10416000D1444D44454465604131FF312160A1682F
:10417000039A0A43A260019A964202D1CC22634478
:10418000835005B0F0BCBB46B246A946A046F0BD80
:104190007669002EF5D0002201230292802233742A
:1041A0003368D20093429BD91300D4228458002C48
:1041B0009AD104E00123984601339B4680E783505F
:1041C00072684C6992460D69002A95D147460B4AA0
:1041D000BF00D259B946AA600200F6322A609EE7B3
:1041E0004A46064DAD58A5600500F4356560BBE74D
:1041F00058660000F03F000050660000486600006E
:10420000F8B53E23FB2784684668A26A1749050073
:10421000E05CFFF7DDF9E26AF05D1449FFF7D8F9D9
:10422000F923F35C626A012B0BD03C230221E05C92
:10423000FFF7CEF93D23226AE05C0C49FFF7C8F98D
:10424000F8BD3B33E05C0949FFF7C2F93D23226A20
:10425000E05C0221FFF7BCF9F05D0549FFF744F887
:104260002900F05DFFF74EF8EAE7C046020004605F
:10427000A945000010B540686C30FEF72DF810BD60
:104280000121F8B586684568336804000533FF33BB
:104290001A6828008A431A60FDF7C4FF28003030EE
:1042A000FEF714F9F823EB5C002B22D03C2367685F
:1042B000A468E05CFFF738F83D23E05CFFF734F8D2
:1042C0003E23E05CFFF730F8F923FB5C012B15D0AF
:1042D000FB23F85CFF2801D0FFF726F8B08EFFF72C
:1042E0004FFD28001C30FFF7D7FCFD230022EA54C5
:1042F000F8BD28006C30FDF7B3FED7E7FA33F85C61
:10430000EAE7C046F0B54F464646D64600220023AF
:10431000C0B582B0009201930E000B6801210533F5
:10432000FF331A6807008A431A608022374C120153
:1043300023681343236023681D0015401342FAD1FC
:10434000012133680533FF331A688A431A603268E3
:10435000536C5B0A5B02536433682D4A5A65063A14
:10436000FF3ABA5C2B4B9200D4583F23F35CFF2BEF
:1043700002D0602323420FD06846FDF731FFE022D0
:10438000019BB95800205A088A4208D202B0E0BC0A
:10439000BA46B146A846F0BD403B1C43ECE7306846
:1043A000F926BE5D1C4AB600B25849009446F02278
:1043B000BE58421CFF32904612689146E422BF5814
:1043C000D53A013F3A4092464A46144F174052466A
:1043D0003A4322434446674622601022441D3A4332
:1043E000FF340D30FF302260070004681800FBF72F
:1043F0004FFE0B4B0138984200D885B2094B012083
:104400001C4034432C433C60C0E7C04600010340DD
:10441000FF010000606600007866000090FCFFFF6E
:10442000FE03000000FCF0FFF8B544680600856854
:10443000FDF702FFC023E3580700002B00D1A1E0E5
:10444000F822A25C002A06D11B7C033B012B02D977
:10445000FDF7A4FFF8BD3A23E85CFDF701FFEA6829
:104460004D4B1A60F923E35C2A68002B06D110003B
:1044700010216130FF3003681942FCD10121531D26
:10448000FF331A688A431A60AA68434B43491A608B
:104490002B681533FF331A680A401A60EA68AB6864
:1044A00013433F4A13602A68536C5B0A5B025364F0
:1044B0002B683C4A5A65C023E1581033E258043354
:1044C000E0580A60002809D06B699B689B049B0D2B
:1044D0000133984202D31218D21A0A60D823E05846
:1044E000002842D1B16870683A26FFF70BFFA85D3B
:1044F000FDF780FEA85DFDF7B7FEC023E55800215B
:104500002B0002202E681A7C033A012A23D9187442
:1045100019605B69002BF6D1C822A3582E60002BCE
:104520002ED01A005B69002BFBD155610023C022FD
:10453000A3500432A3500832A3500432A3500432D3
:10454000A35004323800A350FDF728FF200030307C
:10455000FEF728F87EE719605B69002BD3D1C822EB
:10456000A3582E60002BDCD10AE0EB699B689B040A
:104570009B0D01339842B5D3C01A80180860B1E78B
:10458000A550D3E701212B680533FF331A688A430E
:104590001A60FDF703FF5DE72C600240FEFEFFFF9F
:1045A00004650240FF01000070B50400FEF7B4FE90
:1045B000050046682000FEF789FF00280CD1FDF7B2
:1045C0003BFEC023F3580400002B1DD001221A74B7
:1045D0002000FDF7E3FE16E0FDF72EFEFB230400AE
:1045E0000021F05CFEF7C0FFFC230122F2543C3BAB
:1045F000F358002B01D003321A742000FDF7CEFED1
:104600002800FFF711FF70BDFB230021F05CFEF7CF
:10461000ABFFFC230122F254DAE7C046F8B5454669
:10462000DE4657464E468468E0B522684568D36C3E
:104630005365C022A958BF3A1A420BD000296BD04B
:1046400003230B74FFF7F0FEF0BCBB46B246A9464D
:10465000A046F8BDE268A36802261343754A1360BA
:10466000C02398461C3399464346E9580029EBD0AD
:104670004B46EB582800002B49D0A269E3699246CB
:10468000D8306C4AE7681268174209D052469268DF
:10469000520705D1CC22AA5894460A6894456AD09C
:1046A000072217009B681F40BA461A422BD10368A5
:1046B000002B28D0C932AF58BC466344AB50DC2332
:1046C0009C46EB581F007B427B416746DB00EB5169
:1046D000534603600B68CC216958994202D3AA580B
:1046E00093425FD921002800FFF7DAFC02222368F9
:1046F000FF321533FF3319680A431A60E268A36872
:1047000013434D4A1360012E9ED00126ACE7226967
:1047100063699246D430B4E7236848480533FF33D1
:1047200019689143196023681533FF3319680140F4
:104730001960E168A3680B4341490B60E168A36815
:104740000B433C490B6021684B6C5B0A5B024B647A
:1047500023683C49596523680533FF331968914341
:1047600019608021384A090113680B4313601368EC
:104770000B42FCD168E74A69002A91D18A277F0061
:10478000BB46226893445A461768BC462F4FBA4628
:104790006746524617403A005F463A60E268254F46
:1047A0003A607DE7FDF748FDC023EA585346C8212B
:1047B00013746B58002B2CD16A50C0235169E950F7
:1047C00000235361DC33EB58002B28D1D433EA5853
:1047D000CC23EA5000220433EA50FDF7DFFDC0236A
:1047E000EB58002B1ED021002800FFF759FC0222B5
:1047F0002368FF321533FF3319680A431A60E268F1
:10480000A36813430C4A136028003030FDF7CAFE3A
:1048100079E719005B69002BFBD14A61CDE7D8230A
:10482000EA58D5E7236805491533FF331A680A406B
:104830001A60E9E70465024028600240FEFEFFFFBF
:104840002C600240FF01000000010340FFFEFFFF5B
:10485000F8B50500140056689768012809D039009A
:104860003000FFF74FFDF923F35C012B22D000202D
:10487000F8BD3B680133FF331C68F923F35C002B60
:1048800012D1FB33F05C0D49FEF728FE3C230C49A6
:10489000F85CFEF723FE3E23240A0A492540F85C13
:1048A0002943FEF71BFEE2E73D230649F85CFEF7CD
:1048B00015FEDCE72000FFF7A3FCD8E70104002089
:1048C0000200046000040020F0B54F464646D6467C
:1048D000C0B5836884B09846446805000E00FDF7B3
:1048E000ABFCFD23E75C9946002F00D083E07369A1
:1048F000083B082B00D97EE001234A46A354FDF76C
:104900004DFDE02332697169E2500433E150F92131
:10491000337B8A46635430780139605470681039AB
:104920006050143167543C3967500431675004318A
:104930006750307E323160544146C88EF621605255
:10494000591E8B410E215B428B431033DE31635085
:10495000FE23E754334B93429B41F0225B421B04FE
:10496000A350FEF791FC4346988EFFF7D1F9112032
:10497000FFF7CEF9A9686868FFF7C4FC071E49D0A5
:104980003F234246D25CBC33E2545346E35C012BE6
:104990003CD06846FDF7B4FC42463B230095D35C0F
:1049A000414601933A23204AC95C20006B46FDF73B
:1049B000B1FC6846FDF7E0FB434620005B686A46B1
:1049C0001A49303002930095FDF712FD20002B00AC
:1049D0000521174A1C30FFF74BF9F823E35C002B45
:1049E0000DD0B368BC222800A35004B0E0BCBA4686
:1049F000B146A846F0BDFDF7D1FC0020F5E7200048
:104A000000216C30FDF714FB0A4BEBE72800FFF7A1
:104A1000F7FBBEE74346988EFFF7B2F94B460020FE
:104A2000E754E2E7FF083D001D460000394A000058
:104A30005148000075420000F0B54646D6464F4644
:104A4000C0B580464668FDF7F7FBC823F45805005B
:104A5000002C22D000239A46144BC827994610E018
:104A60000120FFF73BF92800FDF798FCBC2321004B
:104A70004046F3589847FDF7DFFBF4590500002C3A
:104A80000BD06369F351534663616368013B4B4547
:104A9000E6D80320FFF722F9E2E72800FDF77EFCC5
:104AA000E0BCBA46B146A846F0BDC046FEFFFF1FB7
:104AB0002039F8B544688568072900D97DE0404B66
:104AC00089005B589F46C023E358002B67D0FE2324
:104AD000E35C002B63D001212B685A1DFF3216685E
:104AE000314207D113680B431360F923E35C002BB9
:104AF00052D02B6802221533FF331968FF320A4364
:104B00001A60EA68AB6813432E4A13600020F8BDB0
:104B10001378F922A25C002A41D10F2B3FD8F02153
:104B20001B0463502B6828480D33FF331A6802407A
:104B30001A602B6861580D33FF331A680A431A60F4
:104B4000E4E7F923E35C012B29D1FC22A354DDE740
:104B5000FB230021E05CFEF707FDFC230022E2546A
:104B6000D4E71678FF2E1DD1FB25605DFF28CDD040
:104B7000FEF7DAFBFF236355C8E7C023E358002B99
:104B80000DD10122FE33E254C0E7C023E358002BCD
:104B900005D1FE22A354B9E7FFF732FBA9E70120B4
:104BA0004042B4E7FB27E05DFEF7BEFBE655300070
:104BB000EA6A0649FEF70CFDA8E702204042A6E794
:104BC0002866000028600240FFFFF0FF020004603A
:104BD000F0B54E46DE4657464546E0B50B68060042
:104BE0000C0087B0002B07D1002007B0F0BCBB46FB
:104BF000B246A946A046F0BD436887689846FDF7CF
:104C00001BFBE4234246D3580500082B0CD9012393
:104C1000A2681A4205D0032328002374FDF7BEFBC7
:104C2000E2E762681A42F6D1C02243469B58002B45
:104C300000D1E7E0F8234246D35C002BEBD0C4233D
:104C4000D25854614246D450BE3B2374F633D35CF1
:104C500000226261012B00D1CAE06368D04A013BA7
:104C6000934200D8AAE00120FFF720F8F82342463B
:104C7000D35C002B74D122683B6B9A4270D2FC2328
:104C80004246D35C0293002B6AD1F933D35C002BEC
:104C900003D0E823D358013362D12800FDF77EFB0F
:104CA000B36872689946A36803929B46002B00D1B3
:104CB0007EE1E423D3586768082B00D962E1012321
:104CC000002F00D162E19A4602934B4601211B68F6
:104CD00025685A1DFF32106801420AD113680B4340
:104CE0001360F923039AD35C002B00D171E14B468A
:104CF0001B68681E002D00D16FE11A006132FF327F
:104D0000944642468046200005924C4602260421E5
:104D1000624681460195E42503984059019D082883
:104D20000AD98CE03A785133FF331A60236857442C
:104D30001A006132013DFF32002D02D01068064298
:104D4000F0D110680142FCD15A464133FF331B6851
:104D50000195137023681A006132FF32049280E0DB
:104D60003B68904A74685A65C0233A685B00516C8E
:104D70000B435364B3689946D823E3589A46D42327
:104D8000E358002B16D15346002B00D19AE0494638
:104D90002000FFF785F901213A682800536C0B4386
:104DA0005364FDF7FBFAF8234246D35C002B09D08D
:104DB00001201AE75346002BE9D0ECE70320FEF769
:104DC00075FF50E74446E8336C342000D158FDF7B6
:104DD00059FA0028ECD04246C023D35803223000B1
:104DE0001A74FFF721FB00212000FDF74BFAFBE6C8
:104DF0004146FB330232CA54013BC85C6A49FEF7A4
:104E0000B3FB2AE741468C50C4228C5008328B50A9
:104E100004328B5004328B5004328B50FC23CB5C19
:104E2000002B4BD00522227412E73A885133FF330E
:104E30001A60236857441A006132013DFF329446DC
:104E4000002D02D010680642EFD110680142FCD15B
:104E500060460490180001955D464130FF300068BF
:104E60002880029884464046E3440138804600D3B7
:104E700051E7059B4C469846049B9C46EC23039ABD
:104E80006146D258102A15D00B681342FCD06368D3
:104E9000434A013B93427FD90120FEF71FFFC02206
:104EA0004346995800230B7441468B50043201202D
:104EB0008B509AE60B681A42FCD1E8E70122636145
:104EC0002274CAE63A339B464B465A46985CFDF735
:104ED000C7F94B460221986801F04EFA4B46022171
:104EE000D86801F049FA4A463923506CD15C01F088
:104EF00043F84A463823106CD15C01F03DF84B462C
:104F00005A46985CFDF776F94B465A46985CFDF791
:104F1000ABF949462000FFF7C3F8DC235246E250C4
:104F20001C3BE25880231268DB009A4225D8FE23FE
:104F3000E35C002B00D02EE70122B36870681B6889
:104F40000533FF3319680A4206D119680A431A600B
:104F5000F923C35C002B45D04B4602221B68FF326D
:104F60001533FF3319680A431A604B464A469B685B
:104F7000D26813430D4A13600DE749462000FFF73E
:104F80008FF8D4E70223002F00D09CE61700002200
:104F9000F6379246029398E60320FEF79FFE7BE7E2
:104FA000FEFFFF1FFF010000040003002860024015
:104FB000F42113008C46676863449B46002F15D08C
:104FC000E423D258DC3B93429B415B4201339A4637
:104FD0007BE63000FFF714F989E6B02252009446D0
:104FE0009C444BE73000FFF70BF9B5E70023CDE712
:104FF000020030B5034B32CB32C213CB13C213CBFA
:1050000013C230BD9866000070B5056804002B79A6
:1050100082B0012B01D902B070BDFDF70DF96423F8
:10502000EA5C0600002A05D00022EA54AB7A2A671F
:10503000002B03D03000FDF7B1F9ECE72800013375
:10504000AB727C30FDF748F92B79012BF2D10E20A1
:105050004042AB6CAA6FA96E0090DA302D58200048
:10506000A847E7E7F8B5066804004768FDF7E4F8E5
:10507000737A0500002B03D12800FDF78FF9F8BDE6
:10508000200000F01FFC380000F08CFB0021200005
:1050900000F0B6FE00237372EEE7C04670B50668F6
:1050A0000400FDF7C9F8737A0500002B03D028002F
:1050B000FDF774F970BD01337372200000F082FEB9
:1050C000606800F095FE200000F038FC0021200010
:1050D00000F09CFEEBE7C046F0B5454657464E460D
:1050E000DE46E0B58146884615009A46046885B0DC
:1050F000002B02D0002352461360FDF79DF8E379A0
:105100008346002B00D1C8E06427E65D002E00D066
:10511000BEE0002D00D1B7E0484600F0D3FB0123EC
:10512000E355434627004846A366E5662567A6671C
:10513000A663A6722673FFF7B1FF484600F0FEFB98
:105140004C3701E0002B6CD0380003A900F08EFE34
:10515000236F05000600834201D21D001E00A06FD0
:1051600032000399404401F02DF93100380000F07D
:1051700063FE236FA26F9B1B92192367A267002D0A
:10518000E0DC2279022A46D0002B4DD05846FDF7AC
:1051900005F92379002B15D00025FDF74DF823796B
:1051A000012B05D05346002B02D05246A36F13604B
:1051B000FDF7F4F8280005B0F0BCBB46B246A9469E
:1051C000A046F0BD2000236F7C30002B58D00E99F4
:1051D000FDF758F8002801D001232373FDF72CF8C0
:1051E0000600484600F06EFB002364222367A36696
:1051F0004846A35400F0A2FB257B6B1E9D410C2367
:105200006D429D43A37A002B01D00E256D423000E4
:10521000FDF7C4F8C1E7002364222367A366A35403
:10522000B4E72279022AF6D000236421A66E6354E3
:10523000A366012AAAD158462274FDF7AFF8E37B92
:10524000002B19D1237C002B16D001230025984672
:10525000CC27FCF7F1FF43462574E373FDF79EF876
:10526000A36CA26F0095E15948468B463100D847A0
:10527000237CE573002BECD1FCF7DEFF834685E74A
:105280000021FCF7FFFF87E7FDF788F80A3D91E76B
:105290000925FDF783F86D428CE70F25FDF77EF8B1
:1052A0006D4287E7F0B583B006680400FCF7C4FFE1
:1052B000F37A0500002B16D0337A002B04D1280096
:1052C000FDF76CF803B0F0BD606800F0A5FD0028A4
:1052D000FAD0606800F07AFA0023012120003372CE
:1052E00000F08EFDEBE70133F372200000F0A0FB2D
:1052F0007379022B1BD0E823F35C002BDCD073798D
:10530000002B1DD0012BD7D10023E8220E20EC2149
:10531000B3540C32B35040420832B36CB258715897
:1053200000905F30FF3037582000B847C4E7FC22B8
:10533000B3581B1A3000B350D03000F0ABFDDAE7A1
:10534000701CFF30FCF7C8FF7379DBE77047C0467D
:1053500010B55468012801D0002010BD5223E15C33
:10536000606A4B425941084B00229C46C0B26144DE
:10537000FEF72EF9E369012BEED1E06A0022034922
:10538000C0B2FEF725F9E7E7000400200104002081
:1053900030B583B0050068460C00FCF721FF3422CD
:1053A0003521A85C695C484A484B525C36211B5C3D
:1053B000695C1343464A2068525C019913432A6B87
:1053C00000F088FF2368434A5A64192223685A630D
:1053D000E369012B36D022683F49136B0B401363FE
:1053E000E3692268012B3AD0136B3C490B401363ED
:1053F0005223E25C2368012A3ED0022A08D106210A
:105400001A6B0A431A6353222368A25C1A62236848
:105410001021DA6A0A43DA6222680F39136B0B43F0
:1054200013635623E35C002B04D022683F31136BD7
:105430000B431363E36B002B02D0A36B002B21D132
:1054400003B030BDA36AFF2BC5D0802322681B02A6
:10545000116B0B431363E3692268012BC4D1E36A28
:10546000FF2BC1D08023116BDB010B43136352234D
:10547000E25C2368012AC0D102211A6B0A431A6335
:105480002368C5E72568FCF7D7FE0122AB6C934380
:10549000AB64FCF783FFE36B114A02211360114AEE
:1054A0001360E06B00F068FFA06B022100F064FF66
:1054B0005523E06DE15C00F05FFD5423A06DE15CDD
:1054C00000F05AFDBCE7C046C4660000C866000094
:1054D000BC660000F2370000FF7FFFFFFFBFFFFF49
:1054E0002C6002400465024010B51400042801D06D
:1054F000002010BD51681068FFF74AFF6468022160
:10550000606A226CC0B2FEF763F8206A626C0A49D6
:10551000C0B2FEF75DF8E369012BE9D1A06AA26C85
:105520000549C0B2FEF754F8E06A0221E26CC0B24D
:10553000FEF74EF8DCE7C0460200046070B50400D8
:105540004668244932680568936B0B409363FFF704
:10555000A9FE2000FFF758FD2000FFF783FD30680B
:1055600000F0DEFE002364682B72606AC0B2FDF7B3
:10557000DBFE206AC0B2FDF7D7FEE369012B1FD026
:1055800028001430FCF74EFE681CFF30FCF768FD65
:1055900028007C30FCF764FD28005930FF30FEF70E
:1055A0007BFB28006D30FF30FEF776FB5023F05A6E
:1055B000FEF7E6FB1120FEF7E3FB0023EB7170BD65
:1055C000A06AC0B2FDF7B0FEE06AC0B2FDF7ACFE63
:1055D000D6E7C0460DC8FFFFF0B5C64600B5694B1B
:1055E0000D001B7884B0834200D8AFE0664BC0004A
:1055F000C21890465768C458002900D1A9E02B78FA
:10560000012B00D19EE06B78012B03D1AB68002BFE
:1056100000D19BE0FCF710FEE679002E00D09EE062
:105620000123E371FCF7BAFE0023A660E6816374F0
:1056300026602A88A2802A7DA271CC226968A150A6
:10564000A9688432A1502969EA686164A969226461
:105650002163A98BA1863621A87F6054296AA164A1
:10566000EC2166500831A6666650043926676650FC
:105670000831E666A663E66366676650943963544C
:1056800084316354002A66D05023F85AFEF740FB59
:105690001120FEF73DFB20003A69F9684C3000F01C
:1056A000C1FB2000BA697969D03000F0BBFB3868D3
:1056B00000F036FE434620005968FFF769FE434676
:1056C0005D680221686A2A6CC0B2FDF781FF286A12
:1056D0006A6C2E49C0B2FDF77BFFEB69012B43D00A
:1056E0002000593043460121294AFF30FEF7C0FA15
:1056F00020006D3043460421264AFF30FEF7B8FAF9
:1057000001A8FCF7FDFD4346200001933B7A224AA5
:1057100079680293143001ABFCF7FCFD20000021F6
:105720007C30FCF785FC601C0021FF30FCF780FC1E
:105730007A6B3B6813603A6B5360404604B080BCA0
:10574000B846F0BD6B68002B00D05CE7002398469C
:10575000F3E7124D53E7124B6264236494E7FCF7BE
:105760001DFE00239846E8E7A86AAA6C0749C0B264
:10577000FDF72EFFE86A0221EA6CC0B2FDF728FFB0
:10578000AEE7C046AC650000A465000002000460FE
:1057900051530000E9540000B55A0000986600001B
:1057A0004D53000002680649936B0B4093630368F6
:1057B000044A05495A640268136B0B40136370472F
:1057C0002FD8FFFFD0270000FFFDFFFF026802492E
:1057D000136B0B4013637047FFFEFFFFF0B5F82615
:1057E00004680500A35983B0002B52D16379476840
:1057F000022B55D0F423FC22E058083BE358A25872
:10580000A0519B180193002843D03A682849936B14
:105810000B409363636CDB060CD5266C002E09D01D
:10582000237A002B06D12800A36C00221021B04758
:10583000F823E0588023DB0098422CD81D4B013818
:1058400001011940019A3B6B12181A601A4AB86B91
:105850009A609A680A439A60012100F073FDBA6B5E
:10586000164B1A603D68FCF7E7FC0222AB6C134351
:10587000AB64FCF793FD80233A685B01916B0B43AB
:105880009363237A002B04D10120FEF70FFA012342
:10589000237203B0F0BDF82206490948A350D1E7AE
:1058A000200001A9D03000F0E1FAA051ABE7C046DA
:1058B000FFF7FFFFF03F0000014000C028600240FA
:1058C000FF03000070B50468636F002B00D170BD4A
:1058D0004568174BEA6B1A602E68FCF7ADFC012295
:1058E000B36C9343B364FCF759FDEA6B114B124957
:1058F0001A602A68686B936B0B40936380222B6855
:1059000092015A6400F052FD626FE37C111A002B81
:1059100009D1236F9B1A1B182367A36F5B18A3671A
:1059200000236367D3E720004C3000F0E5FAF7E787
:105930002C60024004650240FFDFFFFFF0B5CE4659
:10594000474680B504684568637A6E6B83B0002B68
:1059500004D103B0C0BCB946B046F0BD2700FFF784
:10596000B1FF636F4C37002B35D1A36E002B02D0F3
:10597000236F002B2FD1380001A900F0DFFA01239B
:105980006067E3740028E4D00023A3738023DB0066
:10599000984241D801380201019B01211B18736014
:1059A0001F4BE86BB360B3681343B36000F0CAFCED
:1059B000EA6B1C4B1A602C68FCF73EFC0122A36CBE
:1059C0001343A364FCF7EAFC80232A689B01916BD4
:1059D0000B439363BDE7380000F046FA236F984607
:1059E0009842C8D22379022BC5D0A36E002BB0D029
:1059F000380000F039FA4346181AA36E60679846DB
:105A0000A36F3800994600F02FFA00234844404421
:105A10000190E374606FB5E7034A04486367BBE72E
:105A20000180000C28600240F03F0000FF030000EE
:105A3000F8B5F8260568AC59002C01D12000F8BD56
:105A40004468194BA26B1A602768FCF7F5FB022229
:105A5000BB6C9343BB64FCF7A1FCA26B134B1449D2
:105A60001A602268206B936B0B409363802223683B
:105A700052015A6400F09AFCAA596B790400111A79
:105A8000022B0CD0FC202B585B18F4212B506B58A8
:105A90009B1A1B196B50F8230022EA50CEE728000E
:105AA000D03000F0C9F9F6E72C60024004650240EE
:105AB000FFEFFFFFF0B545465746DE464E464368CA
:105AC000E0B598461B6807681C6C05005C64F02311
:105AD000DB0087B01C4228D03B6C9A46002B24D0B8
